{"abi":[{"type":"constructor","inputs":[{"name":"_registry","type":"address","internalType":"address"},{"name":"_voteContract","type":"address","internalType":"address"},{"name":"_disputeContract","type":"address","internalType":"address"}],"stateMutability":"nonpayable"},{"type":"receive","stateMutability":"payable"},{"type":"function","name":"BASE_REWARD","inputs":[],"outputs":[{"name":"","type":"uint256","internalType":"uint256"}],"stateMutability":"view"},{"type":"function","name":"SLASH_PERCENTAGE","inputs":[],"outputs":[{"name":"","type":"uint256","internalType":"uint256"}],"stateMutability":"view"},{"type":"function","name":"areRewardsDistributed","inputs":[{"name":"disputeId","type":"uint256","internalType":"uint256"}],"outputs":[{"name":"","type":"bool","internalType":"bool"}],"stateMutability":"view"},{"type":"function","name":"disputeContract","inputs":[],"outputs":[{"name":"","type":"address","internalType":"contract QJuryDispute"}],"stateMutability":"view"},{"type":"function","name":"distributeRewards","inputs":[{"name":"disputeId","type":"uint256","internalType":"uint256"}],"outputs":[],"stateMutability":"nonpayable"},{"type":"function","name":"distributions","inputs":[{"name":"","type":"uint256","internalType":"uint256"}],"outputs":[{"name":"disputeId","type":"uint256","internalType":"uint256"},{"name":"totalRewardPool","type":"uint256","internalType":"uint256"},{"name":"rewardPerCorrectVote","type":"uint256","internalType":"uint256"},{"name":"slashAmount","type":"uint256","internalType":"uint256"},{"name":"isDistributed","type":"bool","internalType":"bool"}],"stateMutability":"view"},{"type":"function","name":"emergencyWithdraw","inputs":[{"name":"amount","type":"uint256","internalType":"uint256"}],"outputs":[],"stateMutability":"nonpayable"},{"type":"function","name":"getCorrectVoters","inputs":[{"name":"disputeId","type":"uint256","internalType":"uint256"}],"outputs":[{"name":"","type":"address[]","internalType":"address[]"}],"stateMutability":"view"},{"type":"function","name":"getIncorrectVoters","inputs":[{"name":"disputeId","type":"uint256","internalType":"uint256"}],"outputs":[{"name":"","type":"address[]","internalType":"address[]"}],"stateMutability":"view"},{"type":"function","name":"getRewardDistribution","inputs":[{"name":"disputeId","type":"uint256","internalType":"uint256"}],"outputs":[{"name":"","type":"tuple","internalType":"struct QJuryReward.RewardDistribution","components":[{"name":"disputeId","type":"uint256","internalType":"uint256"},{"name":"totalRewardPool","type":"uint256","internalType":"uint256"},{"name":"rewardPerCorrectVote","type":"uint256","internalType":"uint256"},{"name":"slashAmount","type":"uint256","internalType":"uint256"},{"name":"isDistributed","type":"bool","internalType":"bool"},{"name":"correctVoters","type":"address[]","internalType":"address[]"},{"name":"incorrectVoters","type":"address[]","internalType":"address[]"}]}],"stateMutability":"view"},{"type":"function","name":"registry","inputs":[],"outputs":[{"name":"","type":"address","internalType":"contract QJuryRegistry"}],"stateMutability":"view"},{"type":"function","name":"voteContract","inputs":[],"outputs":[{"name":"","type":"address","internalType":"contract QJuryVote"}],"stateMutability":"view"},{"type":"event","name":"JurorRewarded","inputs":[{"name":"disputeId","type":"uint256","indexed":true,"internalType":"uint256"},{"name":"juror","type":"address","indexed":true,"internalType":"address"},{"name":"rewardAmount","type":"uint256","indexed":false,"internalType":"uint256"}],"anonymous":false},{"type":"event","name":"JurorSlashed","inputs":[{"name":"disputeId","type":"uint256","indexed":true,"internalType":"uint256"},{"name":"juror","type":"address","indexed":true,"internalType":"address"},{"name":"slashAmount","type":"uint256","indexed":false,"internalType":"uint256"}],"anonymous":false},{"type":"event","name":"RewardsDistributed","inputs":[{"name":"disputeId","type":"uint256","indexed":true,"internalType":"uint256"},{"name":"totalRewards","type":"uint256","indexed":false,"internalType":"uint256"},{"name":"correctVoters","type":"address[]","indexed":false,"internalType":"address[]"}],"anonymous":false}],"bytecode":{"object":"0x60e060405234801561000f575f5ffd5b50604051612a0d380380612a0d83398181016040528101906100319190610133565b8273ffffffffffffffffffffffffffffffffffffffff1660808173ffffffffffffffffffffffffffffffffffffffff16815250508173ffffffffffffffffffffffffffffffffffffffff1660a08173ffffffffffffffffffffffffffffffffffffffff16815250508073ffffffffffffffffffffffffffffffffffffffff1660c08173ffffffffffffffffffffffffffffffffffffffff1681525050505050610183565b5f5ffd5b5f73ffffffffffffffffffffffffffffffffffffffff82169050919050565b5f610102826100d9565b9050919050565b610112816100f8565b811461011c575f5ffd5b50565b5f8151905061012d81610109565b92915050565b5f5f5f6060848603121561014a576101496100d5565b5b5f6101578682870161011f565b93505060206101688682870161011f565b92505060406101798682870161011f565b9150509250925092565b60805160a05160c05161280c6102015f395f8181610314015281816106ae015261093b01525f81816105ca01528181610817015281816110400152818161109b0152818161113b0152818161132b01526113cb01525f8181610a4701528181610ae901528181610c6b01528181610e96015261159b015261280c5ff3fe6080604052600436106100aa575f3560e01c80635503db53116100635780635503db53146101e957806359974e38146102255780637b1039991461024d5780639f29f13514610277578063d22da17d146102a1578063ee183c4a146102dd576100b1565b806322009af6146100b55780634010b84e146100df578063433bdf9b146101095780634487d3df1461014557806352d24f76146101855780635312ea8e146101c1576100b1565b366100b157005b5f5ffd5b3480156100c0575f5ffd5b506100c9610307565b6040516100d69190611834565b60405180910390f35b3480156100ea575f5ffd5b506100f3610312565b60405161010091906118c7565b60405180910390f35b348015610114575f5ffd5b5061012f600480360381019061012a919061191b565b610336565b60405161013c9190611960565b60405180910390f35b348015610150575f5ffd5b5061016b6004803603810190610166919061191b565b61035e565b60405161017c959493929190611979565b60405180910390f35b348015610190575f5ffd5b506101ab60048036038101906101a6919061191b565b61039b565b6040516101b89190611a92565b60405180910390f35b3480156101cc575f5ffd5b506101e760048036038101906101e2919061191b565b610439565b005b3480156101f4575f5ffd5b5061020f600480360381019061020a919061191b565b610528565b60405161021c9190611a92565b60405180910390f35b348015610230575f5ffd5b5061024b6004803603810190610246919061191b565b6105c6565b005b348015610258575f5ffd5b50610261610e94565b60405161026e9190611ad2565b60405180910390f35b348015610282575f5ffd5b5061028b610eb8565b6040516102989190611834565b60405180910390f35b3480156102ac575f5ffd5b506102c760048036038101906102c2919061191b565b610ebd565b6040516102d49190611c15565b60405180910390f35b3480156102e8575f5ffd5b506102f161103e565b6040516102fe9190611c55565b60405180910390f35b66038d7ea4c6800081565b7f000000000000000000000000000000000000000000000000000000000000000081565b5f5f5f8381526020019081526020015f206004015f9054906101000a900460ff169050919050565b5f602052805f5260405f205f91509050805f015490806001015490806002015490806003015490806004015f9054906101000a900460ff16905085565b60605f5f8381526020019081526020015f2060060180548060200260200160405190810160405280929190818152602001828054801561042d57602002820191905f5260205f20905b815f9054906101000a900473ffffffffffffffffffffffffffffffffffffffff1673ffffffffffffffffffffffffffffffffffffffff16815260200190600101908083116103e4575b50505050509050919050565b4781111561047c576040517f08c379a000000000000000000000000000000000000000000000000000000000815260040161047390611cc8565b60405180910390fd5b5f3373ffffffffffffffffffffffffffffffffffffffff16826040516104a190611d13565b5f6040518083038185875af1925050503d805f81146104db576040519150601f19603f3d011682016040523d82523d5f602084013e6104e0565b606091505b5050905080610524576040517f08c379a000000000000000000000000000000000000000000000000000000000815260040161051b90611d71565b60405180910390fd5b5050565b60605f5f8381526020019081526020015f206005018054806020026020016040519081016040528092919081815260200182805480156105ba57602002820191905f5260205f20905b815f9054906101000a900473ffffffffffffffffffffffffffffffffffffffff1673ffffffffffffffffffffffffffffffffffffffff1681526020019060010190808311610571575b50505050509050919050565b805f7f000000000000000000000000000000000000000000000000000000000000000073ffffffffffffffffffffffffffffffffffffffff1663c1f9fb87836040518263ffffffff1660e01b81526004016106219190611834565b5f60405180830381865afa15801561063b573d5f5f3e3d5ffd5b505050506040513d5f823e3d601f19601f820116820180604052508101906106639190611f6a565b5050505092505050806106ab576040517f08c379a00000000000000000000000000000000000000000000000000000000081526004016106a29061206d565b60405180910390fd5b5f7f000000000000000000000000000000000000000000000000000000000000000073ffffffffffffffffffffffffffffffffffffffff1663e3a96cbd846040518263ffffffff1660e01b81526004016107059190611834565b5f60405180830381865afa15801561071f573d5f5f3e3d5ffd5b505050506040513d5f823e3d601f19601f82011682018060405250810190610747919061227b565b905060038081111561075c5761075b6122c2565b5b8160a001516003811115610773576107726122c2565b5b146107b3576040517f08c379a00000000000000000000000000000000000000000000000000000000081526004016107aa90612339565b60405180910390fd5b5f5f8581526020019081526020015f206004015f9054906101000a900460ff1615610813576040517f08c379a000000000000000000000000000000000000000000000000000000000815260040161080a906123a1565b60405180910390fd5b5f5f7f000000000000000000000000000000000000000000000000000000000000000073ffffffffffffffffffffffffffffffffffffffff1663c1f9fb87876040518263ffffffff1660e01b815260040161086e9190611834565b5f60405180830381865afa158015610888573d5f5f3e3d5ffd5b505050506040513d5f823e3d601f19601f820116820180604052508101906108b09190611f6a565b5050509350505091505f60028111156108cc576108cb6122c2565b5b8160028111156108df576108de6122c2565b5b0361091f576040517f08c379a000000000000000000000000000000000000000000000000000000000815260040161091690612409565b60405180910390fd5b5f5f61092c888585611062565b915091505f5f90505f5f90505f7f000000000000000000000000000000000000000000000000000000000000000073ffffffffffffffffffffffffffffffffffffffff1663e3a96cbd8c6040518263ffffffff1660e01b81526004016109929190611834565b5f60405180830381865afa1580156109ac573d5f5f3e3d5ffd5b505050506040513d5f823e3d601f19601f820116820180604052508101906109d4919061227b565b905066038d7ea4c6800085516109ea9190612454565b81606001516109f99190612495565b91505f5f90505b8451811015610c01575f610a2d868381518110610a2057610a1f6124c8565b5b6020026020010151611597565b90508085610a3b9190612495565b94505f811115610bf3577f000000000000000000000000000000000000000000000000000000000000000073ffffffffffffffffffffffffffffffffffffffff16633bda9978878481518110610a9457610a936124c8565b5b6020026020010151836040518363ffffffff1660e01b8152600401610aba929190612504565b5f604051808303815f87803b158015610ad1575f5ffd5b505af1158015610ae3573d5f5f3e3d5ffd5b505050507f000000000000000000000000000000000000000000000000000000000000000073ffffffffffffffffffffffffffffffffffffffff16638cbbb50c878481518110610b3657610b356124c8565b5b60200260200101515f6040518363ffffffff1660e01b8152600401610b5c92919061252b565b5f604051808303815f87803b158015610b73575f5ffd5b505af1158015610b85573d5f5f3e3d5ffd5b50505050858281518110610b9c57610b9b6124c8565b5b602002602001015173ffffffffffffffffffffffffffffffffffffffff168d7f2a369c5954bdeb7ee8dc6addfd83bce3514a05d303b289591c7df511d7b4ced383604051610bea9190611834565b60405180910390a35b508080600101915050610a00565b508282610c0e9190612495565b91505f5f865111610c1f575f610c2d565b855183610c2c919061257f565b5b90505f5f90505b8651811015610d83575f821115610d7657610c69878281518110610c5b57610c5a6124c8565b5b602002602001015183611693565b7f000000000000000000000000000000000000000000000000000000000000000073ffffffffffffffffffffffffffffffffffffffff16638cbbb50c888381518110610cb857610cb76124c8565b5b602002602001015160016040518363ffffffff1660e01b8152600401610cdf92919061252b565b5f604051808303815f87803b158015610cf6575f5ffd5b505af1158015610d08573d5f5f3e3d5ffd5b50505050868181518110610d1f57610d1e6124c8565b5b602002602001015173ffffffffffffffffffffffffffffffffffffffff168d7f38fef0e2638c7bfd9820a74741bd8d5b75996df52983ee3195e0e6db53b4fec484604051610d6d9190611834565b60405180910390a35b8080600101915050610c34565b506040518060e001604052808d8152602001848152602001828152602001858152602001600115158152602001878152602001868152505f5f8e81526020019081526020015f205f820151815f01556020820151816001015560408201518160020155606082015181600301556080820151816004015f6101000a81548160ff02191690831515021790555060a0820151816005019080519060200190610e2b929190611740565b5060c0820151816006019080519060200190610e48929190611740565b509050508b7f825b4c02077dd7832e578bb854148b8240aba074d103ece3a3ee287d82f85d908488604051610e7e9291906125af565b60405180910390a2505050505050505050505050565b7f000000000000000000000000000000000000000000000000000000000000000081565b600a81565b610ec56117c7565b5f5f8381526020019081526020015f206040518060e00160405290815f8201548152602001600182015481526020016002820154815260200160038201548152602001600482015f9054906101000a900460ff1615151515815260200160058201805480602002602001604051908101604052809291908181526020018280548015610fa357602002820191905f5260205f20905b815f9054906101000a900473ffffffffffffffffffffffffffffffffffffffff1673ffffffffffffffffffffffffffffffffffffffff1681526020019060010190808311610f5a575b505050505081526020016006820180548060200260200160405190810160405280929190818152602001828054801561102e57602002820191905f5260205f20905b815f9054906101000a900473ffffffffffffffffffffffffffffffffffffffff1673ffffffffffffffffffffffffffffffffffffffff1681526020019060010190808311610fe5575b5050505050815250509050919050565b7f000000000000000000000000000000000000000000000000000000000000000081565b6060805f5f90505f5f90505f5f90505b865181101561125e575f87828151811061108f5761108e6124c8565b5b602002602001015190507f000000000000000000000000000000000000000000000000000000000000000073ffffffffffffffffffffffffffffffffffffffff16636c8dc2888a836040518363ffffffff1660e01b81526004016110f49291906125dd565b602060405180830381865afa15801561110f573d5f5f3e3d5ffd5b505050506040513d601f19601f820116820180604052508101906111339190612604565b15611250575f7f000000000000000000000000000000000000000000000000000000000000000073ffffffffffffffffffffffffffffffffffffffff16633af7f4f78b846040518363ffffffff1660e01b81526004016111949291906125dd565b602060405180830381865afa1580156111af573d5f5f3e3d5ffd5b505050506040513d601f19601f820116820180604052508101906111d3919061262f565b90508760028111156111e8576111e76122c2565b5b8160028111156111fb576111fa6122c2565b5b0361121357848061120b9061265a565b95505061124e565b5f6002811115611226576112256122c2565b5b816002811115611239576112386122c2565b5b1461124d5783806112499061265a565b9450505b5b505b508080600101915050611072565b508167ffffffffffffffff81111561127957611278611da3565b5b6040519080825280602002602001820160405280156112a75781602001602082028036833780820191505090505b5093508067ffffffffffffffff8111156112c4576112c3611da3565b5b6040519080825280602002602001820160405280156112f25781602001602082028036833780820191505090505b5092505f5f90505f5f90505f5f90505b885181101561158a575f89828151811061131f5761131e6124c8565b5b602002602001015190507f000000000000000000000000000000000000000000000000000000000000000073ffffffffffffffffffffffffffffffffffffffff16636c8dc2888c836040518363ffffffff1660e01b81526004016113849291906125dd565b602060405180830381865afa15801561139f573d5f5f3e3d5ffd5b505050506040513d601f19601f820116820180604052508101906113c39190612604565b1561157c575f7f000000000000000000000000000000000000000000000000000000000000000073ffffffffffffffffffffffffffffffffffffffff16633af7f4f78d846040518363ffffffff1660e01b81526004016114249291906125dd565b602060405180830381865afa15801561143f573d5f5f3e3d5ffd5b505050506040513d601f19601f82011682018060405250810190611463919061262f565b9050896002811115611478576114776122c2565b5b81600281111561148b5761148a6122c2565b5b036114f157818986815181106114a4576114a36124c8565b5b602002602001019073ffffffffffffffffffffffffffffffffffffffff16908173ffffffffffffffffffffffffffffffffffffffff168152505084806114e99061265a565b95505061157a565b5f6002811115611504576115036122c2565b5b816002811115611517576115166122c2565b5b1461157957818885815181106115305761152f6124c8565b5b602002602001019073ffffffffffffffffffffffffffffffffffffffff16908173ffffffffffffffffffffffffffffffffffffffff168152505083806115759061265a565b9450505b5b505b508080600101915050611302565b5050505050935093915050565b5f5f7f000000000000000000000000000000000000000000000000000000000000000073ffffffffffffffffffffffffffffffffffffffff1663d4155d1f846040518263ffffffff1660e01b81526004016115f291906126a1565b60a060405180830381865afa15801561160d573d5f5f3e3d5ffd5b505050506040513d601f19601f820116820180604052508101906116319190612743565b9050805f01511580611644575080608001515b15611652575f91505061168e565b5f6064600a83602001516116669190612454565b611670919061257f565b9050816020015181116116835780611689565b81602001515b925050505b919050565b5f8273ffffffffffffffffffffffffffffffffffffffff16826040516116b890611d13565b5f6040518083038185875af1925050503d805f81146116f2576040519150601f19603f3d011682016040523d82523d5f602084013e6116f7565b606091505b505090508061173b576040517f08c379a0000000000000000000000000000000000000000000000000000000008152600401611732906127b8565b60405180910390fd5b505050565b828054828255905f5260205f209081019282156117b6579160200282015b828111156117b5578251825f6101000a81548173ffffffffffffffffffffffffffffffffffffffff021916908373ffffffffffffffffffffffffffffffffffffffff1602179055509160200191906001019061175e565b5b5090506117c39190611801565b5090565b6040518060e001604052805f81526020015f81526020015f81526020015f81526020015f1515815260200160608152602001606081525090565b5b80821115611818575f815f905550600101611802565b5090565b5f819050919050565b61182e8161181c565b82525050565b5f6020820190506118475f830184611825565b92915050565b5f73ffffffffffffffffffffffffffffffffffffffff82169050919050565b5f819050919050565b5f61188f61188a6118858461184d565b61186c565b61184d565b9050919050565b5f6118a082611875565b9050919050565b5f6118b182611896565b9050919050565b6118c1816118a7565b82525050565b5f6020820190506118da5f8301846118b8565b92915050565b5f604051905090565b5f5ffd5b5f5ffd5b6118fa8161181c565b8114611904575f5ffd5b50565b5f81359050611915816118f1565b92915050565b5f602082840312156119305761192f6118e9565b5b5f61193d84828501611907565b91505092915050565b5f8115159050919050565b61195a81611946565b82525050565b5f6020820190506119735f830184611951565b92915050565b5f60a08201905061198c5f830188611825565b6119996020830187611825565b6119a66040830186611825565b6119b36060830185611825565b6119c06080830184611951565b9695505050505050565b5f81519050919050565b5f82825260208201905092915050565b5f819050602082019050919050565b5f6119fd8261184d565b9050919050565b611a0d816119f3565b82525050565b5f611a1e8383611a04565b60208301905092915050565b5f602082019050919050565b5f611a40826119ca565b611a4a81856119d4565b9350611a55836119e4565b805f5b83811015611a85578151611a6c8882611a13565b9750611a7783611a2a565b925050600181019050611a58565b5085935050505092915050565b5f6020820190508181035f830152611aaa8184611a36565b905092915050565b5f611abc82611896565b9050919050565b611acc81611ab2565b82525050565b5f602082019050611ae55f830184611ac3565b92915050565b611af48161181c565b82525050565b611b0381611946565b82525050565b5f82825260208201905092915050565b5f611b23826119ca565b611b2d8185611b09565b9350611b38836119e4565b805f5b83811015611b68578151611b4f8882611a13565b9750611b5a83611a2a565b925050600181019050611b3b565b5085935050505092915050565b5f60e083015f830151611b8a5f860182611aeb565b506020830151611b9d6020860182611aeb565b506040830151611bb06040860182611aeb565b506060830151611bc36060860182611aeb565b506080830151611bd66080860182611afa565b5060a083015184820360a0860152611bee8282611b19565b91505060c083015184820360c0860152611c088282611b19565b9150508091505092915050565b5f6020820190508181035f830152611c2d8184611b75565b905092915050565b5f611c3f82611896565b9050919050565b611c4f81611c35565b82525050565b5f602082019050611c685f830184611c46565b92915050565b5f82825260208201905092915050565b7f496e73756666696369656e742062616c616e63650000000000000000000000005f82015250565b5f611cb2601483611c6e565b9150611cbd82611c7e565b602082019050919050565b5f6020820190508181035f830152611cdf81611ca6565b9050919050565b5f81905092915050565b50565b5f611cfe5f83611ce6565b9150611d0982611cf0565b5f82019050919050565b5f611d1d82611cf3565b9150819050919050565b7f5472616e73666572206661696c656400000000000000000000000000000000005f82015250565b5f611d5b600f83611c6e565b9150611d6682611d27565b602082019050919050565b5f6020820190508181035f830152611d8881611d4f565b9050919050565b5f5ffd5b5f601f19601f8301169050919050565b7f4e487b71000000000000000000000000000000000000000000000000000000005f52604160045260245ffd5b611dd982611d93565b810181811067ffffffffffffffff82111715611df857611df7611da3565b5b80604052505050565b5f611e0a6118e0565b9050611e168282611dd0565b919050565b5f67ffffffffffffffff821115611e3557611e34611da3565b5b602082029050602081019050919050565b5f5ffd5b611e53816119f3565b8114611e5d575f5ffd5b50565b5f81519050611e6e81611e4a565b92915050565b5f611e86611e8184611e1b565b611e01565b90508083825260208201905060208402830185811115611ea957611ea8611e46565b5b835b81811015611ed25780611ebe8882611e60565b845260208401935050602081019050611eab565b5050509392505050565b5f82601f830112611ef057611eef611d8f565b5b8151611f00848260208601611e74565b91505092915050565b5f81519050611f17816118f1565b92915050565b611f2681611946565b8114611f30575f5ffd5b50565b5f81519050611f4181611f1d565b92915050565b60038110611f53575f5ffd5b50565b5f81519050611f6481611f47565b92915050565b5f5f5f5f5f5f5f60e0888a031215611f8557611f846118e9565b5b5f88015167ffffffffffffffff811115611fa257611fa16118ed565b5b611fae8a828b01611edc565b9750506020611fbf8a828b01611f09565b9650506040611fd08a828b01611f33565b9550506060611fe18a828b01611f56565b9450506080611ff28a828b01611f09565b93505060a06120038a828b01611f09565b92505060c06120148a828b01611f09565b91505092959891949750929550565b7f566f74696e67206e6f7420636c6f7365640000000000000000000000000000005f82015250565b5f612057601183611c6e565b915061206282612023565b602082019050919050565b5f6020820190508181035f8301526120848161204b565b9050919050565b5f5ffd5b5f5ffd5b5f5ffd5b5f67ffffffffffffffff8211156120b1576120b0611da3565b5b6120ba82611d93565b9050602081019050919050565b8281835e5f83830152505050565b5f6120e76120e284612097565b611e01565b90508281526020810184848401111561210357612102612093565b5b61210e8482856120c7565b509392505050565b5f82601f83011261212a57612129611d8f565b5b815161213a8482602086016120d5565b91505092915050565b6004811061214f575f5ffd5b50565b5f8151905061216081612143565b92915050565b5f610120828403121561217c5761217b61208b565b5b612187610120611e01565b90505f61219684828501611f09565b5f8301525060206121a984828501611e60565b602083015250604082015167ffffffffffffffff8111156121cd576121cc61208f565b5b6121d984828501612116565b60408301525060606121ed84828501611f09565b606083015250608061220184828501611f09565b60808301525060a061221584828501612152565b60a08301525060c082015167ffffffffffffffff8111156122395761223861208f565b5b61224584828501611edc565b60c08301525060e061225984828501611f09565b60e08301525061010061226e84828501611f33565b6101008301525092915050565b5f602082840312156122905761228f6118e9565b5b5f82015167ffffffffffffffff8111156122ad576122ac6118ed565b5b6122b984828501612166565b91505092915050565b7f4e487b71000000000000000000000000000000000000000000000000000000005f52602160045260245ffd5b7f44697370757465206e6f74207265736f6c7665640000000000000000000000005f82015250565b5f612323601483611c6e565b915061232e826122ef565b602082019050919050565b5f6020820190508181035f83015261235081612317565b9050919050565b7f5265776172647320616c726561647920646973747269627574656400000000005f82015250565b5f61238b601b83611c6e565b915061239682612357565b602082019050919050565b5f6020820190508181035f8301526123b88161237f565b9050919050565b7f4e6f20636c656172206d616a6f726974790000000000000000000000000000005f82015250565b5f6123f3601183611c6e565b91506123fe826123bf565b602082019050919050565b5f6020820190508181035f830152612420816123e7565b9050919050565b7f4e487b71000000000000000000000000000000000000000000000000000000005f52601160045260245ffd5b5f61245e8261181c565b91506124698361181c565b92508282026124778161181c565b9150828204841483151761248e5761248d612427565b5b5092915050565b5f61249f8261181c565b91506124aa8361181c565b92508282019050808211156124c2576124c1612427565b5b92915050565b7f4e487b71000000000000000000000000000000000000000000000000000000005f52603260045260245ffd5b6124fe816119f3565b82525050565b5f6040820190506125175f8301856124f5565b6125246020830184611825565b9392505050565b5f60408201905061253e5f8301856124f5565b61254b6020830184611951565b9392505050565b7f4e487b71000000000000000000000000000000000000000000000000000000005f52601260045260245ffd5b5f6125898261181c565b91506125948361181c565b9250826125a4576125a3612552565b5b828204905092915050565b5f6040820190506125c25f830185611825565b81810360208301526125d48184611a36565b90509392505050565b5f6040820190506125f05f830185611825565b6125fd60208301846124f5565b9392505050565b5f60208284031215612619576126186118e9565b5b5f61262684828501611f33565b91505092915050565b5f60208284031215612644576126436118e9565b5b5f61265184828501611f56565b91505092915050565b5f6126648261181c565b91507fffffffffffffffffffffffffffffffffffffffffffffffffffffffffffffffff820361269657612695612427565b5b600182019050919050565b5f6020820190506126b45f8301846124f5565b92915050565b5f60a082840312156126cf576126ce61208b565b5b6126d960a0611e01565b90505f6126e884828501611f33565b5f8301525060206126fb84828501611f09565b602083015250604061270f84828501611f09565b604083015250606061272384828501611f09565b606083015250608061273784828501611f33565b60808301525092915050565b5f60a08284031215612758576127576118e9565b5b5f612765848285016126ba565b91505092915050565b7f526577617264207472616e73666572206661696c6564000000000000000000005f82015250565b5f6127a2601683611c6e565b91506127ad8261276e565b602082019050919050565b5f6020820190508181035f8301526127cf81612796565b905091905056fea2646970667358221220b861cba20a7fc9d691b219bb65f3665c949ade0ccf41c43aa60216a8676ac3a364736f6c634300081e0033","linkReferences":{}},"methodIdentifiers":{"BASE_REWARD()":"22009af6","SLASH_PERCENTAGE()":"9f29f135","areRewardsDistributed(uint256)":"433bdf9b","disputeContract()":"4010b84e","distributeRewards(uint256)":"59974e38","distributions(uint256)":"4487d3df","emergencyWithdraw(uint256)":"5312ea8e","getCorrectVoters(uint256)":"5503db53","getIncorrectVoters(uint256)":"52d24f76","getRewardDistribution(uint256)":"d22da17d","registry()":"7b103999","voteContract()":"ee183c4a"},"id":3}