{"abi":[{"type":"constructor","inputs":[{"name":"_registry","type":"address","internalType":"address"},{"name":"_voteContract","type":"address","internalType":"address"},{"name":"_disputeContract","type":"address","internalType":"address"}],"stateMutability":"nonpayable"},{"type":"receive","stateMutability":"payable"},{"type":"function","name":"BASE_REWARD","inputs":[],"outputs":[{"name":"","type":"uint256","internalType":"uint256"}],"stateMutability":"view"},{"type":"function","name":"SLASH_PERCENTAGE","inputs":[],"outputs":[{"name":"","type":"uint256","internalType":"uint256"}],"stateMutability":"view"},{"type":"function","name":"areRewardsDistributed","inputs":[{"name":"disputeId","type":"uint256","internalType":"uint256"}],"outputs":[{"name":"","type":"bool","internalType":"bool"}],"stateMutability":"view"},{"type":"function","name":"disputeContract","inputs":[],"outputs":[{"name":"","type":"address","internalType":"contract QJuryDispute"}],"stateMutability":"view"},{"type":"function","name":"distributeRewards","inputs":[{"name":"disputeId","type":"uint256","internalType":"uint256"}],"outputs":[],"stateMutability":"nonpayable"},{"type":"function","name":"distributions","inputs":[{"name":"","type":"uint256","internalType":"uint256"}],"outputs":[{"name":"disputeId","type":"uint256","internalType":"uint256"},{"name":"totalRewardPool","type":"uint256","internalType":"uint256"},{"name":"rewardPerCorrectVote","type":"uint256","internalType":"uint256"},{"name":"slashAmount","type":"uint256","internalType":"uint256"},{"name":"isDistributed","type":"bool","internalType":"bool"}],"stateMutability":"view"},{"type":"function","name":"emergencyWithdraw","inputs":[{"name":"amount","type":"uint256","internalType":"uint256"}],"outputs":[],"stateMutability":"nonpayable"},{"type":"function","name":"getCorrectVoters","inputs":[{"name":"disputeId","type":"uint256","internalType":"uint256"}],"outputs":[{"name":"","type":"address[]","internalType":"address[]"}],"stateMutability":"view"},{"type":"function","name":"getIncorrectVoters","inputs":[{"name":"disputeId","type":"uint256","internalType":"uint256"}],"outputs":[{"name":"","type":"address[]","internalType":"address[]"}],"stateMutability":"view"},{"type":"function","name":"getRewardDistribution","inputs":[{"name":"disputeId","type":"uint256","internalType":"uint256"}],"outputs":[{"name":"","type":"tuple","internalType":"struct QJuryReward.RewardDistribution","components":[{"name":"disputeId","type":"uint256","internalType":"uint256"},{"name":"totalRewardPool","type":"uint256","internalType":"uint256"},{"name":"rewardPerCorrectVote","type":"uint256","internalType":"uint256"},{"name":"slashAmount","type":"uint256","internalType":"uint256"},{"name":"isDistributed","type":"bool","internalType":"bool"},{"name":"correctVoters","type":"address[]","internalType":"address[]"},{"name":"incorrectVoters","type":"address[]","internalType":"address[]"}]}],"stateMutability":"view"},{"type":"function","name":"registry","inputs":[],"outputs":[{"name":"","type":"address","internalType":"contract QJuryRegistry"}],"stateMutability":"view"},{"type":"function","name":"voteContract","inputs":[],"outputs":[{"name":"","type":"address","internalType":"contract QJuryVote"}],"stateMutability":"view"},{"type":"event","name":"JurorRewarded","inputs":[{"name":"disputeId","type":"uint256","indexed":true,"internalType":"uint256"},{"name":"juror","type":"address","indexed":true,"internalType":"address"},{"name":"rewardAmount","type":"uint256","indexed":false,"internalType":"uint256"}],"anonymous":false},{"type":"event","name":"JurorSlashed","inputs":[{"name":"disputeId","type":"uint256","indexed":true,"internalType":"uint256"},{"name":"juror","type":"address","indexed":true,"internalType":"address"},{"name":"slashAmount","type":"uint256","indexed":false,"internalType":"uint256"}],"anonymous":false},{"type":"event","name":"RewardsDistributed","inputs":[{"name":"disputeId","type":"uint256","indexed":true,"internalType":"uint256"},{"name":"totalRewards","type":"uint256","indexed":false,"internalType":"uint256"},{"name":"correctVoters","type":"address[]","indexed":false,"internalType":"address[]"}],"anonymous":false}],"bytecode":{"object":"0x60e06040523480156200001157600080fd5b5060405162001c9938038062001c9983398101604081905262000034916200006f565b6001600160a01b0392831660805290821660a0521660c052620000b9565b80516001600160a01b03811681146200006a57600080fd5b919050565b6000806000606084860312156200008557600080fd5b620000908462000052565b9250620000a06020850162000052565b9150620000b06040850162000052565b90509250925092565b60805160a05160c051611b5d6200013c6000396000818160f7015281816105ca015261081b015260008181610302015281816104f90152818161072401528181610ef901528181610fc601528181611166015261123301526000818161028c01528181610919015281816109c601528181610b4401526113a00152611b5d6000f3fe6080604052600436106100ab5760003560e01c80635503db53116100645780635503db531461023a57806359974e381461025a5780637b1039991461027a5780639f29f135146102ae578063d22da17d146102c3578063ee183c4a146102f057600080fd5b806322009af6146100b75780634010b84e146100e5578063433bdf9b146101315780634487d3df1461017457806352d24f76146101eb5780635312ea8e1461021857600080fd5b366100b257005b600080fd5b3480156100c357600080fd5b506100d266038d7ea4c6800081565b6040519081526020015b60405180910390f35b3480156100f157600080fd5b506101197f000000000000000000000000000000000000000000000000000000000000000081565b6040516001600160a01b0390911681526020016100dc565b34801561013d57600080fd5b5061016461014c366004611586565b60009081526020819052604090206004015460ff1690565b60405190151581526020016100dc565b34801561018057600080fd5b506101c161018f366004611586565b600060208190529081526040902080546001820154600283015460038401546004909401549293919290919060ff1685565b6040805195865260208601949094529284019190915260608301521515608082015260a0016100dc565b3480156101f757600080fd5b5061020b610206366004611586565b610324565b6040516100dc91906115e3565b34801561022457600080fd5b50610238610233366004611586565b610391565b005b34801561024657600080fd5b5061020b610255366004611586565b61046b565b34801561026657600080fd5b50610238610275366004611586565b6104d6565b34801561028657600080fd5b506101197f000000000000000000000000000000000000000000000000000000000000000081565b3480156102ba57600080fd5b506100d2600a81565b3480156102cf57600080fd5b506102e36102de366004611586565b610d73565b6040516100dc91906115fd565b3480156102fc57600080fd5b506101197f000000000000000000000000000000000000000000000000000000000000000081565b6000818152602081815260409182902060060180548351818402810184019094528084526060939283018282801561038557602002820191906000526020600020905b81546001600160a01b03168152600190910190602001808311610367575b50505050509050919050565b478111156103dd5760405162461bcd60e51b8152602060048201526014602482015273496e73756666696369656e742062616c616e636560601b60448201526064015b60405180910390fd5b604051600090339083908381818185875af1925050503d806000811461041f576040519150601f19603f3d011682016040523d82523d6000602084013e610424565b606091505b50509050806104675760405162461bcd60e51b815260206004820152600f60248201526e151c985b9cd9995c8819985a5b1959608a1b60448201526064016103d4565b5050565b60008181526020818152604091829020600501805483518184028101840190945280845260609392830182828015610385576020028201919060005260206000209081546001600160a01b031681526001909101906020018083116103675750505050509050919050565b60405163c1f9fb8760e01b81526004810182905281906000906001600160a01b037f0000000000000000000000000000000000000000000000000000000000000000169063c1f9fb8790602401600060405180830381865afa158015610540573d6000803e3d6000fd5b505050506040513d6000823e601f3d908101601f1916820160405261056891908101906117a7565b5050505092505050806105b15760405162461bcd60e51b8152602060048201526011602482015270159bdd1a5b99c81b9bdd0818db1bdcd959607a1b60448201526064016103d4565b60405163e3a96cbd60e01b8152600481018390526000907f00000000000000000000000000000000000000000000000000000000000000006001600160a01b03169063e3a96cbd90602401600060405180830381865afa158015610619573d6000803e3d6000fd5b505050506040513d6000823e601f3d908101601f1916820160405261064191908101906118c0565b905060038160a00151600381111561065b5761065b6119b2565b1461069f5760405162461bcd60e51b8152602060048201526014602482015273111a5cdc1d5d19481b9bdd081c995cdbdb1d995960621b60448201526064016103d4565b60008481526020819052604090206004015460ff16156107015760405162461bcd60e51b815260206004820152601b60248201527f5265776172647320616c7265616479206469737472696275746564000000000060448201526064016103d4565b60405163c1f9fb8760e01b81526004810185905260009081906001600160a01b037f0000000000000000000000000000000000000000000000000000000000000000169063c1f9fb8790602401600060405180830381865afa15801561076b573d6000803e3d6000fd5b505050506040513d6000823e601f3d908101601f1916820160405261079391908101906117a7565b505050935050509150600060028111156107af576107af6119b2565b8160028111156107c1576107c16119b2565b036108025760405162461bcd60e51b81526020600482015260116024820152704e6f20636c656172206d616a6f7269747960781b60448201526064016103d4565b600080610810888585610ec7565b9150915060008060007f00000000000000000000000000000000000000000000000000000000000000006001600160a01b031663e3a96cbd8c6040518263ffffffff1660e01b815260040161086791815260200190565b600060405180830381865afa158015610884573d6000803e3d6000fd5b505050506040513d6000823e601f3d908101601f191682016040526108ac91908101906118c0565b905066038d7ea4c6800085516108c291906119de565b81606001516108d191906119fb565b915060005b8451811015610ae15760006109038683815181106108f6576108f6611a0e565b602002602001015161137c565b905061090f81866119fb565b94508015610ace577f00000000000000000000000000000000000000000000000000000000000000006001600160a01b0316633bda997887848151811061095857610958611a0e565b6020026020010151836040518363ffffffff1660e01b81526004016109929291906001600160a01b03929092168252602082015260400190565b600060405180830381600087803b1580156109ac57600080fd5b505af11580156109c0573d6000803e3d6000fd5b505050507f00000000000000000000000000000000000000000000000000000000000000006001600160a01b0316638cbbb50c878481518110610a0557610a05611a0e565b60209081029190910101516040516001600160e01b031960e084901b1681526001600160a01b03909116600482015260006024820152604401600060405180830381600087803b158015610a5857600080fd5b505af1158015610a6c573d6000803e3d6000fd5b50505050858281518110610a8257610a82611a0e565b60200260200101516001600160a01b03168d7f2a369c5954bdeb7ee8dc6addfd83bce3514a05d303b289591c7df511d7b4ced383604051610ac591815260200190565b60405180910390a35b5080610ad981611a24565b9150506108d6565b50610aec83836119fb565b9150600080865111610aff576000610b0b565b8551610b0b9084611a3d565b905060005b8651811015610c5e578115610c4c57610b42878281518110610b3457610b34611a0e565b60200260200101518361146b565b7f00000000000000000000000000000000000000000000000000000000000000006001600160a01b0316638cbbb50c888381518110610b8357610b83611a0e565b60209081029190910101516040516001600160e01b031960e084901b1681526001600160a01b03909116600482015260016024820152604401600060405180830381600087803b158015610bd657600080fd5b505af1158015610bea573d6000803e3d6000fd5b50505050868181518110610c0057610c00611a0e565b60200260200101516001600160a01b03168d7f38fef0e2638c7bfd9820a74741bd8d5b75996df52983ee3195e0e6db53b4fec484604051610c4391815260200190565b60405180910390a35b80610c5681611a24565b915050610b10565b506040518060e001604052808d8152602001848152602001828152602001858152602001600115158152602001878152602001868152506000808e81526020019081526020016000206000820151816000015560208201518160010155604082015181600201556060820151816003015560808201518160040160006101000a81548160ff02191690831515021790555060a0820151816005019080519060200190610d0b92919061150c565b5060c08201518051610d2791600684019160209091019061150c565b509050508b7f825b4c02077dd7832e578bb854148b8240aba074d103ece3a3ee287d82f85d908488604051610d5d929190611a5f565b60405180910390a2505050505050505050505050565b610db56040518060e001604052806000815260200160008152602001600081526020016000815260200160001515815260200160608152602001606081525090565b60008281526020818152604091829020825160e0810184528154815260018201548184015260028201548185015260038201546060820152600482015460ff16151560808201526005820180548551818602810186019096528086529194929360a08601939290830182828015610e5557602002820191906000526020600020905b81546001600160a01b03168152600190910190602001808311610e37575b5050505050815260200160068201805480602002602001604051908101604052809291908181526020018280548015610eb757602002820191906000526020600020905b81546001600160a01b03168152600190910190602001808311610e99575b5050505050815250509050919050565b60608060008060005b86518110156110ac576000878281518110610eed57610eed611a0e565b602002602001015190507f00000000000000000000000000000000000000000000000000000000000000006001600160a01b0316636c8dc2888a836040518363ffffffff1660e01b8152600401610f579291909182526001600160a01b0316602082015260400190565b602060405180830381865afa158015610f74573d6000803e3d6000fd5b505050506040513d601f19601f82011682018060405250810190610f989190611a78565b1561109957604051633af7f4f760e01b8152600481018a90526001600160a01b0382811660248301526000917f000000000000000000000000000000000000000000000000000000000000000090911690633af7f4f790604401602060405180830381865afa15801561100f573d6000803e3d6000fd5b505050506040513d601f19601f820116820180604052508101906110339190611a93565b9050876002811115611047576110476119b2565b816002811115611059576110596119b2565b03611070578461106881611a24565b955050611097565b6000816002811115611084576110846119b2565b14611097578361109381611a24565b9450505b505b50806110a481611a24565b915050610ed0565b508167ffffffffffffffff8111156110c6576110c6611674565b6040519080825280602002602001820160405280156110ef578160200160208202803683370190505b5093508067ffffffffffffffff81111561110b5761110b611674565b604051908082528060200260200182016040528015611134578160200160208202803683370190505b50925060008060005b885181101561136f57600089828151811061115a5761115a611a0e565b602002602001015190507f00000000000000000000000000000000000000000000000000000000000000006001600160a01b0316636c8dc2888c836040518363ffffffff1660e01b81526004016111c49291909182526001600160a01b0316602082015260400190565b602060405180830381865afa1580156111e1573d6000803e3d6000fd5b505050506040513d601f19601f820116820180604052508101906112059190611a78565b1561135c57604051633af7f4f760e01b8152600481018c90526001600160a01b0382811660248301526000917f000000000000000000000000000000000000000000000000000000000000000090911690633af7f4f790604401602060405180830381865afa15801561127c573d6000803e3d6000fd5b505050506040513d601f19601f820116820180604052508101906112a09190611a93565b90508960028111156112b4576112b46119b2565b8160028111156112c6576112c66119b2565b0361130857818986815181106112de576112de611a0e565b6001600160a01b03909216602092830291909101909101528461130081611a24565b95505061135a565b600081600281111561131c5761131c6119b2565b1461135a578188858151811061133457611334611a0e565b6001600160a01b03909216602092830291909101909101528361135681611a24565b9450505b505b508061136781611a24565b91505061113d565b5050505050935093915050565b60405163d4155d1f60e01b81526001600160a01b03828116600483015260009182917f0000000000000000000000000000000000000000000000000000000000000000169063d4155d1f9060240160a060405180830381865afa1580156113e7573d6000803e3d6000fd5b505050506040513d601f19601f8201168201806040525081019061140b9190611aae565b8051909150158061141d575080608001515b1561142b5750600092915050565b60006064600a836020015161144091906119de565b61144a9190611a3d565b90508160200151811161145d5780611463565b81602001515b949350505050565b6000826001600160a01b03168260405160006040518083038185875af1925050503d80600081146114b8576040519150601f19603f3d011682016040523d82523d6000602084013e6114bd565b606091505b50509050806115075760405162461bcd60e51b815260206004820152601660248201527514995dd85c99081d1c985b9cd9995c8819985a5b195960521b60448201526064016103d4565b505050565b828054828255906000526020600020908101928215611561579160200282015b8281111561156157825182546001600160a01b0319166001600160a01b0390911617825560209092019160019091019061152c565b5061156d929150611571565b5090565b5b8082111561156d5760008155600101611572565b60006020828403121561159857600080fd5b5035919050565b600081518084526020808501945080840160005b838110156115d85781516001600160a01b0316875295820195908201906001016115b3565b509495945050505050565b6020815260006115f6602083018461159f565b9392505050565b60208152815160208201526020820151604082015260408201516060820152606082015160808201526080820151151560a0820152600060a083015160e060c084015261164e61010084018261159f565b905060c0840151601f198483030160e085015261166b828261159f565b95945050505050565b634e487b7160e01b600052604160045260246000fd5b604051610120810167ffffffffffffffff811182821017156116ae576116ae611674565b60405290565b604051601f8201601f1916810167ffffffffffffffff811182821017156116dd576116dd611674565b604052919050565b80516001600160a01b03811681146116fc57600080fd5b919050565b600082601f83011261171257600080fd5b8151602067ffffffffffffffff82111561172e5761172e611674565b8160051b61173d8282016116b4565b928352848101820192828101908785111561175757600080fd5b83870192505b8483101561177d5761176e836116e5565b8252918301919083019061175d565b979650505050505050565b805180151581146116fc57600080fd5b8051600381106116fc57600080fd5b600080600080600080600060e0888a0312156117c257600080fd5b875167ffffffffffffffff8111156117d957600080fd5b6117e58a828b01611701565b975050602088015195506117fb60408901611788565b945061180960608901611798565b93506080880151925060a0880151915060c0880151905092959891949750929550565b600082601f83011261183d57600080fd5b815167ffffffffffffffff81111561185757611857611674565b602061186b601f8301601f191682016116b4565b828152858284870101111561187f57600080fd5b60005b8381101561189d578581018301518282018401528201611882565b506000928101909101919091529392505050565b8051600481106116fc57600080fd5b6000602082840312156118d257600080fd5b815167ffffffffffffffff808211156118ea57600080fd5b9083019061012082860312156118ff57600080fd5b61190761168a565b82518152611917602084016116e5565b602082015260408301518281111561192e57600080fd5b61193a8782860161182c565b604083015250606083015160608201526080830151608082015261196060a084016118b1565b60a082015260c08301518281111561197757600080fd5b61198387828601611701565b60c08301525060e083015160e082015261010091506119a3828401611788565b91810191909152949350505050565b634e487b7160e01b600052602160045260246000fd5b634e487b7160e01b600052601160045260246000fd5b80820281158282048414176119f5576119f56119c8565b92915050565b808201808211156119f5576119f56119c8565b634e487b7160e01b600052603260045260246000fd5b600060018201611a3657611a366119c8565b5060010190565b600082611a5a57634e487b7160e01b600052601260045260246000fd5b500490565b828152604060208201526000611463604083018461159f565b600060208284031215611a8a57600080fd5b6115f682611788565b600060208284031215611aa557600080fd5b6115f682611798565b600060a08284031215611ac057600080fd5b60405160a0810181811067ffffffffffffffff82111715611ae357611ae3611674565b604052611aef83611788565b8152602083015160208201526040830151604082015260608301516060820152611b1b60808401611788565b6080820152939250505056fea26469706673582212201f1b10ef2be1ec4f14ffe653c954f815ca214b69832b1ad6adea33c5a6ce71af64736f6c63430008130033","linkReferences":{}},"methodIdentifiers":{"BASE_REWARD()":"22009af6","SLASH_PERCENTAGE()":"9f29f135","areRewardsDistributed(uint256)":"433bdf9b","disputeContract()":"4010b84e","distributeRewards(uint256)":"59974e38","distributions(uint256)":"4487d3df","emergencyWithdraw(uint256)":"5312ea8e","getCorrectVoters(uint256)":"5503db53","getIncorrectVoters(uint256)":"52d24f76","getRewardDistribution(uint256)":"d22da17d","registry()":"7b103999","voteContract()":"ee183c4a"},"id":3}