{"abi":[{"type":"constructor","inputs":[{"name":"_registry","type":"address","internalType":"address"},{"name":"_voteContract","type":"address","internalType":"address"},{"name":"_randomOracle","type":"address","internalType":"address"}],"stateMutability":"nonpayable"},{"type":"function","name":"DISPUTE_FEE","inputs":[],"outputs":[{"name":"","type":"uint256","internalType":"uint256"}],"stateMutability":"view"},{"type":"function","name":"JURORS_PER_DISPUTE","inputs":[],"outputs":[{"name":"","type":"uint256","internalType":"uint256"}],"stateMutability":"view"},{"type":"function","name":"assignJurors","inputs":[{"name":"disputeId","type":"uint256","internalType":"uint256"}],"outputs":[],"stateMutability":"nonpayable"},{"type":"function","name":"canAssignJurors","inputs":[{"name":"disputeId","type":"uint256","internalType":"uint256"}],"outputs":[{"name":"","type":"bool","internalType":"bool"}],"stateMutability":"view"},{"type":"function","name":"createDispute","inputs":[{"name":"description","type":"string","internalType":"string"}],"outputs":[{"name":"disputeId","type":"uint256","internalType":"uint256"}],"stateMutability":"payable"},{"type":"function","name":"disputeCounter","inputs":[],"outputs":[{"name":"","type":"uint256","internalType":"uint256"}],"stateMutability":"view"},{"type":"function","name":"disputes","inputs":[{"name":"","type":"uint256","internalType":"uint256"}],"outputs":[{"name":"id","type":"uint256","internalType":"uint256"},{"name":"creator","type":"address","internalType":"address"},{"name":"description","type":"string","internalType":"string"},{"name":"fee","type":"uint256","internalType":"uint256"},{"name":"createdAt","type":"uint256","internalType":"uint256"},{"name":"status","type":"uint8","internalType":"enum QJuryDispute.DisputeStatus"},{"name":"randomnessRequestId","type":"uint256","internalType":"uint256"},{"name":"randomnessFulfilled","type":"bool","internalType":"bool"}],"stateMutability":"view"},{"type":"function","name":"getAssignedJurors","inputs":[{"name":"disputeId","type":"uint256","internalType":"uint256"}],"outputs":[{"name":"","type":"address[]","internalType":"address[]"}],"stateMutability":"view"},{"type":"function","name":"getContractBalance","inputs":[],"outputs":[{"name":"","type":"uint256","internalType":"uint256"}],"stateMutability":"view"},{"type":"function","name":"getDispute","inputs":[{"name":"disputeId","type":"uint256","internalType":"uint256"}],"outputs":[{"name":"","type":"tuple","internalType":"struct QJuryDispute.Dispute","components":[{"name":"id","type":"uint256","internalType":"uint256"},{"name":"creator","type":"address","internalType":"address"},{"name":"description","type":"string","internalType":"string"},{"name":"fee","type":"uint256","internalType":"uint256"},{"name":"createdAt","type":"uint256","internalType":"uint256"},{"name":"status","type":"uint8","internalType":"enum QJuryDispute.DisputeStatus"},{"name":"assignedJurors","type":"address[]","internalType":"address[]"},{"name":"randomnessRequestId","type":"uint256","internalType":"uint256"},{"name":"randomnessFulfilled","type":"bool","internalType":"bool"}]}],"stateMutability":"view"},{"type":"function","name":"getTotalDisputes","inputs":[],"outputs":[{"name":"","type":"uint256","internalType":"uint256"}],"stateMutability":"view"},{"type":"function","name":"randomOracle","inputs":[],"outputs":[{"name":"","type":"address","internalType":"contract MockQRandomOracle"}],"stateMutability":"view"},{"type":"function","name":"registry","inputs":[],"outputs":[{"name":"","type":"address","internalType":"contract QJuryRegistry"}],"stateMutability":"view"},{"type":"function","name":"resolveDispute","inputs":[{"name":"disputeId","type":"uint256","internalType":"uint256"}],"outputs":[],"stateMutability":"nonpayable"},{"type":"function","name":"voteContract","inputs":[],"outputs":[{"name":"","type":"address","internalType":"contract QJuryVote"}],"stateMutability":"view"},{"type":"function","name":"withdrawFees","inputs":[{"name":"amount","type":"uint256","internalType":"uint256"}],"outputs":[],"stateMutability":"nonpayable"},{"type":"event","name":"DisputeCreated","inputs":[{"name":"disputeId","type":"uint256","indexed":true,"internalType":"uint256"},{"name":"creator","type":"address","indexed":true,"internalType":"address"},{"name":"description","type":"string","indexed":false,"internalType":"string"},{"name":"fee","type":"uint256","indexed":false,"internalType":"uint256"}],"anonymous":false},{"type":"event","name":"DisputeResolved","inputs":[{"name":"disputeId","type":"uint256","indexed":true,"internalType":"uint256"}],"anonymous":false},{"type":"event","name":"JurorsAssigned","inputs":[{"name":"disputeId","type":"uint256","indexed":true,"internalType":"uint256"},{"name":"assignedJurors","type":"address[]","indexed":false,"internalType":"address[]"}],"anonymous":false},{"type":"event","name":"RandomnessRequested","inputs":[{"name":"disputeId","type":"uint256","indexed":true,"internalType":"uint256"},{"name":"randomnessRequestId","type":"uint256","indexed":false,"internalType":"uint256"}],"anonymous":false}],"bytecode":{"object":"0x60e06040523480156200001157600080fd5b5060405162001c1538038062001c1583398101604081905262000034916200006f565b6001600160a01b0392831660805290821660a0521660c052620000b9565b80516001600160a01b03811681146200006a57600080fd5b919050565b6000806000606084860312156200008557600080fd5b620000908462000052565b9250620000a06020850162000052565b9150620000b06040850162000052565b90509250925092565b60805160a05160c051611afb6200011a600039600081816102610152818161094201528181610a2001528181610ec001526110da01526000818161034201528181610c100152610d700152600081816101ca0152610a9e0152611afb6000f3fe6080604052600436106100f35760003560e01c806397fbc2fb1161008a578063c51ad2a311610059578063c51ad2a3146102b8578063dc755e9d146102e8578063e3a96cbd14610303578063ee183c4a1461033057600080fd5b806397fbc2fb1461023a578063a224c1981461024f578063a47204b514610283578063c2b7b8681461029857600080fd5b80636f9fb98a116100c65780636f9fb98a146101a55780637b103999146101b85780637d36f4d3146102045780638101df6c1461021a57600080fd5b806335b05ec1146100f8578063564a565d1461012e5780635e318e07146101625780636817599614610184575b600080fd5b34801561010457600080fd5b50610118610113366004611462565b610364565b60405161012591906114bf565b60405180910390f35b34801561013a57600080fd5b5061014e610149366004611462565b6103d1565b604051610125989796959493929190611550565b34801561016e57600080fd5b5061018261017d366004611462565b6104ab565b005b6101976101923660046115b2565b610585565b604051908152602001610125565b3480156101b157600080fd5b5047610197565b3480156101c457600080fd5b506101ec7f000000000000000000000000000000000000000000000000000000000000000081565b6040516001600160a01b039091168152602001610125565b34801561021057600080fd5b5061019760015481565b34801561022657600080fd5b50610182610235366004611462565b61080c565b34801561024657600080fd5b50600154610197565b34801561025b57600080fd5b506101ec7f000000000000000000000000000000000000000000000000000000000000000081565b34801561028f57600080fd5b50610197600a81565b3480156102a457600080fd5b506101826102b3366004611462565b610c91565b3480156102c457600080fd5b506102d86102d3366004611462565b610e74565b6040519015158152602001610125565b3480156102f457600080fd5b50610197662386f26fc1000081565b34801561030f57600080fd5b5061032361031e366004611462565b610f3a565b6040516101259190611624565b34801561033c57600080fd5b506101ec7f000000000000000000000000000000000000000000000000000000000000000081565b600081815260208181526040918290206006018054835181840281018401909452808452606093928301828280156103c557602002820191906000526020600020905b81546001600160a01b031681526001909101906020018083116103a7575b50505050509050919050565b60006020819052908152604090208054600182015460028301805492936001600160a01b0390921692610403906116ce565b80601f016020809104026020016040519081016040528092919081815260200182805461042f906116ce565b801561047c5780601f106104515761010080835404028352916020019161047c565b820191906000526020600020905b81548152906001019060200180831161045f57829003601f168201915b50505060038401546004850154600586015460078701546008909701549596929591945060ff90811693501688565b478111156104f75760405162461bcd60e51b8152602060048201526014602482015273496e73756666696369656e742062616c616e636560601b60448201526064015b60405180910390fd5b604051600090339083908381818185875af1925050503d8060008114610539576040519150601f19603f3d011682016040523d82523d6000602084013e61053e565b606091505b50509050806105815760405162461bcd60e51b815260206004820152600f60248201526e151c985b9cd9995c8819985a5b1959608a1b60448201526064016104ee565b5050565b6000662386f26fc100003410156105de5760405162461bcd60e51b815260206004820152601860248201527f496e73756666696369656e74206469737075746520666565000000000000000060448201526064016104ee565b8161062b5760405162461bcd60e51b815260206004820152601b60248201527f4465736372697074696f6e2063616e6e6f7420626520656d707479000000000060448201526064016104ee565b60016000815461063a9061171e565b9190508190559050604051806101200160405280828152602001336001600160a01b0316815260200184848080601f0160208091040260200160405190810160405280939291908181526020018383808284376000920182905250938552505034602084015250426040830152606090910190815260200160006040519080825280602002602001820160405280156106dd578160200160208202803683370190505b5081526000602080830182905260409283018290528482528181529082902083518155908301516001820180546001600160a01b0319166001600160a01b03909216919091179055908201516002820190610738908261179c565b50606082015181600301556080820151816004015560a08201518160050160006101000a81548160ff0219169083600381111561077757610777611518565b021790555060c08201518051610797916006840191602090910190611383565b5060e08201516007820155610100909101516008909101805460ff1916911515919091179055604051339082907f339d07165413a188c3ea51070102fc4cef16ba47d198db63ca43df7d6448cbcd906107f59087908790349061185c565b60405180910390a3610806816110d6565b92915050565b6000818152602081905260408120548291036108635760405162461bcd60e51b8152602060048201526016602482015275111a5cdc1d5d1948191bd95cc81b9bdd08195e1a5cdd60521b60448201526064016104ee565b600082815260208190526040812090600582015460ff16600381111561088b5761088b611518565b146108d15760405162461bcd60e51b8152602060048201526016602482015275496e76616c696420646973707574652073746174757360501b60448201526064016104ee565b600881015460ff16156109265760405162461bcd60e51b815260206004820152601760248201527f4a75726f727320616c72656164792061737369676e656400000000000000000060448201526064016104ee565b600781015460405163ad44777b60e01b815260048101919091527f00000000000000000000000000000000000000000000000000000000000000006001600160a01b03169063ad44777b90602401602060405180830381865afa158015610991573d6000803e3d6000fd5b505050506040513d601f19601f820116820180604052508101906109b591906118aa565b610a015760405162461bcd60e51b815260206004820152601860248201527f52616e646f6d6e657373206e6f742066756c66696c6c6564000000000000000060448201526064016104ee565b60078101546040516325e41da160e01b81526000916001600160a01b037f000000000000000000000000000000000000000000000000000000000000000016916325e41da191610a579160040190815260200190565b602060405180830381865afa158015610a74573d6000803e3d6000fd5b505050506040513d601f19601f82011682018060405250810190610a9891906118c5565b905060007f00000000000000000000000000000000000000000000000000000000000000006001600160a01b0316633a22db586040518163ffffffff1660e01b8152600401600060405180830381865afa158015610afa573d6000803e3d6000fd5b505050506040513d6000823e601f3d908101601f19168201604052610b229190810190611997565b9050600a81511015610b765760405162461bcd60e51b815260206004820152601c60248201527f496e73756666696369656e7420656c696769626c65206a75726f72730000000060448201526064016104ee565b6000610b8282846111ab565b8051909150610b9a9060068601906020840190611383565b506005840180546001919060ff19168280021790555060088401805460ff1916600117905560405186907ff083f0aa71f20298d1c44ffb7a3ecf49b9dcdaa51dcf4a0b519a39167bcb1c8a90610bf19084906114bf565b60405180910390a26040516301987df360e21b81526001600160a01b037f00000000000000000000000000000000000000000000000000000000000000001690630661f7cc90610c4790899085906004016119d4565b600060405180830381600087803b158015610c6157600080fd5b505af1158015610c75573d6000803e3d6000fd5b50505050600593909301805460ff191660021790555050505050565b600081815260208190526040812054829103610ce85760405162461bcd60e51b8152602060048201526016602482015275111a5cdc1d5d1948191bd95cc81b9bdd08195e1a5cdd60521b60448201526064016104ee565b60008281526020819052604090206002600582015460ff166003811115610d1157610d11611518565b14610d575760405162461bcd60e51b8152602060048201526016602482015275496e76616c696420646973707574652073746174757360501b60448201526064016104ee565b60405163c1f9fb8760e01b8152600481018490526000907f00000000000000000000000000000000000000000000000000000000000000006001600160a01b03169063c1f9fb8790602401600060405180830381865afa158015610dbf573d6000803e3d6000fd5b505050506040513d6000823e601f3d908101601f19168201604052610de791908101906119ed565b505050509250505080610e345760405162461bcd60e51b8152602060048201526015602482015274159bdd1a5b99c81b9bdd081e595d0818db1bdcd959605a1b60448201526064016104ee565b60058201805460ff1916600317905560405184907f57cce005d496355471bb5269f1dea3d6c81b6ac14c1d74ba28aefb022357013b90600090a250505050565b600081815260208190526040812081600582015460ff166003811115610e9c57610e9c611518565b148015610f335750600781015460405163ad44777b60e01b815260048101919091527f00000000000000000000000000000000000000000000000000000000000000006001600160a01b03169063ad44777b90602401602060405180830381865afa158015610f0f573d6000803e3d6000fd5b505050506040513d601f19601f82011682018060405250810190610f3391906118aa565b9392505050565b610f426113e8565b600082815260208181526040918290208251610120810184528154815260018201546001600160a01b0316928101929092526002810180549293919291840191610f8b906116ce565b80601f0160208091040260200160405190810160405280929190818152602001828054610fb7906116ce565b80156110045780601f10610fd957610100808354040283529160200191611004565b820191906000526020600020905b815481529060010190602001808311610fe757829003601f168201915b5050509183525050600382810154602083015260048301546040830152600583015460609092019160ff169081111561103f5761103f611518565b600381111561105057611050611518565b8152602001600682018054806020026020016040519081016040528092919081815260200182805480156110ad57602002820191906000526020600020905b81546001600160a01b0316815260019091019060200180831161108f575b50505091835250506007820154602082015260089091015460ff16151560409091015292915050565b60007f00000000000000000000000000000000000000000000000000000000000000006001600160a01b031663f8413b076040518163ffffffff1660e01b81526004016020604051808303816000875af1158015611138573d6000803e3d6000fd5b505050506040513d601f19601f8201168201806040525081019061115c91906118c5565b60008381526020818152604091829020600701839055905182815291925083917f3d94fecedaa4f90b8bd459797adb95f5bb11426025c5541390d9ccc1ad1b60a1910160405180910390a25050565b815160408051600a808252610160820190925260609291602082016101408036833701905050915060008167ffffffffffffffff8111156111ee576111ee611737565b604051908082528060200260200182016040528015611217578160200160208202803683370190505b50905060005b8281101561127b5785818151811061123757611237611a7a565b602002602001015182828151811061125157611251611a7a565b6001600160a01b0390921660209283029190910190910152806112738161171e565b91505061121d565b508360005b600a8110156113795760006112958286611a90565b905060006112a38285611aa3565b90508481815181106112b7576112b7611a7a565b60200260200101518784815181106112d1576112d1611a7a565b6001600160a01b0390921660209283029190910190910152846112f5600184611a90565b8151811061130557611305611a7a565b602002602001015185828151811061131f5761131f611a7a565b6001600160a01b03929092166020928302919091018201526040805191820186905281018490526060016040516020818303038152906040528051906020012060001c9350505080806113719061171e565b915050611280565b5050505092915050565b8280548282559060005260206000209081019282156113d8579160200282015b828111156113d857825182546001600160a01b0319166001600160a01b039091161782556020909201916001909101906113a3565b506113e492915061144d565b5090565b6040518061012001604052806000815260200160006001600160a01b031681526020016060815260200160008152602001600081526020016000600381111561143357611433611518565b815260606020820181905260006040830181905291015290565b5b808211156113e4576000815560010161144e565b60006020828403121561147457600080fd5b5035919050565b600081518084526020808501945080840160005b838110156114b45781516001600160a01b03168752958201959082019060010161148f565b509495945050505050565b602081526000610f33602083018461147b565b6000815180845260005b818110156114f8576020818501810151868301820152016114dc565b506000602082860101526020601f19601f83011685010191505092915050565b634e487b7160e01b600052602160045260246000fd5b6004811061154c57634e487b7160e01b600052602160045260246000fd5b9052565b8881526001600160a01b03881660208201526101006040820181905260009061157b8382018a6114d2565b91505086606083015285608083015261159760a083018661152e565b8360c083015282151560e08301529998505050505050505050565b600080602083850312156115c557600080fd5b823567ffffffffffffffff808211156115dd57600080fd5b818501915085601f8301126115f157600080fd5b81358181111561160057600080fd5b86602082850101111561161257600080fd5b60209290920196919550909350505050565b60208152815160208201526000602083015161164b60408401826001600160a01b03169052565b5060408301516101208060608501526116686101408501836114d2565b915060608501516080850152608085015160a085015260a085015161169060c086018261152e565b5060c0850151848303601f190160e08601526116ac838261147b565b60e0870151610100878101919091529096015115159190940152509192915050565b600181811c908216806116e257607f821691505b60208210810361170257634e487b7160e01b600052602260045260246000fd5b50919050565b634e487b7160e01b600052601160045260246000fd5b60006001820161173057611730611708565b5060010190565b634e487b7160e01b600052604160045260246000fd5b601f82111561179757600081815260208120601f850160051c810160208610156117745750805b601f850160051c820191505b8181101561179357828155600101611780565b5050505b505050565b815167ffffffffffffffff8111156117b6576117b6611737565b6117ca816117c484546116ce565b8461174d565b602080601f8311600181146117ff57600084156117e75750858301515b600019600386901b1c1916600185901b178555611793565b600085815260208120601f198616915b8281101561182e5788860151825594840194600190910190840161180f565b508582101561184c5787850151600019600388901b60f8161c191681555b5050505050600190811b01905550565b604081528260408201528284606083013760006060848301015260006060601f19601f8601168301019050826020830152949350505050565b805180151581146118a557600080fd5b919050565b6000602082840312156118bc57600080fd5b610f3382611895565b6000602082840312156118d757600080fd5b5051919050565b80516001600160a01b03811681146118a557600080fd5b600082601f83011261190657600080fd5b8151602067ffffffffffffffff8083111561192357611923611737565b8260051b604051601f19603f8301168101818110848211171561194857611948611737565b60405293845285810183019383810192508785111561196657600080fd5b83870191505b8482101561198c5761197d826118de565b8352918301919083019061196c565b979650505050505050565b6000602082840312156119a957600080fd5b815167ffffffffffffffff8111156119c057600080fd5b6119cc848285016118f5565b949350505050565b8281526040602082015260006119cc604083018461147b565b600080600080600080600060e0888a031215611a0857600080fd5b875167ffffffffffffffff811115611a1f57600080fd5b611a2b8a828b016118f5565b97505060208801519550611a4160408901611895565b9450606088015160038110611a5557600080fd5b809450506080880151925060a0880151915060c0880151905092959891949750929550565b634e487b7160e01b600052603260045260246000fd5b8181038181111561080657610806611708565b600082611ac057634e487b7160e01b600052601260045260246000fd5b50069056fea26469706673582212207130734d6f25a04ac2816607533c7f764c90aadfb7ec49d7451b3160e4c206ad64736f6c63430008130033","linkReferences":{}},"methodIdentifiers":{"DISPUTE_FEE()":"dc755e9d","JURORS_PER_DISPUTE()":"a47204b5","assignJurors(uint256)":"8101df6c","canAssignJurors(uint256)":"c51ad2a3","createDispute(string)":"68175996","disputeCounter()":"7d36f4d3","disputes(uint256)":"564a565d","getAssignedJurors(uint256)":"35b05ec1","getContractBalance()":"6f9fb98a","getDispute(uint256)":"e3a96cbd","getTotalDisputes()":"97fbc2fb","randomOracle()":"a224c198","registry()":"7b103999","resolveDispute(uint256)":"c2b7b868","voteContract()":"ee183c4a","withdrawFees(uint256)":"5e318e07"},"id":1}