{"abi":[{"type":"constructor","inputs":[{"name":"_registry","type":"address","internalType":"address"},{"name":"_voteContract","type":"address","internalType":"address"},{"name":"_randomOracle","type":"address","internalType":"address"}],"stateMutability":"nonpayable"},{"type":"function","name":"DISPUTE_FEE","inputs":[],"outputs":[{"name":"","type":"uint256","internalType":"uint256"}],"stateMutability":"view"},{"type":"function","name":"JURORS_PER_DISPUTE","inputs":[],"outputs":[{"name":"","type":"uint256","internalType":"uint256"}],"stateMutability":"view"},{"type":"function","name":"assignJurors","inputs":[{"name":"disputeId","type":"uint256","internalType":"uint256"}],"outputs":[],"stateMutability":"nonpayable"},{"type":"function","name":"canAssignJurors","inputs":[{"name":"disputeId","type":"uint256","internalType":"uint256"}],"outputs":[{"name":"","type":"bool","internalType":"bool"}],"stateMutability":"view"},{"type":"function","name":"createDispute","inputs":[{"name":"description","type":"string","internalType":"string"}],"outputs":[{"name":"disputeId","type":"uint256","internalType":"uint256"}],"stateMutability":"payable"},{"type":"function","name":"disputeCounter","inputs":[],"outputs":[{"name":"","type":"uint256","internalType":"uint256"}],"stateMutability":"view"},{"type":"function","name":"disputes","inputs":[{"name":"","type":"uint256","internalType":"uint256"}],"outputs":[{"name":"id","type":"uint256","internalType":"uint256"},{"name":"creator","type":"address","internalType":"address"},{"name":"description","type":"string","internalType":"string"},{"name":"fee","type":"uint256","internalType":"uint256"},{"name":"createdAt","type":"uint256","internalType":"uint256"},{"name":"status","type":"uint8","internalType":"enum QJuryDispute.DisputeStatus"},{"name":"randomnessRequestId","type":"uint256","internalType":"uint256"},{"name":"randomnessFulfilled","type":"bool","internalType":"bool"},{"name":"metadata","type":"uint256","internalType":"uint256"}],"stateMutability":"view"},{"type":"function","name":"getAssignedJurors","inputs":[{"name":"disputeId","type":"uint256","internalType":"uint256"}],"outputs":[{"name":"","type":"address[]","internalType":"address[]"}],"stateMutability":"view"},{"type":"function","name":"getContractBalance","inputs":[],"outputs":[{"name":"","type":"uint256","internalType":"uint256"}],"stateMutability":"view"},{"type":"function","name":"getDispute","inputs":[{"name":"disputeId","type":"uint256","internalType":"uint256"}],"outputs":[{"name":"","type":"tuple","internalType":"struct QJuryDispute.Dispute","components":[{"name":"id","type":"uint256","internalType":"uint256"},{"name":"creator","type":"address","internalType":"address"},{"name":"description","type":"string","internalType":"string"},{"name":"fee","type":"uint256","internalType":"uint256"},{"name":"createdAt","type":"uint256","internalType":"uint256"},{"name":"status","type":"uint8","internalType":"enum QJuryDispute.DisputeStatus"},{"name":"assignedJurors","type":"address[]","internalType":"address[]"},{"name":"randomnessRequestId","type":"uint256","internalType":"uint256"},{"name":"randomnessFulfilled","type":"bool","internalType":"bool"},{"name":"metadata","type":"uint256","internalType":"uint256"}]}],"stateMutability":"view"},{"type":"function","name":"getDisputeWithDetails","inputs":[{"name":"disputeId","type":"uint256","internalType":"uint256"}],"outputs":[{"name":"dispute","type":"tuple","internalType":"struct QJuryDispute.Dispute","components":[{"name":"id","type":"uint256","internalType":"uint256"},{"name":"creator","type":"address","internalType":"address"},{"name":"description","type":"string","internalType":"string"},{"name":"fee","type":"uint256","internalType":"uint256"},{"name":"createdAt","type":"uint256","internalType":"uint256"},{"name":"status","type":"uint8","internalType":"enum QJuryDispute.DisputeStatus"},{"name":"assignedJurors","type":"address[]","internalType":"address[]"},{"name":"randomnessRequestId","type":"uint256","internalType":"uint256"},{"name":"randomnessFulfilled","type":"bool","internalType":"bool"},{"name":"metadata","type":"uint256","internalType":"uint256"}]},{"name":"canAssignJurorsbool","type":"bool","internalType":"bool"},{"name":"eligibleJurorCount","type":"uint256","internalType":"uint256"}],"stateMutability":"view"},{"type":"function","name":"getDisputesByCreator","inputs":[{"name":"creator","type":"address","internalType":"address"}],"outputs":[{"name":"","type":"uint256[]","internalType":"uint256[]"}],"stateMutability":"view"},{"type":"function","name":"getDisputesByStatus","inputs":[{"name":"status","type":"uint8","internalType":"enum QJuryDispute.DisputeStatus"}],"outputs":[{"name":"","type":"uint256[]","internalType":"uint256[]"}],"stateMutability":"view"},{"type":"function","name":"getTimeUntilExpiry","inputs":[{"name":"disputeId","type":"uint256","internalType":"uint256"}],"outputs":[{"name":"timeUntilExpiry","type":"uint256","internalType":"uint256"}],"stateMutability":"view"},{"type":"function","name":"getTotalDisputes","inputs":[],"outputs":[{"name":"","type":"uint256","internalType":"uint256"}],"stateMutability":"view"},{"type":"function","name":"randomOracle","inputs":[],"outputs":[{"name":"","type":"address","internalType":"contract QuantumRandomOracle"}],"stateMutability":"view"},{"type":"function","name":"registry","inputs":[],"outputs":[{"name":"","type":"address","internalType":"contract QJuryRegistry"}],"stateMutability":"view"},{"type":"function","name":"resolveDispute","inputs":[{"name":"disputeId","type":"uint256","internalType":"uint256"}],"outputs":[],"stateMutability":"nonpayable"},{"type":"function","name":"updateDisputeMetadata","inputs":[{"name":"disputeId","type":"uint256","internalType":"uint256"},{"name":"metadata","type":"uint256","internalType":"uint256"}],"outputs":[],"stateMutability":"nonpayable"},{"type":"function","name":"voteContract","inputs":[],"outputs":[{"name":"","type":"address","internalType":"contract QJuryVote"}],"stateMutability":"view"},{"type":"function","name":"withdrawFees","inputs":[{"name":"amount","type":"uint256","internalType":"uint256"}],"outputs":[],"stateMutability":"nonpayable"},{"type":"event","name":"DisputeCreated","inputs":[{"name":"disputeId","type":"uint256","indexed":true,"internalType":"uint256"},{"name":"creator","type":"address","indexed":true,"internalType":"address"},{"name":"description","type":"string","indexed":false,"internalType":"string"},{"name":"fee","type":"uint256","indexed":false,"internalType":"uint256"},{"name":"timestamp","type":"uint256","indexed":false,"internalType":"uint256"}],"anonymous":false},{"type":"event","name":"DisputeMetadataUpdated","inputs":[{"name":"disputeId","type":"uint256","indexed":true,"internalType":"uint256"},{"name":"metadata","type":"uint256","indexed":false,"internalType":"uint256"}],"anonymous":false},{"type":"event","name":"DisputeResolved","inputs":[{"name":"disputeId","type":"uint256","indexed":true,"internalType":"uint256"},{"name":"timestamp","type":"uint256","indexed":false,"internalType":"uint256"}],"anonymous":false},{"type":"event","name":"JurorsAssigned","inputs":[{"name":"disputeId","type":"uint256","indexed":true,"internalType":"uint256"},{"name":"assignedJurors","type":"address[]","indexed":false,"internalType":"address[]"},{"name":"timestamp","type":"uint256","indexed":false,"internalType":"uint256"}],"anonymous":false},{"type":"event","name":"RandomnessRequested","inputs":[{"name":"disputeId","type":"uint256","indexed":true,"internalType":"uint256"},{"name":"randomnessRequestId","type":"uint256","indexed":false,"internalType":"uint256"},{"name":"timestamp","type":"uint256","indexed":false,"internalType":"uint256"}],"anonymous":false}],"bytecode":{"object":"0x60e06040523480156200001157600080fd5b50604051620026663803806200266683398101604081905262000034916200006f565b6001600160a01b0392831660805290821660a0521660c052620000b9565b80516001600160a01b03811681146200006a57600080fd5b919050565b6000806000606084860312156200008557600080fd5b620000908462000052565b9250620000a06020850162000052565b9150620000b06040850162000052565b90509250925092565b60805160a05160c0516125376200012f600039600081816102e8015281816108570152818161090401528181610e3a01528181610f18015281816115f701526119720152600081816104160152818161110a01526114a6015260008181610251015281816106cc0152610f9601526125376000f3fe60806040526004361061012a5760003560e01c806397fbc2fb116100ab578063c2b7b8681161006f578063c2b7b8681461036c578063c51ad2a31461038c578063dc755e9d146103bc578063e3a96cbd146103d7578063ee183c4a14610404578063ff0be6311461043857600080fd5b806397fbc2fb146102c1578063a224c198146102d6578063a47204b51461030a578063af83d4881461031f578063b686375b1461033f57600080fd5b806368175996116100f257806368175996146102195780636f9fb98a1461022c5780637b1039991461023f5780637d36f4d31461028b5780638101df6c146102a157600080fd5b806335b05ec11461012f578063409b1dad14610165578063564a565d146101945780635b56d861146101c95780635e318e07146101f7575b600080fd5b34801561013b57600080fd5b5061014f61014a366004611d0c565b610458565b60405161015c9190611d69565b60405180910390f35b34801561017157600080fd5b50610185610180366004611d0c565b6104c5565b60405161015c93929190611ead565b3480156101a057600080fd5b506101b46101af366004611d0c565b610759565b60405161015c99989796959493929190611ed2565b3480156101d557600080fd5b506101e96101e4366004611d0c565b61083a565b60405190815260200161015c565b34801561020357600080fd5b50610217610212366004611d0c565b6109b7565b005b6101e9610227366004611f3a565b610a91565b34801561023857600080fd5b50476101e9565b34801561024b57600080fd5b506102737f000000000000000000000000000000000000000000000000000000000000000081565b6040516001600160a01b03909116815260200161015c565b34801561029757600080fd5b506101e960015481565b3480156102ad57600080fd5b506102176102bc366004611d0c565b610d2d565b3480156102cd57600080fd5b506001546101e9565b3480156102e257600080fd5b506102737f000000000000000000000000000000000000000000000000000000000000000081565b34801561031657600080fd5b506101e9600a81565b34801561032b57600080fd5b5061021761033a366004611fac565b61118b565b34801561034b57600080fd5b5061035f61035a366004611fce565b611277565b60405161015c9190611fef565b34801561037857600080fd5b50610217610387366004611d0c565b6113f0565b34801561039857600080fd5b506103ac6103a7366004611d0c565b6115ab565b604051901515815260200161015c565b3480156103c857600080fd5b506101e9662386f26fc1000081565b3480156103e357600080fd5b506103f76103f2366004611d0c565b611671565b60405161015c9190612033565b34801561041057600080fd5b506102737f000000000000000000000000000000000000000000000000000000000000000081565b34801561044457600080fd5b5061035f61045336600461205e565b611817565b600081815260208181526040918290206006018054835181840281018401909452808452606093928301828280156104b957602002820191906000526020600020905b81546001600160a01b0316815260019091019060200180831161049b575b50505050509050919050565b6104cd611c23565b6000828152602081815260408083208151610140810183528154815260018201546001600160a01b031693810193909352600281018054859493840191906105149061207b565b80601f01602080910402602001604051908101604052809291908181526020018280546105409061207b565b801561058d5780601f106105625761010080835404028352916020019161058d565b820191906000526020600020905b81548152906001019060200180831161057057829003601f168201915b5050509183525050600382810154602083015260048301546040830152600583015460609092019160ff16908111156105c8576105c8611dc2565b60038111156105d9576105d9611dc2565b81526020016006820180548060200260200160405190810160405280929190818152602001828054801561063657602002820191906000526020600020905b81546001600160a01b03168152600190910190602001808311610618575b505050918352505060078201546020820152600882015460ff1615156040808301919091526009909201546060909101525163c51ad2a360e01b815260048101869052909350309063c51ad2a390602401602060405180830381865afa1580156106a4573d6000803e3d6000fd5b505050506040513d601f19601f820116820180604052508101906106c891906120c4565b91507f00000000000000000000000000000000000000000000000000000000000000006001600160a01b0316633a22db586040518163ffffffff1660e01b8152600401600060405180830381865afa158015610728573d6000803e3d6000fd5b505050506040513d6000823e601f3d908101601f1916820160405261075091908101906121a2565b51929491935050565b60006020819052908152604090208054600182015460028301805492936001600160a01b039092169261078b9061207b565b80601f01602080910402602001604051908101604052809291908181526020018280546107b79061207b565b80156108045780601f106107d957610100808354040283529160200191610804565b820191906000526020600020905b8154815290600101906020018083116107e757829003601f168201915b505050600384015460048501546005860154600787015460088801546009909801549697939692955060ff918216945092169089565b60008181526020819052604081206007810154156109b1576000807f00000000000000000000000000000000000000000000000000000000000000006001600160a01b031663f34d4c6384600701546040518263ffffffff1660e01b81526004016108a791815260200190565b606060405180830381865afa1580156108c4573d6000803e3d6000fd5b505050506040513d601f19601f820116820180604052508101906108e891906121df565b9250509150811580156108fb5750600081115b156109ae5760007f00000000000000000000000000000000000000000000000000000000000000006001600160a01b03166313323ad46040518163ffffffff1660e01b8152600401602060405180830381865afa158015610960573d6000803e3d6000fd5b505050506040513d601f19601f820116820180604052508101906109849190612214565b61098e9083612243565b9050804210156109a7576109a24282612256565b6109aa565b60005b9450505b50505b50919050565b47811115610a035760405162461bcd60e51b8152602060048201526014602482015273496e73756666696369656e742062616c616e636560601b60448201526064015b60405180910390fd5b604051600090339083908381818185875af1925050503d8060008114610a45576040519150601f19603f3d011682016040523d82523d6000602084013e610a4a565b606091505b5050905080610a8d5760405162461bcd60e51b815260206004820152600f60248201526e151c985b9cd9995c8819985a5b1959608a1b60448201526064016109fa565b5050565b6000662386f26fc10000341015610aea5760405162461bcd60e51b815260206004820152601860248201527f496e73756666696369656e74206469737075746520666565000000000000000060448201526064016109fa565b81610b375760405162461bcd60e51b815260206004820152601b60248201527f4465736372697074696f6e2063616e6e6f7420626520656d707479000000000060448201526064016109fa565b600160008154610b4690612269565b9190508190559050604051806101400160405280828152602001336001600160a01b0316815260200184848080601f016020809104026020016040519081016040528093929190818152602001838380828437600092018290525093855250503460208401525042604083015260609091019081526020016000604051908082528060200260200182016040528015610be9578160200160208202803683370190505b50815260006020808301829052604080840183905260609093018290528482528181529082902083518155908301516001820180546001600160a01b0319166001600160a01b03909216919091179055908201516002820190610c4c90826122d1565b50606082015181600301556080820151816004015560a08201518160050160006101000a81548160ff02191690836003811115610c8b57610c8b611dc2565b021790555060c08201518051610cab916006840191602090910190611c92565b5060e0820151600782015561010082015160088201805460ff191691151591909117905561012090910151600990910155604051339082907f17ddb3d3759582e0b0505dca30767aed5f00db77b0be64f150e706349efffe8390610d16908790879034904290612391565b60405180910390a3610d278161196e565b92915050565b600081815260208190526040812054829103610d5b5760405162461bcd60e51b81526004016109fa906123d1565b600082815260208190526040812090600582015460ff166003811115610d8357610d83611dc2565b14610dc95760405162461bcd60e51b8152602060048201526016602482015275496e76616c696420646973707574652073746174757360501b60448201526064016109fa565b600881015460ff1615610e1e5760405162461bcd60e51b815260206004820152601760248201527f4a75726f727320616c72656164792061737369676e656400000000000000000060448201526064016109fa565b600781015460405163ad44777b60e01b815260048101919091527f00000000000000000000000000000000000000000000000000000000000000006001600160a01b03169063ad44777b90602401602060405180830381865afa158015610e89573d6000803e3d6000fd5b505050506040513d601f19601f82011682018060405250810190610ead91906120c4565b610ef95760405162461bcd60e51b815260206004820152601860248201527f52616e646f6d6e657373206e6f742066756c66696c6c6564000000000000000060448201526064016109fa565b60078101546040516325e41da160e01b81526000916001600160a01b037f000000000000000000000000000000000000000000000000000000000000000016916325e41da191610f4f9160040190815260200190565b602060405180830381865afa158015610f6c573d6000803e3d6000fd5b505050506040513d601f19601f82011682018060405250810190610f909190612214565b905060007f00000000000000000000000000000000000000000000000000000000000000006001600160a01b0316633a22db586040518163ffffffff1660e01b8152600401600060405180830381865afa158015610ff2573d6000803e3d6000fd5b505050506040513d6000823e601f3d908101601f1916820160405261101a91908101906121a2565b9050600a8151101561106e5760405162461bcd60e51b815260206004820152601c60248201527f496e73756666696369656e7420656c696769626c65206a75726f72730000000060448201526064016109fa565b600061107a8284611a4b565b80519091506110929060068601906020840190611c92565b506005840180546001919060ff19168280021790555060088401805460ff1916600117905560405186907fc97fe773b2934ab3fd29e09fdb4e6b8bd7f9c3cf2f2960d729c92c6a63a8d52d906110eb9084904290612401565b60405180910390a26040516301987df360e21b81526001600160a01b037f00000000000000000000000000000000000000000000000000000000000000001690630661f7cc906111419089908590600401612423565b600060405180830381600087803b15801561115b57600080fd5b505af115801561116f573d6000803e3d6000fd5b50505050600593909301805460ff191660021790555050505050565b6000828152602081905260408120548391036111b95760405162461bcd60e51b81526004016109fa906123d1565b600083815260208190526040902060018101546001600160a01b031633146112345760405162461bcd60e51b815260206004820152602860248201527f4f6e6c7920646973707574652063726561746f722063616e20757064617465206044820152676d6574616461746160c01b60648201526084016109fa565b6009810183905560405183815284907fc55d429eaa89b6bc7e791b0796b266b14e5932bfdc15b0654ec90579abb48282906020015b60405180910390a250505050565b6060600060015467ffffffffffffffff811115611296576112966120df565b6040519080825280602002602001820160405280156112bf578160200160208202803683370190505b509050600060015b600154811161134b578460038111156112e2576112e2611dc2565b60008281526020819052604090206005015460ff16600381111561130857611308611dc2565b0361133957808383815181106113205761132061243c565b60209081029190910101528161133581612269565b9250505b8061134381612269565b9150506112c7565b5060008167ffffffffffffffff811115611367576113676120df565b604051908082528060200260200182016040528015611390578160200160208202803683370190505b50905060005b828110156113e7578381815181106113b0576113b061243c565b60200260200101518282815181106113ca576113ca61243c565b6020908102919091010152806113df81612269565b915050611396565b50949350505050565b60008181526020819052604081205482910361141e5760405162461bcd60e51b81526004016109fa906123d1565b60008281526020819052604090206002600582015460ff16600381111561144757611447611dc2565b1461148d5760405162461bcd60e51b8152602060048201526016602482015275496e76616c696420646973707574652073746174757360501b60448201526064016109fa565b60405163c1f9fb8760e01b8152600481018490526000907f00000000000000000000000000000000000000000000000000000000000000006001600160a01b03169063c1f9fb8790602401600060405180830381865afa1580156114f5573d6000803e3d6000fd5b505050506040513d6000823e601f3d908101601f1916820160405261151d9190810190612452565b50505050925050508061156a5760405162461bcd60e51b8152602060048201526015602482015274159bdd1a5b99c81b9bdd081e595d0818db1bdcd959605a1b60448201526064016109fa565b60058201805460ff1916600317905560405142815284907fb4121f1f91a696a3fc75f6d151f3c9865abffa0738bda595e71c381c02af2faa90602001611269565b600081815260208190526040812081600582015460ff1660038111156115d3576115d3611dc2565b14801561166a5750600781015460405163ad44777b60e01b815260048101919091527f00000000000000000000000000000000000000000000000000000000000000006001600160a01b03169063ad44777b90602401602060405180830381865afa158015611646573d6000803e3d6000fd5b505050506040513d601f19601f8201168201806040525081019061166a91906120c4565b9392505050565b611679611c23565b600082815260208181526040918290208251610140810184528154815260018201546001600160a01b03169281019290925260028101805492939192918401916116c29061207b565b80601f01602080910402602001604051908101604052809291908181526020018280546116ee9061207b565b801561173b5780601f106117105761010080835404028352916020019161173b565b820191906000526020600020905b81548152906001019060200180831161171e57829003601f168201915b5050509183525050600382810154602083015260048301546040830152600583015460609092019160ff169081111561177657611776611dc2565b600381111561178757611787611dc2565b8152602001600682018054806020026020016040519081016040528092919081815260200182805480156117e457602002820191906000526020600020905b81546001600160a01b031681526001909101906020018083116117c6575b505050918352505060078201546020820152600882015460ff161515604082015260099091015460609091015292915050565b6060600060015467ffffffffffffffff811115611836576118366120df565b60405190808252806020026020018201604052801561185f578160200160208202803683370190505b509050600060015b60015481116118d2576000818152602081905260409020600101546001600160a01b038087169116036118c057808383815181106118a7576118a761243c565b6020908102919091010152816118bc81612269565b9250505b806118ca81612269565b915050611867565b5060008167ffffffffffffffff8111156118ee576118ee6120df565b604051908082528060200260200182016040528015611917578160200160208202803683370190505b50905060005b828110156113e7578381815181106119375761193761243c565b60200260200101518282815181106119515761195161243c565b60209081029190910101528061196681612269565b91505061191d565b60007f00000000000000000000000000000000000000000000000000000000000000006001600160a01b031663f8413b076040518163ffffffff1660e01b81526004016020604051808303816000875af11580156119d0573d6000803e3d6000fd5b505050506040513d601f19601f820116820180604052508101906119f49190612214565b600083815260208181526040918290206007018390558151838152429181019190915291925083917f34e010a4ef37e7b53b3d02e76e84b745a250daa244a2768dabaf7c0c1947963e910160405180910390a25050565b815160408051600a808252610160820190925260609291602082016101408036833701905050915060008167ffffffffffffffff811115611a8e57611a8e6120df565b604051908082528060200260200182016040528015611ab7578160200160208202803683370190505b50905060005b82811015611b1b57858181518110611ad757611ad761243c565b6020026020010151828281518110611af157611af161243c565b6001600160a01b039092166020928302919091019091015280611b1381612269565b915050611abd565b508360005b600a811015611c19576000611b358286612256565b90506000611b4382856124df565b9050848181518110611b5757611b5761243c565b6020026020010151878481518110611b7157611b7161243c565b6001600160a01b039092166020928302919091019091015284611b95600184612256565b81518110611ba557611ba561243c565b6020026020010151858281518110611bbf57611bbf61243c565b6001600160a01b03929092166020928302919091018201526040805191820186905281018490526060016040516020818303038152906040528051906020012060001c935050508080611c1190612269565b915050611b20565b5050505092915050565b6040518061014001604052806000815260200160006001600160a01b0316815260200160608152602001600081526020016000815260200160006003811115611c6e57611c6e611dc2565b81526020016060815260200160008152602001600015158152602001600081525090565b828054828255906000526020600020908101928215611ce7579160200282015b82811115611ce757825182546001600160a01b0319166001600160a01b03909116178255602090920191600190910190611cb2565b50611cf3929150611cf7565b5090565b5b80821115611cf35760008155600101611cf8565b600060208284031215611d1e57600080fd5b5035919050565b600081518084526020808501945080840160005b83811015611d5e5781516001600160a01b031687529582019590820190600101611d39565b509495945050505050565b60208152600061166a6020830184611d25565b6000815180845260005b81811015611da257602081850181015186830182015201611d86565b506000602082860101526020601f19601f83011685010191505092915050565b634e487b7160e01b600052602160045260246000fd5b60048110611df657634e487b7160e01b600052602160045260246000fd5b9052565b6000610140825184526020830151611e1d60208601826001600160a01b03169052565b506040830151816040860152611e3582860182611d7c565b915050606083015160608501526080830151608085015260a0830151611e5e60a0860182611dd8565b5060c083015184820360c0860152611e768282611d25565b91505060e083015160e085015261010080840151611e978287018215159052565b5050610120928301519390920192909252919050565b606081526000611ec06060830186611dfa565b93151560208301525060400152919050565b8981526001600160a01b038916602082015261012060408201819052600090611efd8382018b611d7c565b915050876060830152866080830152611f1960a0830187611dd8565b60c082019490945291151560e0830152610100909101529695505050505050565b60008060208385031215611f4d57600080fd5b823567ffffffffffffffff80821115611f6557600080fd5b818501915085601f830112611f7957600080fd5b813581811115611f8857600080fd5b866020828501011115611f9a57600080fd5b60209290920196919550909350505050565b60008060408385031215611fbf57600080fd5b50508035926020909101359150565b600060208284031215611fe057600080fd5b81356004811061166a57600080fd5b6020808252825182820181905260009190848201906040850190845b818110156120275783518352928401929184019160010161200b565b50909695505050505050565b60208152600061166a6020830184611dfa565b6001600160a01b038116811461205b57600080fd5b50565b60006020828403121561207057600080fd5b813561166a81612046565b600181811c9082168061208f57607f821691505b6020821081036109b157634e487b7160e01b600052602260045260246000fd5b805180151581146120bf57600080fd5b919050565b6000602082840312156120d657600080fd5b61166a826120af565b634e487b7160e01b600052604160045260246000fd5b80516120bf81612046565b600082601f83011261211157600080fd5b8151602067ffffffffffffffff8083111561212e5761212e6120df565b8260051b604051601f19603f83011681018181108482111715612153576121536120df565b60405293845285810183019383810192508785111561217157600080fd5b83870191505b8482101561219757612188826120f5565b83529183019190830190612177565b979650505050505050565b6000602082840312156121b457600080fd5b815167ffffffffffffffff8111156121cb57600080fd5b6121d784828501612100565b949350505050565b6000806000606084860312156121f457600080fd5b6121fd846120af565b925060208401519150604084015190509250925092565b60006020828403121561222657600080fd5b5051919050565b634e487b7160e01b600052601160045260246000fd5b80820180821115610d2757610d2761222d565b81810381811115610d2757610d2761222d565b60006001820161227b5761227b61222d565b5060010190565b601f8211156122cc57600081815260208120601f850160051c810160208610156122a95750805b601f850160051c820191505b818110156122c8578281556001016122b5565b5050505b505050565b815167ffffffffffffffff8111156122eb576122eb6120df565b6122ff816122f9845461207b565b84612282565b602080601f831160018114612334576000841561231c5750858301515b600019600386901b1c1916600185901b1785556122c8565b600085815260208120601f198616915b8281101561236357888601518255948401946001909101908401612344565b50858210156123815787850151600019600388901b60f8161c191681555b5050505050600190811b01905550565b606081528360608201528385608083013760006080858301015260006080601f19601f870116830101905083602083015282604083015295945050505050565b602080825260169082015275111a5cdc1d5d1948191bd95cc81b9bdd08195e1a5cdd60521b604082015260600190565b6040815260006124146040830185611d25565b90508260208301529392505050565b8281526040602082015260006121d76040830184611d25565b634e487b7160e01b600052603260045260246000fd5b600080600080600080600060e0888a03121561246d57600080fd5b875167ffffffffffffffff81111561248457600080fd5b6124908a828b01612100565b975050602088015195506124a6604089016120af565b94506060880151600381106124ba57600080fd5b809450506080880151925060a0880151915060c0880151905092959891949750929550565b6000826124fc57634e487b7160e01b600052601260045260246000fd5b50069056fea2646970667358221220cff5dccb8b9546375ef4ddc50a02fde70500284cf031d9b04a72bfce78d0485164736f6c63430008130033","linkReferences":{}},"methodIdentifiers":{"DISPUTE_FEE()":"dc755e9d","JURORS_PER_DISPUTE()":"a47204b5","assignJurors(uint256)":"8101df6c","canAssignJurors(uint256)":"c51ad2a3","createDispute(string)":"68175996","disputeCounter()":"7d36f4d3","disputes(uint256)":"564a565d","getAssignedJurors(uint256)":"35b05ec1","getContractBalance()":"6f9fb98a","getDispute(uint256)":"e3a96cbd","getDisputeWithDetails(uint256)":"409b1dad","getDisputesByCreator(address)":"ff0be631","getDisputesByStatus(uint8)":"b686375b","getTimeUntilExpiry(uint256)":"5b56d861","getTotalDisputes()":"97fbc2fb","randomOracle()":"a224c198","registry()":"7b103999","resolveDispute(uint256)":"c2b7b868","updateDisputeMetadata(uint256,uint256)":"af83d488","voteContract()":"ee183c4a","withdrawFees(uint256)":"5e318e07"},"id":1}