{"abi":[{"type":"constructor","inputs":[{"name":"_registry","type":"address","internalType":"address"},{"name":"_voteContract","type":"address","internalType":"address"},{"name":"_quantumOracle","type":"address","internalType":"address"}],"stateMutability":"nonpayable"},{"type":"function","name":"DISPUTE_FEE","inputs":[],"outputs":[{"name":"","type":"uint256","internalType":"uint256"}],"stateMutability":"view"},{"type":"function","name":"JURORS_PER_DISPUTE","inputs":[],"outputs":[{"name":"","type":"uint256","internalType":"uint256"}],"stateMutability":"view"},{"type":"function","name":"assignJurors","inputs":[{"name":"disputeId","type":"uint256","internalType":"uint256"}],"outputs":[],"stateMutability":"nonpayable"},{"type":"function","name":"canAssignJurors","inputs":[{"name":"disputeId","type":"uint256","internalType":"uint256"}],"outputs":[{"name":"","type":"bool","internalType":"bool"}],"stateMutability":"view"},{"type":"function","name":"createDispute","inputs":[{"name":"description","type":"string","internalType":"string"}],"outputs":[{"name":"disputeId","type":"uint256","internalType":"uint256"}],"stateMutability":"payable"},{"type":"function","name":"disputeCounter","inputs":[],"outputs":[{"name":"","type":"uint256","internalType":"uint256"}],"stateMutability":"view"},{"type":"function","name":"disputes","inputs":[{"name":"","type":"uint256","internalType":"uint256"}],"outputs":[{"name":"id","type":"uint256","internalType":"uint256"},{"name":"creator","type":"address","internalType":"address"},{"name":"description","type":"string","internalType":"string"},{"name":"fee","type":"uint256","internalType":"uint256"},{"name":"createdAt","type":"uint256","internalType":"uint256"},{"name":"status","type":"uint8","internalType":"enum QJuryDispute.DisputeStatus"},{"name":"randomnessRequestId","type":"uint256","internalType":"uint256"},{"name":"randomnessFulfilled","type":"bool","internalType":"bool"}],"stateMutability":"view"},{"type":"function","name":"getAssignedJurors","inputs":[{"name":"disputeId","type":"uint256","internalType":"uint256"}],"outputs":[{"name":"","type":"address[]","internalType":"address[]"}],"stateMutability":"view"},{"type":"function","name":"getContractBalance","inputs":[],"outputs":[{"name":"","type":"uint256","internalType":"uint256"}],"stateMutability":"view"},{"type":"function","name":"getDispute","inputs":[{"name":"disputeId","type":"uint256","internalType":"uint256"}],"outputs":[{"name":"","type":"tuple","internalType":"struct QJuryDispute.Dispute","components":[{"name":"id","type":"uint256","internalType":"uint256"},{"name":"creator","type":"address","internalType":"address"},{"name":"description","type":"string","internalType":"string"},{"name":"fee","type":"uint256","internalType":"uint256"},{"name":"createdAt","type":"uint256","internalType":"uint256"},{"name":"status","type":"uint8","internalType":"enum QJuryDispute.DisputeStatus"},{"name":"assignedJurors","type":"address[]","internalType":"address[]"},{"name":"randomnessRequestId","type":"uint256","internalType":"uint256"},{"name":"randomnessFulfilled","type":"bool","internalType":"bool"}]}],"stateMutability":"view"},{"type":"function","name":"getDisputeMetadata","inputs":[{"name":"disputeId","type":"uint256","internalType":"uint256"}],"outputs":[{"name":"metadata","type":"string","internalType":"string"}],"stateMutability":"view"},{"type":"function","name":"getDisputeSummary","inputs":[{"name":"disputeId","type":"uint256","internalType":"uint256"}],"outputs":[{"name":"id","type":"uint256","internalType":"uint256"},{"name":"creator","type":"address","internalType":"address"},{"name":"status","type":"uint8","internalType":"enum QJuryDispute.DisputeStatus"},{"name":"jurorsAssigned","type":"uint256","internalType":"uint256"},{"name":"randomnessFulfilled","type":"bool","internalType":"bool"},{"name":"createdAt","type":"uint256","internalType":"uint256"}],"stateMutability":"view"},{"type":"function","name":"getDisputesByCreator","inputs":[{"name":"creator","type":"address","internalType":"address"}],"outputs":[{"name":"disputeIds","type":"uint256[]","internalType":"uint256[]"}],"stateMutability":"view"},{"type":"function","name":"getQuantumOracleAddress","inputs":[],"outputs":[{"name":"","type":"address","internalType":"address"}],"stateMutability":"view"},{"type":"function","name":"getRecentDisputes","inputs":[{"name":"limit","type":"uint256","internalType":"uint256"}],"outputs":[{"name":"disputeIds","type":"uint256[]","internalType":"uint256[]"}],"stateMutability":"view"},{"type":"function","name":"getRegistryAddress","inputs":[],"outputs":[{"name":"","type":"address","internalType":"address"}],"stateMutability":"view"},{"type":"function","name":"getTotalDisputes","inputs":[],"outputs":[{"name":"","type":"uint256","internalType":"uint256"}],"stateMutability":"view"},{"type":"function","name":"getVoteContractAddress","inputs":[],"outputs":[{"name":"","type":"address","internalType":"address"}],"stateMutability":"view"},{"type":"function","name":"quantumOracle","inputs":[],"outputs":[{"name":"","type":"address","internalType":"contract QuantumRandomOracle"}],"stateMutability":"view"},{"type":"function","name":"registry","inputs":[],"outputs":[{"name":"","type":"address","internalType":"contract QJuryRegistry"}],"stateMutability":"view"},{"type":"function","name":"resolveDispute","inputs":[{"name":"disputeId","type":"uint256","internalType":"uint256"}],"outputs":[],"stateMutability":"nonpayable"},{"type":"function","name":"voteContract","inputs":[],"outputs":[{"name":"","type":"address","internalType":"contract QJuryVote"}],"stateMutability":"view"},{"type":"function","name":"withdrawFees","inputs":[{"name":"amount","type":"uint256","internalType":"uint256"}],"outputs":[],"stateMutability":"nonpayable"},{"type":"event","name":"DisputeCreated","inputs":[{"name":"disputeId","type":"uint256","indexed":true,"internalType":"uint256"},{"name":"creator","type":"address","indexed":true,"internalType":"address"},{"name":"description","type":"string","indexed":false,"internalType":"string"},{"name":"fee","type":"uint256","indexed":false,"internalType":"uint256"}],"anonymous":false},{"type":"event","name":"DisputeResolved","inputs":[{"name":"disputeId","type":"uint256","indexed":true,"internalType":"uint256"}],"anonymous":false},{"type":"event","name":"DisputeStatusChanged","inputs":[{"name":"disputeId","type":"uint256","indexed":true,"internalType":"uint256"},{"name":"oldStatus","type":"uint8","indexed":true,"internalType":"enum QJuryDispute.DisputeStatus"},{"name":"newStatus","type":"uint8","indexed":true,"internalType":"enum QJuryDispute.DisputeStatus"}],"anonymous":false},{"type":"event","name":"JurorsAssigned","inputs":[{"name":"disputeId","type":"uint256","indexed":true,"internalType":"uint256"},{"name":"assignedJurors","type":"address[]","indexed":false,"internalType":"address[]"}],"anonymous":false},{"type":"event","name":"QuantumRandomnessReceived","inputs":[{"name":"disputeId","type":"uint256","indexed":true,"internalType":"uint256"},{"name":"randomValue","type":"uint256","indexed":false,"internalType":"uint256"},{"name":"timestamp","type":"uint256","indexed":false,"internalType":"uint256"}],"anonymous":false},{"type":"event","name":"RandomnessRequested","inputs":[{"name":"disputeId","type":"uint256","indexed":true,"internalType":"uint256"},{"name":"randomnessRequestId","type":"uint256","indexed":false,"internalType":"uint256"}],"anonymous":false}],"bytecode":{"object":"0x60e06040523480156200001157600080fd5b50604051620025173803806200251783398101604081905262000034916200006f565b6001600160a01b0392831660805290821660a0521660c052620000b9565b80516001600160a01b03811681146200006a57600080fd5b919050565b6000806000606084860312156200008557600080fd5b620000908462000052565b9250620000a06020850162000052565b9150620000b06040850162000052565b90509250925092565b60805160a05160c0516123e86200012f600039600081816101560152818161036601528181610ba401528181610c82015281816112a601526117f6015260008181610449015281816104ad01528181610eec01526111120152600081816102bd0152818161047a0152610d0001526123e86000f3fe60806040526004361061013f5760003560e01c806387adbc1e116100b6578063dc755e9d1161006f578063dc755e9d146103ef578063e3a96cbd1461040a578063ee183c4a14610437578063f21de1e81461046b578063f8ccaa3b1461049e578063ff0be631146104d157600080fd5b806387adbc1e1461031557806397fbc2fb14610342578063984c9d7614610357578063a47204b51461038a578063c2b7b8681461039f578063c51ad2a3146103bf57600080fd5b8063681759961161010857806368175996146102455780636f9fb98a14610266578063709aff34146102795780637b103999146102ab5780637d36f4d3146102df5780638101df6c146102f557600080fd5b8062e07a481461014457806335b05ec1146101955780633da59b1f146101c2578063564a565d146101ef5780635e318e0714610223575b600080fd5b34801561015057600080fd5b506101787f000000000000000000000000000000000000000000000000000000000000000081565b6040516001600160a01b0390911681526020015b60405180910390f35b3480156101a157600080fd5b506101b56101b0366004611b7e565b6104f1565b60405161018c9190611bdb565b3480156101ce57600080fd5b506101e26101dd366004611b7e565b61055e565b60405161018c9190611c3e565b3480156101fb57600080fd5b5061020f61020a366004611b7e565b6105e8565b60405161018c989796959493929190611c89565b34801561022f57600080fd5b5061024361023e366004611b7e565b6106c2565b005b610258610253366004611ceb565b610797565b60405190815260200161018c565b34801561027257600080fd5b5047610258565b34801561028557600080fd5b50610299610294366004611b7e565b610a1e565b60405161018c96959493929190611d5d565b3480156102b757600080fd5b506101787f000000000000000000000000000000000000000000000000000000000000000081565b3480156102eb57600080fd5b5061025860015481565b34801561030157600080fd5b50610243610310366004611b7e565b610a97565b34801561032157600080fd5b50610335610330366004611b7e565b610fb2565b60405161018c9190611d9d565b34801561034e57600080fd5b50600154610258565b34801561036357600080fd5b507f0000000000000000000000000000000000000000000000000000000000000000610178565b34801561039657600080fd5b50610258600a81565b3480156103ab57600080fd5b506102436103ba366004611b7e565b61105c565b3480156103cb57600080fd5b506103df6103da366004611b7e565b61125a565b604051901515815260200161018c565b3480156103fb57600080fd5b50610258662386f26fc1000081565b34801561041657600080fd5b5061042a610425366004611b7e565b611320565b60405161018c9190611de1565b34801561044357600080fd5b506101787f000000000000000000000000000000000000000000000000000000000000000081565b34801561047757600080fd5b507f0000000000000000000000000000000000000000000000000000000000000000610178565b3480156104aa57600080fd5b507f0000000000000000000000000000000000000000000000000000000000000000610178565b3480156104dd57600080fd5b506103356104ec366004611ea3565b6114bc565b6000818152602081815260409182902060060180548351818402810184019094528084526060939283018282801561055257602002820191906000526020600020905b81546001600160a01b03168152600190910190602001808311610534575b50505050509050919050565b60008181526020819052604081208054606092036105975760405162461bcd60e51b815260040161058e90611ec0565b60405180910390fd5b6105a0836115c6565b60058201546105b19060ff166116cf565b60068301546105bf906115c6565b6040516020016105d193929190611ef0565b604051602081830303815290604052915050919050565b60006020819052908152604090208054600182015460028301805492936001600160a01b039092169261061a90611fa0565b80601f016020809104026020016040519081016040528092919081815260200182805461064690611fa0565b80156106935780601f1061066857610100808354040283529160200191610693565b820191906000526020600020905b81548152906001019060200180831161067657829003601f168201915b50505060038401546004850154600586015460078701546008909701549596929591945060ff90811693501688565b478111156107095760405162461bcd60e51b8152602060048201526014602482015273496e73756666696369656e742062616c616e636560601b604482015260640161058e565b604051600090339083908381818185875af1925050503d806000811461074b576040519150601f19603f3d011682016040523d82523d6000602084013e610750565b606091505b50509050806107935760405162461bcd60e51b815260206004820152600f60248201526e151c985b9cd9995c8819985a5b1959608a1b604482015260640161058e565b5050565b6000662386f26fc100003410156107f05760405162461bcd60e51b815260206004820152601860248201527f496e73756666696369656e742064697370757465206665650000000000000000604482015260640161058e565b8161083d5760405162461bcd60e51b815260206004820152601b60248201527f4465736372697074696f6e2063616e6e6f7420626520656d7074790000000000604482015260640161058e565b60016000815461084c90611ff0565b9190508190559050604051806101200160405280828152602001336001600160a01b0316815260200184848080601f0160208091040260200160405190810160405280939291908181526020018383808284376000920182905250938552505034602084015250426040830152606090910190815260200160006040519080825280602002602001820160405280156108ef578160200160208202803683370190505b5081526000602080830182905260409283018290528482528181529082902083518155908301516001820180546001600160a01b0319166001600160a01b0390921691909117905590820151600282019061094a908261206e565b50606082015181600301556080820151816004015560a08201518160050160006101000a81548160ff0219169083600381111561098957610989611c51565b021790555060c082015180516109a9916006840191602090910190611a9f565b5060e08201516007820155610100909101516008909101805460ff1916911515919091179055604051339082907f339d07165413a188c3ea51070102fc4cef16ba47d198db63ca43df7d6448cbcd90610a079087908790349061212e565b60405180910390a3610a18816117f2565b92915050565b6000818152602081905260408120805482918291829182918291908203610a575760405162461bcd60e51b815260040161058e90611ec0565b80546001820154600583015460068401546008850154600490950154939c6001600160a01b039093169b5060ff9182169a50985090921695509350915050565b600081815260208190526040812054829103610ac55760405162461bcd60e51b815260040161058e90611ec0565b600082815260208190526040812090600582015460ff166003811115610aed57610aed611c51565b14610b335760405162461bcd60e51b8152602060048201526016602482015275496e76616c696420646973707574652073746174757360501b604482015260640161058e565b600881015460ff1615610b885760405162461bcd60e51b815260206004820152601760248201527f4a75726f727320616c72656164792061737369676e6564000000000000000000604482015260640161058e565b600781015460405163ad44777b60e01b815260048101919091527f00000000000000000000000000000000000000000000000000000000000000006001600160a01b03169063ad44777b90602401602060405180830381865afa158015610bf3573d6000803e3d6000fd5b505050506040513d601f19601f82011682018060405250810190610c17919061217c565b610c635760405162461bcd60e51b815260206004820152601860248201527f52616e646f6d6e657373206e6f742066756c66696c6c65640000000000000000604482015260640161058e565b60078101546040516325e41da160e01b81526000916001600160a01b037f000000000000000000000000000000000000000000000000000000000000000016916325e41da191610cb99160040190815260200190565b602060405180830381865afa158015610cd6573d6000803e3d6000fd5b505050506040513d601f19601f82011682018060405250810190610cfa9190612197565b905060007f00000000000000000000000000000000000000000000000000000000000000006001600160a01b0316633a22db586040518163ffffffff1660e01b8152600401600060405180830381865afa158015610d5c573d6000803e3d6000fd5b505050506040513d6000823e601f3d908101601f19168201604052610d84919081019061225d565b9050600a81511015610dd85760405162461bcd60e51b815260206004820152601c60248201527f496e73756666696369656e7420656c696769626c65206a75726f727300000000604482015260640161058e565b6040805183815242602082015286917f3169acbc345f402c7ad2e1b8404b79375e2ae14bf2eedeb7bf3f43d1adebdf78910160405180910390a26000610e1e82846118c7565b6005850154815191925060ff1690610e3f9060068701906020850190611a9f565b50600585018054600160ff19918216811790925560088701805490911682179055816003811115610e7257610e72611c51565b60405189907f87f6870982676165d8f9a1464bccd3dba8c8fd8cd8f0efafe230e5716f26853390600090a4867ff083f0aa71f20298d1c44ffb7a3ecf49b9dcdaa51dcf4a0b519a39167bcb1c8a83604051610ecd9190611bdb565b60405180910390a26040516301987df360e21b81526001600160a01b037f00000000000000000000000000000000000000000000000000000000000000001690630661f7cc90610f23908a908690600401612292565b600060405180830381600087803b158015610f3d57600080fd5b505af1158015610f51573d6000803e3d6000fd5b50505050600585018054600260ff198216811790925560ff1690816003811115610f7d57610f7d611c51565b6040518a907f87f6870982676165d8f9a1464bccd3dba8c8fd8cd8f0efafe230e5716f26853390600090a45050505050505050565b6001546060906000818411610fc75783610fc9565b815b90508067ffffffffffffffff811115610fe457610fe4612009565b60405190808252806020026020018201604052801561100d578160200160208202803683370190505b50925060005b818110156110545761102581846122ab565b848281518110611037576110376122be565b60209081029190910101528061104c81611ff0565b915050611013565b505050919050565b60008181526020819052604081205482910361108a5760405162461bcd60e51b815260040161058e90611ec0565b60008281526020819052604090206002600582015460ff1660038111156110b3576110b3611c51565b146110f95760405162461bcd60e51b8152602060048201526016602482015275496e76616c696420646973707574652073746174757360501b604482015260640161058e565b60405163c1f9fb8760e01b8152600481018490526000907f00000000000000000000000000000000000000000000000000000000000000006001600160a01b03169063c1f9fb8790602401600060405180830381865afa158015611161573d6000803e3d6000fd5b505050506040513d6000823e601f3d908101601f1916820160405261118991908101906122d4565b5050505092505050806111d65760405162461bcd60e51b8152602060048201526015602482015274159bdd1a5b99c81b9bdd081e595d0818db1bdcd959605a1b604482015260640161058e565b600582018054600360ff198216811790925560ff169081818111156111fd576111fd611c51565b60405187907f87f6870982676165d8f9a1464bccd3dba8c8fd8cd8f0efafe230e5716f26853390600090a460405185907f57cce005d496355471bb5269f1dea3d6c81b6ac14c1d74ba28aefb022357013b90600090a25050505050565b600081815260208190526040812081600582015460ff16600381111561128257611282611c51565b1480156113195750600781015460405163ad44777b60e01b815260048101919091527f00000000000000000000000000000000000000000000000000000000000000006001600160a01b03169063ad44777b90602401602060405180830381865afa1580156112f5573d6000803e3d6000fd5b505050506040513d601f19601f82011682018060405250810190611319919061217c565b9392505050565b611328611b04565b600082815260208181526040918290208251610120810184528154815260018201546001600160a01b031692810192909252600281018054929391929184019161137190611fa0565b80601f016020809104026020016040519081016040528092919081815260200182805461139d90611fa0565b80156113ea5780601f106113bf576101008083540402835291602001916113ea565b820191906000526020600020905b8154815290600101906020018083116113cd57829003601f168201915b5050509183525050600382810154602083015260048301546040830152600583015460609092019160ff169081111561142557611425611c51565b600381111561143657611436611c51565b81526020016006820180548060200260200160405190810160405280929190818152602001828054801561149357602002820191906000526020600020905b81546001600160a01b03168152600190910190602001808311611475575b50505091835250506007820154602082015260089091015460ff16151560409091015292915050565b6060600060015b6001548111611510576000818152602081905260409020600101546001600160a01b038086169116036114fe57816114fa81611ff0565b9250505b8061150881611ff0565b9150506114c3565b508067ffffffffffffffff81111561152a5761152a612009565b604051908082528060200260200182016040528015611553578160200160208202803683370190505b509150600060015b6001548111611054576000818152602081905260409020600101546001600160a01b038087169116036115b4578084838151811061159b5761159b6122be565b6020908102919091010152816115b081611ff0565b9250505b806115be81611ff0565b91505061155b565b6060816000036115ed5750506040805180820190915260018152600360fc1b602082015290565b8160005b8115611617578061160181611ff0565b91506116109050600a83612377565b91506115f1565b60008167ffffffffffffffff81111561163257611632612009565b6040519080825280601f01601f19166020018201604052801561165c576020820181803683370190505b5090505b84156116c7576116716001836122ab565b915061167e600a8661238b565b61168990603061239f565b60f81b81838151811061169e5761169e6122be565b60200101906001600160f81b031916908160001a9053506116c0600a86612377565b9450611660565b949350505050565b606060008260038111156116e5576116e5611c51565b0361170d57505060408051808201909152600781526610dc99585d195960ca1b602082015290565b600182600381111561172157611721611c51565b0361175057505060408051808201909152600e81526d129d5c9bdc9cd05cdcda59db995960921b602082015290565b600282600381111561176457611764611c51565b0361179257505060408051808201909152600d81526c159bdd1a5b99d4dd185c9d1959609a1b602082015290565b60038260038111156117a6576117a6611c51565b036117cf57505060408051808201909152600881526714995cdbdb1d995960c21b602082015290565b50506040805180820190915260078152662ab735b737bbb760c91b602082015290565b60007f00000000000000000000000000000000000000000000000000000000000000006001600160a01b031663f8413b076040518163ffffffff1660e01b81526004016020604051808303816000875af1158015611854573d6000803e3d6000fd5b505050506040513d601f19601f820116820180604052508101906118789190612197565b60008381526020818152604091829020600701839055905182815291925083917f3d94fecedaa4f90b8bd459797adb95f5bb11426025c5541390d9ccc1ad1b60a1910160405180910390a25050565b815160408051600a808252610160820190925260609291602082016101408036833701905050915060008167ffffffffffffffff81111561190a5761190a612009565b604051908082528060200260200182016040528015611933578160200160208202803683370190505b50905060005b8281101561199757858181518110611953576119536122be565b602002602001015182828151811061196d5761196d6122be565b6001600160a01b03909216602092830291909101909101528061198f81611ff0565b915050611939565b508360005b600a811015611a955760006119b182866122ab565b905060006119bf828561238b565b90508481815181106119d3576119d36122be565b60200260200101518784815181106119ed576119ed6122be565b6001600160a01b039092166020928302919091019091015284611a116001846122ab565b81518110611a2157611a216122be565b6020026020010151858281518110611a3b57611a3b6122be565b6001600160a01b03929092166020928302919091018201526040805191820186905281018490526060016040516020818303038152906040528051906020012060001c935050508080611a8d90611ff0565b91505061199c565b5050505092915050565b828054828255906000526020600020908101928215611af4579160200282015b82811115611af457825182546001600160a01b0319166001600160a01b03909116178255602090920191600190910190611abf565b50611b00929150611b69565b5090565b6040518061012001604052806000815260200160006001600160a01b0316815260200160608152602001600081526020016000815260200160006003811115611b4f57611b4f611c51565b815260606020820181905260006040830181905291015290565b5b80821115611b005760008155600101611b6a565b600060208284031215611b9057600080fd5b5035919050565b600081518084526020808501945080840160005b83811015611bd05781516001600160a01b031687529582019590820190600101611bab565b509495945050505050565b6020815260006113196020830184611b97565b60005b83811015611c09578181015183820152602001611bf1565b50506000910152565b60008151808452611c2a816020860160208601611bee565b601f01601f19169290920160200192915050565b6020815260006113196020830184611c12565b634e487b7160e01b600052602160045260246000fd5b60048110611c8557634e487b7160e01b600052602160045260246000fd5b9052565b8881526001600160a01b038816602082015261010060408201819052600090611cb48382018a611c12565b915050866060830152856080830152611cd060a0830186611c67565b8360c083015282151560e08301529998505050505050505050565b60008060208385031215611cfe57600080fd5b823567ffffffffffffffff80821115611d1657600080fd5b818501915085601f830112611d2a57600080fd5b813581811115611d3957600080fd5b866020828501011115611d4b57600080fd5b60209290920196919550909350505050565b8681526001600160a01b038616602082015260c08101611d806040830187611c67565b6060820194909452911515608083015260a0909101529392505050565b6020808252825182820181905260009190848201906040850190845b81811015611dd557835183529284019291840191600101611db9565b50909695505050505050565b602081528151602082015260006020830151611e0860408401826001600160a01b03169052565b506040830151610120806060850152611e25610140850183611c12565b915060608501516080850152608085015160a085015260a0850151611e4d60c0860182611c67565b5060c0850151848303601f190160e0860152611e698382611b97565b60e0870151610100878101919091529096015115159190940152509192915050565b6001600160a01b0381168114611ea057600080fd5b50565b600060208284031215611eb557600080fd5b813561131981611e8b565b602080825260169082015275111a5cdc1d5d1948191bd95cc81b9bdd08195e1a5cdd60521b604082015260600190565b6d3d913234b9b83aba32a4b2111d1160911b81528351600090611f1a81600e850160208901611bee565b61088b60f21b600e918401918201819052691139ba30ba3ab9911d1160b11b60108301528551611f5181601a850160208a01611bee565b601a9201918201526e11353ab937b939a1b7bab73a111d1160891b601c8201528351611f8481602b840160208801611bee565b61227d60f01b602b9290910191820152602d0195945050505050565b600181811c90821680611fb457607f821691505b602082108103611fd457634e487b7160e01b600052602260045260246000fd5b50919050565b634e487b7160e01b600052601160045260246000fd5b60006001820161200257612002611fda565b5060010190565b634e487b7160e01b600052604160045260246000fd5b601f82111561206957600081815260208120601f850160051c810160208610156120465750805b601f850160051c820191505b8181101561206557828155600101612052565b5050505b505050565b815167ffffffffffffffff81111561208857612088612009565b61209c816120968454611fa0565b8461201f565b602080601f8311600181146120d157600084156120b95750858301515b600019600386901b1c1916600185901b178555612065565b600085815260208120601f198616915b82811015612100578886015182559484019460019091019084016120e1565b508582101561211e5787850151600019600388901b60f8161c191681555b5050505050600190811b01905550565b604081528260408201528284606083013760006060848301015260006060601f19601f8601168301019050826020830152949350505050565b8051801515811461217757600080fd5b919050565b60006020828403121561218e57600080fd5b61131982612167565b6000602082840312156121a957600080fd5b5051919050565b805161217781611e8b565b600082601f8301126121cc57600080fd5b8151602067ffffffffffffffff808311156121e9576121e9612009565b8260051b604051601f19603f8301168101818110848211171561220e5761220e612009565b60405293845285810183019383810192508785111561222c57600080fd5b83870191505b8482101561225257612243826121b0565b83529183019190830190612232565b979650505050505050565b60006020828403121561226f57600080fd5b815167ffffffffffffffff81111561228657600080fd5b6116c7848285016121bb565b8281526040602082015260006116c76040830184611b97565b81810381811115610a1857610a18611fda565b634e487b7160e01b600052603260045260246000fd5b600080600080600080600060e0888a0312156122ef57600080fd5b875167ffffffffffffffff81111561230657600080fd5b6123128a828b016121bb565b9750506020880151955061232860408901612167565b945060608801516003811061233c57600080fd5b809450506080880151925060a0880151915060c0880151905092959891949750929550565b634e487b7160e01b600052601260045260246000fd5b60008261238657612386612361565b500490565b60008261239a5761239a612361565b500690565b80820180821115610a1857610a18611fda56fea2646970667358221220f9aa6c3fe4c3ca4c566b87157d157d0fac98e88212aba68bd3aa6de0cc4fcb9364736f6c63430008130033","linkReferences":{}},"methodIdentifiers":{"DISPUTE_FEE()":"dc755e9d","JURORS_PER_DISPUTE()":"a47204b5","assignJurors(uint256)":"8101df6c","canAssignJurors(uint256)":"c51ad2a3","createDispute(string)":"68175996","disputeCounter()":"7d36f4d3","disputes(uint256)":"564a565d","getAssignedJurors(uint256)":"35b05ec1","getContractBalance()":"6f9fb98a","getDispute(uint256)":"e3a96cbd","getDisputeMetadata(uint256)":"3da59b1f","getDisputeSummary(uint256)":"709aff34","getDisputesByCreator(address)":"ff0be631","getQuantumOracleAddress()":"984c9d76","getRecentDisputes(uint256)":"87adbc1e","getRegistryAddress()":"f21de1e8","getTotalDisputes()":"97fbc2fb","getVoteContractAddress()":"f8ccaa3b","quantumOracle()":"00e07a48","registry()":"7b103999","resolveDispute(uint256)":"c2b7b868","voteContract()":"ee183c4a","withdrawFees(uint256)":"5e318e07"},"id":1}