{"abi":[{"type":"constructor","inputs":[{"name":"_registry","type":"address","internalType":"address"},{"name":"_voteContract","type":"address","internalType":"address"},{"name":"_randomOracle","type":"address","internalType":"address"}],"stateMutability":"nonpayable"},{"type":"function","name":"DISPUTE_FEE","inputs":[],"outputs":[{"name":"","type":"uint256","internalType":"uint256"}],"stateMutability":"view"},{"type":"function","name":"JURORS_PER_DISPUTE","inputs":[],"outputs":[{"name":"","type":"uint256","internalType":"uint256"}],"stateMutability":"view"},{"type":"function","name":"assignJurors","inputs":[{"name":"disputeId","type":"uint256","internalType":"uint256"}],"outputs":[],"stateMutability":"nonpayable"},{"type":"function","name":"canAssignJurors","inputs":[{"name":"disputeId","type":"uint256","internalType":"uint256"}],"outputs":[{"name":"","type":"bool","internalType":"bool"}],"stateMutability":"view"},{"type":"function","name":"createDispute","inputs":[{"name":"description","type":"string","internalType":"string"}],"outputs":[{"name":"disputeId","type":"uint256","internalType":"uint256"}],"stateMutability":"payable"},{"type":"function","name":"disputeCounter","inputs":[],"outputs":[{"name":"","type":"uint256","internalType":"uint256"}],"stateMutability":"view"},{"type":"function","name":"disputes","inputs":[{"name":"","type":"uint256","internalType":"uint256"}],"outputs":[{"name":"id","type":"uint256","internalType":"uint256"},{"name":"creator","type":"address","internalType":"address"},{"name":"description","type":"string","internalType":"string"},{"name":"fee","type":"uint256","internalType":"uint256"},{"name":"createdAt","type":"uint256","internalType":"uint256"},{"name":"status","type":"uint8","internalType":"enum QJuryDispute.DisputeStatus"},{"name":"randomnessRequestId","type":"uint256","internalType":"uint256"},{"name":"randomnessFulfilled","type":"bool","internalType":"bool"}],"stateMutability":"view"},{"type":"function","name":"getAssignedJurors","inputs":[{"name":"disputeId","type":"uint256","internalType":"uint256"}],"outputs":[{"name":"","type":"address[]","internalType":"address[]"}],"stateMutability":"view"},{"type":"function","name":"getContractBalance","inputs":[],"outputs":[{"name":"","type":"uint256","internalType":"uint256"}],"stateMutability":"view"},{"type":"function","name":"getDispute","inputs":[{"name":"disputeId","type":"uint256","internalType":"uint256"}],"outputs":[{"name":"","type":"tuple","internalType":"struct QJuryDispute.Dispute","components":[{"name":"id","type":"uint256","internalType":"uint256"},{"name":"creator","type":"address","internalType":"address"},{"name":"description","type":"string","internalType":"string"},{"name":"fee","type":"uint256","internalType":"uint256"},{"name":"createdAt","type":"uint256","internalType":"uint256"},{"name":"status","type":"uint8","internalType":"enum QJuryDispute.DisputeStatus"},{"name":"assignedJurors","type":"address[]","internalType":"address[]"},{"name":"randomnessRequestId","type":"uint256","internalType":"uint256"},{"name":"randomnessFulfilled","type":"bool","internalType":"bool"}]}],"stateMutability":"view"},{"type":"function","name":"getTotalDisputes","inputs":[],"outputs":[{"name":"","type":"uint256","internalType":"uint256"}],"stateMutability":"view"},{"type":"function","name":"randomOracle","inputs":[],"outputs":[{"name":"","type":"address","internalType":"contract MockQRandomOracle"}],"stateMutability":"view"},{"type":"function","name":"registry","inputs":[],"outputs":[{"name":"","type":"address","internalType":"contract QJuryRegistry"}],"stateMutability":"view"},{"type":"function","name":"resolveDispute","inputs":[{"name":"disputeId","type":"uint256","internalType":"uint256"}],"outputs":[],"stateMutability":"nonpayable"},{"type":"function","name":"voteContract","inputs":[],"outputs":[{"name":"","type":"address","internalType":"contract QJuryVote"}],"stateMutability":"view"},{"type":"function","name":"withdrawFees","inputs":[{"name":"amount","type":"uint256","internalType":"uint256"}],"outputs":[],"stateMutability":"nonpayable"},{"type":"event","name":"DisputeCreated","inputs":[{"name":"disputeId","type":"uint256","indexed":true,"internalType":"uint256"},{"name":"creator","type":"address","indexed":true,"internalType":"address"},{"name":"description","type":"string","indexed":false,"internalType":"string"},{"name":"fee","type":"uint256","indexed":false,"internalType":"uint256"}],"anonymous":false},{"type":"event","name":"DisputeResolved","inputs":[{"name":"disputeId","type":"uint256","indexed":true,"internalType":"uint256"}],"anonymous":false},{"type":"event","name":"JurorsAssigned","inputs":[{"name":"disputeId","type":"uint256","indexed":true,"internalType":"uint256"},{"name":"assignedJurors","type":"address[]","indexed":false,"internalType":"address[]"}],"anonymous":false},{"type":"event","name":"RandomnessRequested","inputs":[{"name":"disputeId","type":"uint256","indexed":true,"internalType":"uint256"},{"name":"randomnessRequestId","type":"uint256","indexed":false,"internalType":"uint256"}],"anonymous":false}],"bytecode":{"object":"0x60e060405234801561000f575f5ffd5b50604051612d75380380612d7583398181016040528101906100319190610133565b8273ffffffffffffffffffffffffffffffffffffffff1660808173ffffffffffffffffffffffffffffffffffffffff16815250508173ffffffffffffffffffffffffffffffffffffffff1660a08173ffffffffffffffffffffffffffffffffffffffff16815250508073ffffffffffffffffffffffffffffffffffffffff1660c08173ffffffffffffffffffffffffffffffffffffffff1681525050505050610183565b5f5ffd5b5f73ffffffffffffffffffffffffffffffffffffffff82169050919050565b5f610102826100d9565b9050919050565b610112816100f8565b811461011c575f5ffd5b50565b5f8151905061012d81610109565b92915050565b5f5f5f6060848603121561014a576101496100d5565b5b5f6101578682870161011f565b93505060206101688682870161011f565b92505060406101798682870161011f565b9150509250925092565b60805160a05160c051612b976101de5f395f8181610ad201528181610bae01528181610e8f0152818161112c015261141701525f8181610dca01528181610f9801526113f201525f81816109790152610c4d0152612b975ff3fe6080604052600436106100f2575f3560e01c806397fbc2fb11610089578063c51ad2a311610058578063c51ad2a314610319578063dc755e9d14610355578063e3a96cbd1461037f578063ee183c4a146103bb576100f2565b806397fbc2fb14610273578063a224c1981461029d578063a47204b5146102c7578063c2b7b868146102f1576100f2565b80636f9fb98a116100c55780636f9fb98a146101cd5780637b103999146101f75780637d36f4d3146102215780638101df6c1461024b576100f2565b806335b05ec1146100f6578063564a565d146101325780635e318e0714610175578063681759961461019d575b5f5ffd5b348015610101575f5ffd5b5061011c600480360381019061011791906118c2565b6103e5565b60405161012991906119d4565b60405180910390f35b34801561013d575f5ffd5b50610158600480360381019061015391906118c2565b610483565b60405161016c989796959493929190611b0f565b60405180910390f35b348015610180575f5ffd5b5061019b600480360381019061019691906118c2565b610583565b005b6101b760048036038101906101b29190611bf3565b610672565b6040516101c49190611c3e565b60405180910390f35b3480156101d8575f5ffd5b506101e1610970565b6040516101ee9190611c3e565b60405180910390f35b348015610202575f5ffd5b5061020b610977565b6040516102189190611cb2565b60405180910390f35b34801561022c575f5ffd5b5061023561099b565b6040516102429190611c3e565b60405180910390f35b348015610256575f5ffd5b50610271600480360381019061026c91906118c2565b6109a1565b005b34801561027e575f5ffd5b50610287610e84565b6040516102949190611c3e565b60405180910390f35b3480156102a8575f5ffd5b506102b1610e8d565b6040516102be9190611ceb565b60405180910390f35b3480156102d2575f5ffd5b506102db610eb1565b6040516102e89190611c3e565b60405180910390f35b3480156102fc575f5ffd5b50610317600480360381019061031291906118c2565b610eb6565b005b348015610324575f5ffd5b5061033f600480360381019061033a91906118c2565b6110d8565b60405161034c9190611d04565b60405180910390f35b348015610360575f5ffd5b506103696111cf565b6040516103769190611c3e565b60405180910390f35b34801561038a575f5ffd5b506103a560048036038101906103a091906118c2565b6111da565b6040516103b29190611ec7565b60405180910390f35b3480156103c6575f5ffd5b506103cf6113f0565b6040516103dc9190611f07565b60405180910390f35b60605f5f8381526020019081526020015f2060060180548060200260200160405190810160405280929190818152602001828054801561047757602002820191905f5260205f20905b815f9054906101000a900473ffffffffffffffffffffffffffffffffffffffff1673ffffffffffffffffffffffffffffffffffffffff168152602001906001019080831161042e575b50505050509050919050565b5f602052805f5260405f205f91509050805f015490806001015f9054906101000a900473ffffffffffffffffffffffffffffffffffffffff16908060020180546104cc90611f4d565b80601f01602080910402602001604051908101604052809291908181526020018280546104f890611f4d565b80156105435780601f1061051a57610100808354040283529160200191610543565b820191905f5260205f20905b81548152906001019060200180831161052657829003601f168201915b505050505090806003015490806004015490806005015f9054906101000a900460ff1690806007015490806008015f9054906101000a900460ff16905088565b478111156105c6576040517f08c379a00000000000000000000000000000000000000000000000000000000081526004016105bd90611fc7565b60405180910390fd5b5f3373ffffffffffffffffffffffffffffffffffffffff16826040516105eb90612012565b5f6040518083038185875af1925050503d805f8114610625576040519150601f19603f3d011682016040523d82523d5f602084013e61062a565b606091505b505090508061066e576040517f08c379a000000000000000000000000000000000000000000000000000000000815260040161066590612070565b60405180910390fd5b5050565b5f662386f26fc100003410156106bd576040517f08c379a00000000000000000000000000000000000000000000000000000000081526004016106b4906120d8565b60405180910390fd5b5f8383905011610702576040517f08c379a00000000000000000000000000000000000000000000000000000000081526004016106f990612140565b60405180910390fd5b60015f81546107109061218b565b91905081905590506040518061012001604052808281526020013373ffffffffffffffffffffffffffffffffffffffff16815260200184848080601f0160208091040260200160405190810160405280939291908181526020018383808284375f81840152601f19601f8201169050808301925050505050505081526020013481526020014281526020015f60038111156107ae576107ad611a82565b5b81526020015f67ffffffffffffffff8111156107cd576107cc6121d2565b5b6040519080825280602002602001820160405280156107fb5781602001602082028036833780820191505090505b5081526020015f81526020015f15158152505f5f8381526020019081526020015f205f820151815f01556020820151816001015f6101000a81548173ffffffffffffffffffffffffffffffffffffffff021916908373ffffffffffffffffffffffffffffffffffffffff16021790555060408201518160020190816108809190612396565b50606082015181600301556080820151816004015560a0820151816005015f6101000a81548160ff021916908360038111156108bf576108be611a82565b5b021790555060c08201518160060190805190602001906108e092919061176d565b5060e08201518160070155610100820151816008015f6101000a81548160ff0219169083151502179055509050503373ffffffffffffffffffffffffffffffffffffffff16817f339d07165413a188c3ea51070102fc4cef16ba47d198db63ca43df7d6448cbcd8585346040516109599392919061249f565b60405180910390a361096a81611414565b92915050565b5f47905090565b7f000000000000000000000000000000000000000000000000000000000000000081565b60015481565b805f5f5f8381526020019081526020015f205f0154036109f6576040517f08c379a00000000000000000000000000000000000000000000000000000000081526004016109ed90612519565b60405180910390fd5b5f5f5f8481526020019081526020015f2090505f6003811115610a1c57610a1b611a82565b5b816005015f9054906101000a900460ff166003811115610a3f57610a3e611a82565b5b14610a7f576040517f08c379a0000000000000000000000000000000000000000000000000000000008152600401610a7690612581565b60405180910390fd5b806008015f9054906101000a900460ff1615610ad0576040517f08c379a0000000000000000000000000000000000000000000000000000000008152600401610ac7906125e9565b60405180910390fd5b7f000000000000000000000000000000000000000000000000000000000000000073ffffffffffffffffffffffffffffffffffffffff1663ad44777b82600701546040518263ffffffff1660e01b8152600401610b2d9190611c3e565b602060405180830381865afa158015610b48573d5f5f3e3d5ffd5b505050506040513d601f19601f82011682018060405250810190610b6c9190612631565b610bab576040517f08c379a0000000000000000000000000000000000000000000000000000000008152600401610ba2906126a6565b60405180910390fd5b5f7f000000000000000000000000000000000000000000000000000000000000000073ffffffffffffffffffffffffffffffffffffffff166325e41da183600701546040518263ffffffff1660e01b8152600401610c099190611c3e565b602060405180830381865afa158015610c24573d5f5f3e3d5ffd5b505050506040513d601f19601f82011682018060405250810190610c4891906126d8565b90505f7f000000000000000000000000000000000000000000000000000000000000000073ffffffffffffffffffffffffffffffffffffffff16633a22db586040518163ffffffff1660e01b81526004015f60405180830381865afa158015610cb3573d5f5f3e3d5ffd5b505050506040513d5f823e3d601f19601f82011682018060405250810190610cdb9190612838565b9050600a81511015610d22576040517f08c379a0000000000000000000000000000000000000000000000000000000008152600401610d19906128c9565b60405180910390fd5b5f610d2d82846114f9565b905080846006019080519060200190610d4792919061176d565b506001846005015f6101000a81548160ff02191690836003811115610d6f57610d6e611a82565b5b02179055506001846008015f6101000a81548160ff021916908315150217905550857ff083f0aa71f20298d1c44ffb7a3ecf49b9dcdaa51dcf4a0b519a39167bcb1c8a82604051610dc091906119d4565b60405180910390a27f000000000000000000000000000000000000000000000000000000000000000073ffffffffffffffffffffffffffffffffffffffff16630661f7cc87836040518363ffffffff1660e01b8152600401610e239291906128e7565b5f604051808303815f87803b158015610e3a575f5ffd5b505af1158015610e4c573d5f5f3e3d5ffd5b505050506002846005015f6101000a81548160ff02191690836003811115610e7757610e76611a82565b5b0217905550505050505050565b5f600154905090565b7f000000000000000000000000000000000000000000000000000000000000000081565b600a81565b805f5f5f8381526020019081526020015f205f015403610f0b576040517f08c379a0000000000000000000000000000000000000000000000000000000008152600401610f0290612519565b60405180910390fd5b5f5f5f8481526020019081526020015f20905060026003811115610f3257610f31611a82565b5b816005015f9054906101000a900460ff166003811115610f5557610f54611a82565b5b14610f95576040517f08c379a0000000000000000000000000000000000000000000000000000000008152600401610f8c90612581565b60405180910390fd5b5f7f000000000000000000000000000000000000000000000000000000000000000073ffffffffffffffffffffffffffffffffffffffff1663c1f9fb87856040518263ffffffff1660e01b8152600401610fef9190611c3e565b5f60405180830381865afa158015611009573d5f5f3e3d5ffd5b505050506040513d5f823e3d601f19601f820116820180604052508101906110319190612938565b505050509250505080611079576040517f08c379a000000000000000000000000000000000000000000000000000000000815260040161107090612a3b565b60405180910390fd5b6003826005015f6101000a81548160ff021916908360038111156110a05761109f611a82565b5b0217905550837f57cce005d496355471bb5269f1dea3d6c81b6ac14c1d74ba28aefb022357013b60405160405180910390a250505050565b5f5f5f5f8481526020019081526020015f2090505f60038111156110ff576110fe611a82565b5b816005015f9054906101000a900460ff16600381111561112257611121611a82565b5b1480156111c757507f000000000000000000000000000000000000000000000000000000000000000073ffffffffffffffffffffffffffffffffffffffff1663ad44777b82600701546040518263ffffffff1660e01b81526004016111879190611c3e565b602060405180830381865afa1580156111a2573d5f5f3e3d5ffd5b505050506040513d601f19601f820116820180604052508101906111c69190612631565b5b915050919050565b662386f26fc1000081565b6111e26117f4565b5f5f8381526020019081526020015f20604051806101200160405290815f8201548152602001600182015f9054906101000a900473ffffffffffffffffffffffffffffffffffffffff1673ffffffffffffffffffffffffffffffffffffffff1673ffffffffffffffffffffffffffffffffffffffff16815260200160028201805461126c90611f4d565b80601f016020809104026020016040519081016040528092919081815260200182805461129890611f4d565b80156112e35780601f106112ba576101008083540402835291602001916112e3565b820191905f5260205f20905b8154815290600101906020018083116112c657829003601f168201915b505050505081526020016003820154815260200160048201548152602001600582015f9054906101000a900460ff16600381111561132457611323611a82565b5b600381111561133657611335611a82565b5b8152602001600682018054806020026020016040519081016040528092919081815260200182805480156113bc57602002820191905f5260205f20905b815f9054906101000a900473ffffffffffffffffffffffffffffffffffffffff1673ffffffffffffffffffffffffffffffffffffffff1681526020019060010190808311611373575b5050505050815260200160078201548152602001600882015f9054906101000a900460ff1615151515815250509050919050565b7f000000000000000000000000000000000000000000000000000000000000000081565b5f7f000000000000000000000000000000000000000000000000000000000000000073ffffffffffffffffffffffffffffffffffffffff1663f8413b076040518163ffffffff1660e01b81526004016020604051808303815f875af115801561147f573d5f5f3e3d5ffd5b505050506040513d601f19601f820116820180604052508101906114a391906126d8565b9050805f5f8481526020019081526020015f2060070181905550817f3d94fecedaa4f90b8bd459797adb95f5bb11426025c5541390d9ccc1ad1b60a1826040516114ed9190611c3e565b60405180910390a25050565b60605f83519050600a67ffffffffffffffff81111561151b5761151a6121d2565b5b6040519080825280602002602001820160405280156115495781602001602082028036833780820191505090505b5091505f8167ffffffffffffffff811115611567576115666121d2565b5b6040519080825280602002602001820160405280156115955781602001602082028036833780820191505090505b5090505f5f90505b8281101561161a578581815181106115b8576115b7612a59565b5b60200260200101518282815181106115d3576115d2612a59565b5b602002602001019073ffffffffffffffffffffffffffffffffffffffff16908173ffffffffffffffffffffffffffffffffffffffff1681525050808060010191505061159d565b505f8490505f5f90505b600a811015611763575f818561163a9190612a86565b90505f81846116499190612ae6565b905084818151811061165e5761165d612a59565b5b602002602001015187848151811061167957611678612a59565b5b602002602001019073ffffffffffffffffffffffffffffffffffffffff16908173ffffffffffffffffffffffffffffffffffffffff1681525050846001836116c19190612a86565b815181106116d2576116d1612a59565b5b60200260200101518582815181106116ed576116ec612a59565b5b602002602001019073ffffffffffffffffffffffffffffffffffffffff16908173ffffffffffffffffffffffffffffffffffffffff1681525050838360405160200161173a929190612b36565b604051602081830303815290604052805190602001205f1c935050508080600101915050611624565b5050505092915050565b828054828255905f5260205f209081019282156117e3579160200282015b828111156117e2578251825f6101000a81548173ffffffffffffffffffffffffffffffffffffffff021916908373ffffffffffffffffffffffffffffffffffffffff1602179055509160200191906001019061178b565b5b5090506117f09190611863565b5090565b6040518061012001604052805f81526020015f73ffffffffffffffffffffffffffffffffffffffff168152602001606081526020015f81526020015f81526020015f600381111561184857611847611a82565b5b8152602001606081526020015f81526020015f151581525090565b5b8082111561187a575f815f905550600101611864565b5090565b5f604051905090565b5f5ffd5b5f5ffd5b5f819050919050565b6118a18161188f565b81146118ab575f5ffd5b50565b5f813590506118bc81611898565b92915050565b5f602082840312156118d7576118d6611887565b5b5f6118e4848285016118ae565b91505092915050565b5f81519050919050565b5f82825260208201905092915050565b5f819050602082019050919050565b5f73ffffffffffffffffffffffffffffffffffffffff82169050919050565b5f61193f82611916565b9050919050565b61194f81611935565b82525050565b5f6119608383611946565b60208301905092915050565b5f602082019050919050565b5f611982826118ed565b61198c81856118f7565b935061199783611907565b805f5b838110156119c75781516119ae8882611955565b97506119b98361196c565b92505060018101905061199a565b5085935050505092915050565b5f6020820190508181035f8301526119ec8184611978565b905092915050565b6119fd8161188f565b82525050565b611a0c81611935565b82525050565b5f81519050919050565b5f82825260208201905092915050565b8281835e5f83830152505050565b5f601f19601f8301169050919050565b5f611a5482611a12565b611a5e8185611a1c565b9350611a6e818560208601611a2c565b611a7781611a3a565b840191505092915050565b7f4e487b71000000000000000000000000000000000000000000000000000000005f52602160045260245ffd5b60048110611ac057611abf611a82565b5b50565b5f819050611ad082611aaf565b919050565b5f611adf82611ac3565b9050919050565b611aef81611ad5565b82525050565b5f8115159050919050565b611b0981611af5565b82525050565b5f61010082019050611b235f83018b6119f4565b611b30602083018a611a03565b8181036040830152611b428189611a4a565b9050611b5160608301886119f4565b611b5e60808301876119f4565b611b6b60a0830186611ae6565b611b7860c08301856119f4565b611b8560e0830184611b00565b9998505050505050505050565b5f5ffd5b5f5ffd5b5f5ffd5b5f5f83601f840112611bb357611bb2611b92565b5b8235905067ffffffffffffffff811115611bd057611bcf611b96565b5b602083019150836001820283011115611bec57611beb611b9a565b5b9250929050565b5f5f60208385031215611c0957611c08611887565b5b5f83013567ffffffffffffffff811115611c2657611c2561188b565b5b611c3285828601611b9e565b92509250509250929050565b5f602082019050611c515f8301846119f4565b92915050565b5f819050919050565b5f611c7a611c75611c7084611916565b611c57565b611916565b9050919050565b5f611c8b82611c60565b9050919050565b5f611c9c82611c81565b9050919050565b611cac81611c92565b82525050565b5f602082019050611cc55f830184611ca3565b92915050565b5f611cd582611c81565b9050919050565b611ce581611ccb565b82525050565b5f602082019050611cfe5f830184611cdc565b92915050565b5f602082019050611d175f830184611b00565b92915050565b611d268161188f565b82525050565b5f82825260208201905092915050565b5f611d4682611a12565b611d508185611d2c565b9350611d60818560208601611a2c565b611d6981611a3a565b840191505092915050565b611d7d81611ad5565b82525050565b5f82825260208201905092915050565b5f611d9d826118ed565b611da78185611d83565b9350611db283611907565b805f5b83811015611de2578151611dc98882611955565b9750611dd48361196c565b925050600181019050611db5565b5085935050505092915050565b611df881611af5565b82525050565b5f61012083015f830151611e145f860182611d1d565b506020830151611e276020860182611946565b5060408301518482036040860152611e3f8282611d3c565b9150506060830151611e546060860182611d1d565b506080830151611e676080860182611d1d565b5060a0830151611e7a60a0860182611d74565b5060c083015184820360c0860152611e928282611d93565b91505060e0830151611ea760e0860182611d1d565b50610100830151611ebc610100860182611def565b508091505092915050565b5f6020820190508181035f830152611edf8184611dfe565b905092915050565b5f611ef182611c81565b9050919050565b611f0181611ee7565b82525050565b5f602082019050611f1a5f830184611ef8565b92915050565b7f4e487b71000000000000000000000000000000000000000000000000000000005f52602260045260245ffd5b5f6002820490506001821680611f6457607f821691505b602082108103611f7757611f76611f20565b5b50919050565b7f496e73756666696369656e742062616c616e63650000000000000000000000005f82015250565b5f611fb1601483611a1c565b9150611fbc82611f7d565b602082019050919050565b5f6020820190508181035f830152611fde81611fa5565b9050919050565b5f81905092915050565b50565b5f611ffd5f83611fe5565b915061200882611fef565b5f82019050919050565b5f61201c82611ff2565b9150819050919050565b7f5472616e73666572206661696c656400000000000000000000000000000000005f82015250565b5f61205a600f83611a1c565b915061206582612026565b602082019050919050565b5f6020820190508181035f8301526120878161204e565b9050919050565b7f496e73756666696369656e7420646973707574652066656500000000000000005f82015250565b5f6120c2601883611a1c565b91506120cd8261208e565b602082019050919050565b5f6020820190508181035f8301526120ef816120b6565b9050919050565b7f4465736372697074696f6e2063616e6e6f7420626520656d70747900000000005f82015250565b5f61212a601b83611a1c565b9150612135826120f6565b602082019050919050565b5f6020820190508181035f8301526121578161211e565b9050919050565b7f4e487b71000000000000000000000000000000000000000000000000000000005f52601160045260245ffd5b5f6121958261188f565b91507fffffffffffffffffffffffffffffffffffffffffffffffffffffffffffffffff82036121c7576121c661215e565b5b600182019050919050565b7f4e487b71000000000000000000000000000000000000000000000000000000005f52604160045260245ffd5b5f819050815f5260205f209050919050565b5f6020601f8301049050919050565b5f82821b905092915050565b5f6008830261225b7fffffffffffffffffffffffffffffffffffffffffffffffffffffffffffffffff82612220565b6122658683612220565b95508019841693508086168417925050509392505050565b5f61229761229261228d8461188f565b611c57565b61188f565b9050919050565b5f819050919050565b6122b08361227d565b6122c46122bc8261229e565b84845461222c565b825550505050565b5f5f905090565b6122db6122cc565b6122e68184846122a7565b505050565b5b81811015612309576122fe5f826122d3565b6001810190506122ec565b5050565b601f82111561234e5761231f816121ff565b61232884612211565b81016020851015612337578190505b61234b61234385612211565b8301826122eb565b50505b505050565b5f82821c905092915050565b5f61236e5f1984600802612353565b1980831691505092915050565b5f612386838361235f565b9150826002028217905092915050565b61239f82611a12565b67ffffffffffffffff8111156123b8576123b76121d2565b5b6123c28254611f4d565b6123cd82828561230d565b5f60209050601f8311600181146123fe575f84156123ec578287015190505b6123f6858261237b565b86555061245d565b601f19841661240c866121ff565b5f5b828110156124335784890151825560018201915060208501945060208101905061240e565b86831015612450578489015161244c601f89168261235f565b8355505b6001600288020188555050505b505050505050565b828183375f83830152505050565b5f61247e8385611a1c565b935061248b838584612465565b61249483611a3a565b840190509392505050565b5f6040820190508181035f8301526124b8818587612473565b90506124c760208301846119f4565b949350505050565b7f4469737075746520646f6573206e6f74206578697374000000000000000000005f82015250565b5f612503601683611a1c565b915061250e826124cf565b602082019050919050565b5f6020820190508181035f830152612530816124f7565b9050919050565b7f496e76616c6964206469737075746520737461747573000000000000000000005f82015250565b5f61256b601683611a1c565b915061257682612537565b602082019050919050565b5f6020820190508181035f8301526125988161255f565b9050919050565b7f4a75726f727320616c72656164792061737369676e65640000000000000000005f82015250565b5f6125d3601783611a1c565b91506125de8261259f565b602082019050919050565b5f6020820190508181035f830152612600816125c7565b9050919050565b61261081611af5565b811461261a575f5ffd5b50565b5f8151905061262b81612607565b92915050565b5f6020828403121561264657612645611887565b5b5f6126538482850161261d565b91505092915050565b7f52616e646f6d6e657373206e6f742066756c66696c6c656400000000000000005f82015250565b5f612690601883611a1c565b915061269b8261265c565b602082019050919050565b5f6020820190508181035f8301526126bd81612684565b9050919050565b5f815190506126d281611898565b92915050565b5f602082840312156126ed576126ec611887565b5b5f6126fa848285016126c4565b91505092915050565b61270c82611a3a565b810181811067ffffffffffffffff8211171561272b5761272a6121d2565b5b80604052505050565b5f61273d61187e565b90506127498282612703565b919050565b5f67ffffffffffffffff821115612768576127676121d2565b5b602082029050602081019050919050565b61278281611935565b811461278c575f5ffd5b50565b5f8151905061279d81612779565b92915050565b5f6127b56127b08461274e565b612734565b905080838252602082019050602084028301858111156127d8576127d7611b9a565b5b835b8181101561280157806127ed888261278f565b8452602084019350506020810190506127da565b5050509392505050565b5f82601f83011261281f5761281e611b92565b5b815161282f8482602086016127a3565b91505092915050565b5f6020828403121561284d5761284c611887565b5b5f82015167ffffffffffffffff81111561286a5761286961188b565b5b6128768482850161280b565b91505092915050565b7f496e73756666696369656e7420656c696769626c65206a75726f7273000000005f82015250565b5f6128b3601c83611a1c565b91506128be8261287f565b602082019050919050565b5f6020820190508181035f8301526128e0816128a7565b9050919050565b5f6040820190506128fa5f8301856119f4565b818103602083015261290c8184611978565b90509392505050565b60038110612921575f5ffd5b50565b5f8151905061293281612915565b92915050565b5f5f5f5f5f5f5f60e0888a03121561295357612952611887565b5b5f88015167ffffffffffffffff8111156129705761296f61188b565b5b61297c8a828b0161280b565b975050602061298d8a828b016126c4565b965050604061299e8a828b0161261d565b95505060606129af8a828b01612924565b94505060806129c08a828b016126c4565b93505060a06129d18a828b016126c4565b92505060c06129e28a828b016126c4565b91505092959891949750929550565b7f566f74696e67206e6f742079657420636c6f73656400000000000000000000005f82015250565b5f612a25601583611a1c565b9150612a30826129f1565b602082019050919050565b5f6020820190508181035f830152612a5281612a19565b9050919050565b7f4e487b71000000000000000000000000000000000000000000000000000000005f52603260045260245ffd5b5f612a908261188f565b9150612a9b8361188f565b9250828203905081811115612ab357612ab261215e565b5b92915050565b7f4e487b71000000000000000000000000000000000000000000000000000000005f52601260045260245ffd5b5f612af08261188f565b9150612afb8361188f565b925082612b0b57612b0a612ab9565b5b828206905092915050565b5f819050919050565b612b30612b2b8261188f565b612b16565b82525050565b5f612b418285612b1f565b602082019150612b518284612b1f565b602082019150819050939250505056fea264697066735822122041bcda3e18b0762384791019e04cc9b257b405143712a8a83c7649fc991733dd64736f6c634300081e0033","linkReferences":{}},"methodIdentifiers":{"DISPUTE_FEE()":"dc755e9d","JURORS_PER_DISPUTE()":"a47204b5","assignJurors(uint256)":"8101df6c","canAssignJurors(uint256)":"c51ad2a3","createDispute(string)":"68175996","disputeCounter()":"7d36f4d3","disputes(uint256)":"564a565d","getAssignedJurors(uint256)":"35b05ec1","getContractBalance()":"6f9fb98a","getDispute(uint256)":"e3a96cbd","getTotalDisputes()":"97fbc2fb","randomOracle()":"a224c198","registry()":"7b103999","resolveDispute(uint256)":"c2b7b868","voteContract()":"ee183c4a","withdrawFees(uint256)":"5e318e07"},"id":1}