{"abi":[{"type":"function","name":"getRandomValue","inputs":[{"name":"requestId","type":"uint256","internalType":"uint256"}],"outputs":[{"name":"randomValue","type":"uint256","internalType":"uint256"}],"stateMutability":"view"},{"type":"function","name":"isRequestFulfilled","inputs":[{"name":"requestId","type":"uint256","internalType":"uint256"}],"outputs":[{"name":"fulfilled","type":"bool","internalType":"bool"}],"stateMutability":"view"},{"type":"function","name":"requestRandomness","inputs":[],"outputs":[{"name":"requestId","type":"uint256","internalType":"uint256"}],"stateMutability":"nonpayable"},{"type":"function","name":"setRandomValue","inputs":[{"name":"requestId","type":"uint256","internalType":"uint256"},{"name":"randomValue","type":"uint256","internalType":"uint256"}],"outputs":[],"stateMutability":"nonpayable"},{"type":"event","name":"RandomnessFulfilled","inputs":[{"name":"requestId","type":"uint256","indexed":true,"internalType":"uint256"},{"name":"randomValue","type":"uint256","indexed":false,"internalType":"uint256"}],"anonymous":false},{"type":"event","name":"RandomnessRequested","inputs":[{"name":"requestId","type":"uint256","indexed":true,"internalType":"uint256"}],"anonymous":false}],"bytecode":{"object":"0x6080604052348015600e575f5ffd5b506105278061001c5f395ff3fe608060405234801561000f575f5ffd5b506004361061004a575f3560e01c806325e41da11461004e5780634191a15c1461007e578063ad44777b1461009a578063f8413b07146100ca575b5f5ffd5b610068600480360381019061006391906102d9565b6100e8565b6040516100759190610313565b60405180910390f35b6100986004803603810190610093919061032c565b61015e565b005b6100b460048036038101906100af91906102d9565b610235565b6040516100c19190610384565b60405180910390f35b6100d261025b565b6040516100df9190610313565b60405180910390f35b5f60015f8381526020019081526020015f205f9054906101000a900460ff16610146576040517f08c379a000000000000000000000000000000000000000000000000000000000815260040161013d906103f7565b60405180910390fd5b5f5f8381526020019081526020015f20549050919050565b60015f8381526020019081526020015f205f9054906101000a900460ff16156101bc576040517f08c379a00000000000000000000000000000000000000000000000000000000081526004016101b39061045f565b60405180910390fd5b805f5f8481526020019081526020015f20819055506001805f8481526020019081526020015f205f6101000a81548160ff021916908315150217905550817f546aca7b2683440b8f02fa95faeb8efc79dd0f16af3d815a002742ea6f76116c826040516102299190610313565b60405180910390a25050565b5f60015f8381526020019081526020015f205f9054906101000a900460ff169050919050565b5f60025f815461026a906104aa565b9190508190559050807f9ac10fb18c93d33ad7b0a941897aef048d0f8d30756684e82b4552ba12764d4560405160405180910390a290565b5f5ffd5b5f819050919050565b6102b8816102a6565b81146102c2575f5ffd5b50565b5f813590506102d3816102af565b92915050565b5f602082840312156102ee576102ed6102a2565b5b5f6102fb848285016102c5565b91505092915050565b61030d816102a6565b82525050565b5f6020820190506103265f830184610304565b92915050565b5f5f60408385031215610342576103416102a2565b5b5f61034f858286016102c5565b9250506020610360858286016102c5565b9150509250929050565b5f8115159050919050565b61037e8161036a565b82525050565b5f6020820190506103975f830184610375565b92915050565b5f82825260208201905092915050565b7f52657175657374206e6f742066756c66696c6c656400000000000000000000005f82015250565b5f6103e160158361039d565b91506103ec826103ad565b602082019050919050565b5f6020820190508181035f83015261040e816103d5565b9050919050565b7f5265717565737420616c72656164792066756c66696c6c6564000000000000005f82015250565b5f61044960198361039d565b915061045482610415565b602082019050919050565b5f6020820190508181035f8301526104768161043d565b9050919050565b7f4e487b71000000000000000000000000000000000000000000000000000000005f52601160045260245ffd5b5f6104b4826102a6565b91507fffffffffffffffffffffffffffffffffffffffffffffffffffffffffffffffff82036104e6576104e561047d565b5b60018201905091905056fea2646970667358221220efcd137310f402031a7fe9be2bb11a163acc5dd7d17ecc8991ffcb50c34ff79064736f6c634300081e0033","linkReferences":{}},"methodIdentifiers":{"getRandomValue(uint256)":"25e41da1","isRequestFulfilled(uint256)":"ad44777b","requestRandomness()":"f8413b07","setRandomValue(uint256,uint256)":"4191a15c"},"id":0}