{"abi":[{"type":"function","name":"getRandomValue","inputs":[{"name":"requestId","type":"uint256","internalType":"uint256"}],"outputs":[{"name":"randomValue","type":"uint256","internalType":"uint256"}],"stateMutability":"view"},{"type":"function","name":"isRequestFulfilled","inputs":[{"name":"requestId","type":"uint256","internalType":"uint256"}],"outputs":[{"name":"fulfilled","type":"bool","internalType":"bool"}],"stateMutability":"view"},{"type":"function","name":"requestRandomness","inputs":[],"outputs":[{"name":"requestId","type":"uint256","internalType":"uint256"}],"stateMutability":"nonpayable"},{"type":"function","name":"setRandomValue","inputs":[{"name":"requestId","type":"uint256","internalType":"uint256"},{"name":"randomValue","type":"uint256","internalType":"uint256"}],"outputs":[],"stateMutability":"nonpayable"},{"type":"event","name":"RandomnessFulfilled","inputs":[{"name":"requestId","type":"uint256","indexed":true,"internalType":"uint256"},{"name":"randomValue","type":"uint256","indexed":false,"internalType":"uint256"}],"anonymous":false},{"type":"event","name":"RandomnessRequested","inputs":[{"name":"requestId","type":"uint256","indexed":true,"internalType":"uint256"}],"anonymous":false}],"bytecode":{"object":"0x608060405234801561001057600080fd5b506102d0806100206000396000f3fe608060405234801561001057600080fd5b506004361061004c5760003560e01c806325e41da1146100515780634191a15c14610077578063ad44777b1461008c578063f8413b07146100bf575b600080fd5b61006461005f366004610238565b6100c7565b6040519081526020015b60405180910390f35b61008a610085366004610251565b610135565b005b6100af61009a366004610238565b60009081526001602052604090205460ff1690565b604051901515815260200161006e565b6100646101f1565b60008181526001602052604081205460ff166101225760405162461bcd60e51b815260206004820152601560248201527414995c5d595cdd081b9bdd08199d5b199a5b1b1959605a1b60448201526064015b60405180910390fd5b5060009081526020819052604090205490565b60008281526001602052604090205460ff16156101945760405162461bcd60e51b815260206004820152601960248201527f5265717565737420616c72656164792066756c66696c6c6564000000000000006044820152606401610119565b600082815260208181526040808320849055600180835292819020805460ff1916909317909255905182815283917f546aca7b2683440b8f02fa95faeb8efc79dd0f16af3d815a002742ea6f76116c910160405180910390a25050565b600060026000815461020290610273565b918290555060405190915081907f9ac10fb18c93d33ad7b0a941897aef048d0f8d30756684e82b4552ba12764d4590600090a290565b60006020828403121561024a57600080fd5b5035919050565b6000806040838503121561026457600080fd5b50508035926020909101359150565b60006001820161029357634e487b7160e01b600052601160045260246000fd5b506001019056fea2646970667358221220b6dfbd73a82299e3b230f4d3f2f80b24f317ae36b1aab64181699e86e2f3c7d064736f6c63430008130033","linkReferences":{}},"methodIdentifiers":{"getRandomValue(uint256)":"25e41da1","isRequestFulfilled(uint256)":"ad44777b","requestRandomness()":"f8413b07","setRandomValue(uint256,uint256)":"4191a15c"},"id":0}