{"abi":[{"type":"constructor","inputs":[{"name":"_registry","type":"address","internalType":"address"}],"stateMutability":"nonpayable"},{"type":"function","name":"VOTING_PERIOD","inputs":[],"outputs":[{"name":"","type":"uint256","internalType":"uint256"}],"stateMutability":"view"},{"type":"function","name":"castVote","inputs":[{"name":"disputeId","type":"uint256","internalType":"uint256"},{"name":"choice","type":"uint8","internalType":"enum QJuryVote.VoteChoice"}],"outputs":[],"stateMutability":"nonpayable"},{"type":"function","name":"closeVoting","inputs":[{"name":"disputeId","type":"uint256","internalType":"uint256"}],"outputs":[],"stateMutability":"nonpayable"},{"type":"function","name":"disputeVotings","inputs":[{"name":"","type":"uint256","internalType":"uint256"}],"outputs":[{"name":"disputeId","type":"uint256","internalType":"uint256"},{"name":"votingDeadline","type":"uint256","internalType":"uint256"},{"name":"isVotingClosed","type":"bool","internalType":"bool"},{"name":"majorityChoice","type":"uint8","internalType":"enum QJuryVote.VoteChoice"},{"name":"supportVotes","type":"uint256","internalType":"uint256"},{"name":"againstVotes","type":"uint256","internalType":"uint256"},{"name":"abstainVotes","type":"uint256","internalType":"uint256"}],"stateMutability":"view"},{"type":"function","name":"getAssignedJurors","inputs":[{"name":"disputeId","type":"uint256","internalType":"uint256"}],"outputs":[{"name":"","type":"address[]","internalType":"address[]"}],"stateMutability":"view"},{"type":"function","name":"getDisputeVotes","inputs":[{"name":"disputeId","type":"uint256","internalType":"uint256"}],"outputs":[{"name":"","type":"tuple[]","internalType":"struct QJuryVote.Vote[]","components":[{"name":"juror","type":"address","internalType":"address"},{"name":"choice","type":"uint8","internalType":"enum QJuryVote.VoteChoice"},{"name":"timestamp","type":"uint256","internalType":"uint256"}]}],"stateMutability":"view"},{"type":"function","name":"getDisputeVoting","inputs":[{"name":"disputeId","type":"uint256","internalType":"uint256"}],"outputs":[{"name":"assignedJurors","type":"address[]","internalType":"address[]"},{"name":"votingDeadline","type":"uint256","internalType":"uint256"},{"name":"isVotingClosed","type":"bool","internalType":"bool"},{"name":"majorityChoice","type":"uint8","internalType":"enum QJuryVote.VoteChoice"},{"name":"supportVotes","type":"uint256","internalType":"uint256"},{"name":"againstVotes","type":"uint256","internalType":"uint256"},{"name":"abstainVotes","type":"uint256","internalType":"uint256"}],"stateMutability":"view"},{"type":"function","name":"getJurorVote","inputs":[{"name":"disputeId","type":"uint256","internalType":"uint256"},{"name":"juror","type":"address","internalType":"address"}],"outputs":[{"name":"","type":"uint8","internalType":"enum QJuryVote.VoteChoice"}],"stateMutability":"view"},{"type":"function","name":"hasJurorVoted","inputs":[{"name":"disputeId","type":"uint256","internalType":"uint256"},{"name":"juror","type":"address","internalType":"address"}],"outputs":[{"name":"","type":"bool","internalType":"bool"}],"stateMutability":"view"},{"type":"function","name":"isJurorAssigned","inputs":[{"name":"disputeId","type":"uint256","internalType":"uint256"},{"name":"juror","type":"address","internalType":"address"}],"outputs":[{"name":"","type":"bool","internalType":"bool"}],"stateMutability":"view"},{"type":"function","name":"registry","inputs":[],"outputs":[{"name":"","type":"address","internalType":"contract QJuryRegistry"}],"stateMutability":"view"},{"type":"function","name":"startVoting","inputs":[{"name":"disputeId","type":"uint256","internalType":"uint256"},{"name":"assignedJurors","type":"address[]","internalType":"address[]"}],"outputs":[],"stateMutability":"nonpayable"},{"type":"event","name":"VoteCast","inputs":[{"name":"disputeId","type":"uint256","indexed":true,"internalType":"uint256"},{"name":"juror","type":"address","indexed":true,"internalType":"address"},{"name":"choice","type":"uint8","indexed":false,"internalType":"enum QJuryVote.VoteChoice"}],"anonymous":false},{"type":"event","name":"VotingClosed","inputs":[{"name":"disputeId","type":"uint256","indexed":true,"internalType":"uint256"},{"name":"majorityChoice","type":"uint8","indexed":false,"internalType":"enum QJuryVote.VoteChoice"}],"anonymous":false},{"type":"event","name":"VotingStarted","inputs":[{"name":"disputeId","type":"uint256","indexed":true,"internalType":"uint256"},{"name":"assignedJurors","type":"address[]","indexed":false,"internalType":"address[]"},{"name":"deadline","type":"uint256","indexed":false,"internalType":"uint256"}],"anonymous":false}],"bytecode":{"object":"0x60a060405234801561000f575f5ffd5b5060405161204a38038061204a833981810160405281019061003191906100c9565b8073ffffffffffffffffffffffffffffffffffffffff1660808173ffffffffffffffffffffffffffffffffffffffff1681525050506100f4565b5f5ffd5b5f73ffffffffffffffffffffffffffffffffffffffff82169050919050565b5f6100988261006f565b9050919050565b6100a88161008e565b81146100b2575f5ffd5b50565b5f815190506100c38161009f565b92915050565b5f602082840312156100de576100dd61006b565b5b5f6100eb848285016100b5565b91505092915050565b608051611f376101135f395f81816105ff0152610c850152611f375ff3fe608060405234801561000f575f5ffd5b50600436106100b2575f3560e01c80636fc880221161006f5780636fc88022146101ae5780637b103999146101e4578063b1610d7e14610202578063c1f9fb8714610220578063c473609214610256578063d2111a7214610286576100b2565b80630661f7cc146100b657806320c7a055146100d257806335b05ec1146101025780633af7f4f71461013257806356781388146101625780636c8dc2881461017e575b5f5ffd5b6100d060048036038101906100cb9190611246565b6102a2565b005b6100ec60048036038101906100e791906112fd565b6103e2565b6040516100f99190611355565b60405180910390f35b61011c6004803603810190610117919061136e565b6104fa565b6040516101299190611450565b60405180910390f35b61014c600480360381019061014791906112fd565b610598565b60405161015991906114e3565b60405180910390f35b61017c6004803603810190610177919061151f565b6105fc565b005b610198600480360381019061019391906112fd565b610bc9565b6040516101a59190611355565b60405180910390f35b6101c860048036038101906101c3919061136e565b610c2d565b6040516101db979695949392919061156c565b60405180910390f35b6101ec610c83565b6040516101f99190611634565b60405180910390f35b61020a610ca7565b604051610217919061164d565b60405180910390f35b61023a6004803603810190610235919061136e565b610cae565b60405161024d9796959493929190611666565b60405180910390f35b610270600480360381019061026b919061136e565b610da3565b60405161027d91906117e0565b60405180910390f35b6102a0600480360381019061029b919061136e565b610eaa565b005b5f5f5f8581526020019081526020015f205f0154146102f6576040517f08c379a00000000000000000000000000000000000000000000000000000000081526004016102ed90611880565b60405180910390fd5b5f828290501161033b576040517f08c379a0000000000000000000000000000000000000000000000000000000008152600401610332906118e8565b60405180910390fd5b5f5f5f8581526020019081526020015f20905083815f018190555082828260010191906103699291906110f2565b506203f480426103799190611933565b81600501819055505f816006015f6101000a81548160ff021916908315150217905550837f1c419a48600dd3b1090b0fadb3ffd3160c4cd75e343fa319486b5f79290de8bb848484600501546040516103d4939291906119ec565b60405180910390a250505050565b5f5f5f5f8581526020019081526020015f2060010180548060200260200160405190810160405280929190818152602001828054801561047457602002820191905f5260205f20905b815f9054906101000a900473ffffffffffffffffffffffffffffffffffffffff1673ffffffffffffffffffffffffffffffffffffffff168152602001906001019080831161042b575b505050505090505f5f90505b81518110156104ee578373ffffffffffffffffffffffffffffffffffffffff168282815181106104b3576104b2611a1c565b5b602002602001015173ffffffffffffffffffffffffffffffffffffffff16036104e1576001925050506104f4565b8080600101915050610480565b505f9150505b92915050565b60605f5f8381526020019081526020015f2060010180548060200260200160405190810160405280929190818152602001828054801561058c57602002820191905f5260205f20905b815f9054906101000a900473ffffffffffffffffffffffffffffffffffffffff1673ffffffffffffffffffffffffffffffffffffffff1681526020019060010190808311610543575b50505050509050919050565b5f5f5f8481526020019081526020015f206003015f8373ffffffffffffffffffffffffffffffffffffffff1673ffffffffffffffffffffffffffffffffffffffff1681526020019081526020015f205f9054906101000a900460ff16905092915050565b817f000000000000000000000000000000000000000000000000000000000000000073ffffffffffffffffffffffffffffffffffffffff1663ec80bdea336040518263ffffffff1660e01b81526004016106569190611a58565b602060405180830381865afa158015610671573d5f5f3e3d5ffd5b505050506040513d601f19601f820116820180604052508101906106959190611a9b565b6106d4576040517f08c379a00000000000000000000000000000000000000000000000000000000081526004016106cb90611b10565b60405180910390fd5b6106de81336103e2565b61071d576040517f08c379a000000000000000000000000000000000000000000000000000000000815260040161071490611b9e565b60405180910390fd5b825f5f8281526020019081526020015f206006015f9054906101000a900460ff161561077e576040517f08c379a000000000000000000000000000000000000000000000000000000000815260040161077590611c06565b60405180910390fd5b5f5f8281526020019081526020015f20600501544211156107d4576040517f08c379a00000000000000000000000000000000000000000000000000000000081526004016107cb90611c6e565b60405180910390fd5b5f5f8581526020019081526020015f206002015f3373ffffffffffffffffffffffffffffffffffffffff1673ffffffffffffffffffffffffffffffffffffffff1681526020019081526020015f205f9054906101000a900460ff161561086f576040517f08c379a000000000000000000000000000000000000000000000000000000000815260040161086690611cd6565b60405180910390fd5b5f600281111561088257610881611470565b5b83600281111561089557610894611470565b5b1415806108c557505f60028111156108b0576108af611470565b5b8360028111156108c3576108c2611470565b5b145b610904576040517f08c379a00000000000000000000000000000000000000000000000000000000081526004016108fb90611d3e565b60405180910390fd5b5f5f5f8681526020019081526020015f2090506001816002015f3373ffffffffffffffffffffffffffffffffffffffff1673ffffffffffffffffffffffffffffffffffffffff1681526020019081526020015f205f6101000a81548160ff02191690831515021790555083816003015f3373ffffffffffffffffffffffffffffffffffffffff1673ffffffffffffffffffffffffffffffffffffffff1681526020019081526020015f205f6101000a81548160ff021916908360028111156109cf576109ce611470565b5b02179055505f60405180606001604052803373ffffffffffffffffffffffffffffffffffffffff168152602001866002811115610a0f57610a0e611470565b5b81526020014281525090508160040181908060018154018082558091505060019003905f5260205f2090600202015f909190919091505f820151815f015f6101000a81548173ffffffffffffffffffffffffffffffffffffffff021916908373ffffffffffffffffffffffffffffffffffffffff1602179055506020820151815f0160146101000a81548160ff02191690836002811115610ab357610ab2611470565b5b021790555060408201518160010155505060016002811115610ad857610ad7611470565b5b856002811115610aeb57610aea611470565b5b03610b0e57816007015f815480929190610b0490611d5c565b9190505550610b72565b600280811115610b2157610b20611470565b5b856002811115610b3457610b33611470565b5b03610b5757816008015f815480929190610b4d90611d5c565b9190505550610b71565b816009015f815480929190610b6b90611d5c565b91905055505b5b3373ffffffffffffffffffffffffffffffffffffffff16867feba4866100b822f0f391e610e7edfab790b9e8766c0012733c26b2f1858e8dd787604051610bb991906114e3565b60405180910390a3505050505050565b5f5f5f8481526020019081526020015f206002015f8373ffffffffffffffffffffffffffffffffffffffff1673ffffffffffffffffffffffffffffffffffffffff1681526020019081526020015f205f9054906101000a900460ff16905092915050565b5f602052805f5260405f205f91509050805f015490806005015490806006015f9054906101000a900460ff16908060060160019054906101000a900460ff16908060070154908060080154908060090154905087565b7f000000000000000000000000000000000000000000000000000000000000000081565b6203f48081565b60605f5f5f5f5f5f5f5f5f8a81526020019081526020015f209050806001018160050154826006015f9054906101000a900460ff168360060160019054906101000a900460ff1684600701548560080154866009015486805480602002602001604051908101604052809291908181526020018280548015610d8257602002820191905f5260205f20905b815f9054906101000a900473ffffffffffffffffffffffffffffffffffffffff1673ffffffffffffffffffffffffffffffffffffffff1681526020019060010190808311610d39575b50505050509650975097509750975097509750975050919395979092949650565b60605f5f8381526020019081526020015f20600401805480602002602001604051908101604052809291908181526020015f905b82821015610e9f578382905f5260205f2090600202016040518060600160405290815f82015f9054906101000a900473ffffffffffffffffffffffffffffffffffffffff1673ffffffffffffffffffffffffffffffffffffffff1673ffffffffffffffffffffffffffffffffffffffff1681526020015f820160149054906101000a900460ff166002811115610e7057610e6f611470565b5b6002811115610e8257610e81611470565b5b815260200160018201548152505081526020019060010190610dd7565b505050509050919050565b5f5f5f8381526020019081526020015f2090505f815f015403610f02576040517f08c379a0000000000000000000000000000000000000000000000000000000008152600401610ef990611ded565b60405180910390fd5b806006015f9054906101000a900460ff1615610f53576040517f08c379a0000000000000000000000000000000000000000000000000000000008152600401610f4a90611e55565b60405180910390fd5b8060050154421180610f72575080600101805490508160040180549050145b610fb1576040517f08c379a0000000000000000000000000000000000000000000000000000000008152600401610fa890611ee3565b60405180910390fd5b6001816006015f6101000a81548160ff02191690831515021790555080600801548160070154118015610feb575080600901548160070154115b156110225760018160060160016101000a81548160ff0219169083600281111561101857611017611470565b5b02179055506110a5565b80600701548160080154118015611040575080600901548160080154115b156110775760028160060160016101000a81548160ff0219169083600281111561106d5761106c611470565b5b02179055506110a4565b5f8160060160016101000a81548160ff0219169083600281111561109e5761109d611470565b5b02179055505b5b817f28b816828ce547a73487d3a898980617c5a174b7bef92213b26569338263771f8260060160019054906101000a900460ff166040516110e691906114e3565b60405180910390a25050565b828054828255905f5260205f2090810192821561117e579160200282015b8281111561117d57823573ffffffffffffffffffffffffffffffffffffffff16825f6101000a81548173ffffffffffffffffffffffffffffffffffffffff021916908373ffffffffffffffffffffffffffffffffffffffff16021790555091602001919060010190611110565b5b50905061118b919061118f565b5090565b5b808211156111a6575f815f905550600101611190565b5090565b5f5ffd5b5f5ffd5b5f819050919050565b6111c4816111b2565b81146111ce575f5ffd5b50565b5f813590506111df816111bb565b92915050565b5f5ffd5b5f5ffd5b5f5ffd5b5f5f83601f840112611206576112056111e5565b5b8235905067ffffffffffffffff811115611223576112226111e9565b5b60208301915083602082028301111561123f5761123e6111ed565b5b9250929050565b5f5f5f6040848603121561125d5761125c6111aa565b5b5f61126a868287016111d1565b935050602084013567ffffffffffffffff81111561128b5761128a6111ae565b5b611297868287016111f1565b92509250509250925092565b5f73ffffffffffffffffffffffffffffffffffffffff82169050919050565b5f6112cc826112a3565b9050919050565b6112dc816112c2565b81146112e6575f5ffd5b50565b5f813590506112f7816112d3565b92915050565b5f5f60408385031215611313576113126111aa565b5b5f611320858286016111d1565b9250506020611331858286016112e9565b9150509250929050565b5f8115159050919050565b61134f8161133b565b82525050565b5f6020820190506113685f830184611346565b92915050565b5f60208284031215611383576113826111aa565b5b5f611390848285016111d1565b91505092915050565b5f81519050919050565b5f82825260208201905092915050565b5f819050602082019050919050565b6113cb816112c2565b82525050565b5f6113dc83836113c2565b60208301905092915050565b5f602082019050919050565b5f6113fe82611399565b61140881856113a3565b9350611413836113b3565b805f5b8381101561144357815161142a88826113d1565b9750611435836113e8565b925050600181019050611416565b5085935050505092915050565b5f6020820190508181035f83015261146881846113f4565b905092915050565b7f4e487b71000000000000000000000000000000000000000000000000000000005f52602160045260245ffd5b600381106114ae576114ad611470565b5b50565b5f8190506114be8261149d565b919050565b5f6114cd826114b1565b9050919050565b6114dd816114c3565b82525050565b5f6020820190506114f65f8301846114d4565b92915050565b60038110611508575f5ffd5b50565b5f81359050611519816114fc565b92915050565b5f5f60408385031215611535576115346111aa565b5b5f611542858286016111d1565b92505060206115538582860161150b565b9150509250929050565b611566816111b2565b82525050565b5f60e08201905061157f5f83018a61155d565b61158c602083018961155d565b6115996040830188611346565b6115a660608301876114d4565b6115b3608083018661155d565b6115c060a083018561155d565b6115cd60c083018461155d565b98975050505050505050565b5f819050919050565b5f6115fc6115f76115f2846112a3565b6115d9565b6112a3565b9050919050565b5f61160d826115e2565b9050919050565b5f61161e82611603565b9050919050565b61162e81611614565b82525050565b5f6020820190506116475f830184611625565b92915050565b5f6020820190506116605f83018461155d565b92915050565b5f60e0820190508181035f83015261167e818a6113f4565b905061168d602083018961155d565b61169a6040830188611346565b6116a760608301876114d4565b6116b4608083018661155d565b6116c160a083018561155d565b6116ce60c083018461155d565b98975050505050505050565b5f81519050919050565b5f82825260208201905092915050565b5f819050602082019050919050565b61170c816114c3565b82525050565b61171b816111b2565b82525050565b606082015f8201516117355f8501826113c2565b5060208201516117486020850182611703565b50604082015161175b6040850182611712565b50505050565b5f61176c8383611721565b60608301905092915050565b5f602082019050919050565b5f61178e826116da565b61179881856116e4565b93506117a3836116f4565b805f5b838110156117d35781516117ba8882611761565b97506117c583611778565b9250506001810190506117a6565b5085935050505092915050565b5f6020820190508181035f8301526117f88184611784565b905092915050565b5f82825260208201905092915050565b7f566f74696e6720616c7265616479207374617274656420666f722074686973205f8201527f6469737075746500000000000000000000000000000000000000000000000000602082015250565b5f61186a602783611800565b915061187582611810565b604082019050919050565b5f6020820190508181035f8301526118978161185e565b9050919050565b7f4e6f206a75726f72732061737369676e656400000000000000000000000000005f82015250565b5f6118d2601283611800565b91506118dd8261189e565b602082019050919050565b5f6020820190508181035f8301526118ff816118c6565b9050919050565b7f4e487b71000000000000000000000000000000000000000000000000000000005f52601160045260245ffd5b5f61193d826111b2565b9150611948836111b2565b92508282019050808211156119605761195f611906565b5b92915050565b5f819050919050565b5f61197d60208401846112e9565b905092915050565b5f602082019050919050565b5f61199c83856113a3565b93506119a782611966565b805f5b858110156119df576119bc828461196f565b6119c688826113d1565b97506119d183611985565b9250506001810190506119aa565b5085925050509392505050565b5f6040820190508181035f830152611a05818587611991565b9050611a14602083018461155d565b949350505050565b7f4e487b71000000000000000000000000000000000000000000000000000000005f52603260045260245ffd5b611a52816112c2565b82525050565b5f602082019050611a6b5f830184611a49565b92915050565b611a7a8161133b565b8114611a84575f5ffd5b50565b5f81519050611a9581611a71565b92915050565b5f60208284031215611ab057611aaf6111aa565b5b5f611abd84828501611a87565b91505092915050565b7f4e6f7420616e20656c696769626c65206a75726f7200000000000000000000005f82015250565b5f611afa601583611800565b9150611b0582611ac6565b602082019050919050565b5f6020820190508181035f830152611b2781611aee565b9050919050565b7f4a75726f72206e6f742061737369676e656420746f20746869732064697370755f8201527f7465000000000000000000000000000000000000000000000000000000000000602082015250565b5f611b88602283611800565b9150611b9382611b2e565b604082019050919050565b5f6020820190508181035f830152611bb581611b7c565b9050919050565b7f566f74696e6720697320636c6f736564000000000000000000000000000000005f82015250565b5f611bf0601083611800565b9150611bfb82611bbc565b602082019050919050565b5f6020820190508181035f830152611c1d81611be4565b9050919050565b7f566f74696e6720706572696f64206578706972656400000000000000000000005f82015250565b5f611c58601583611800565b9150611c6382611c24565b602082019050919050565b5f6020820190508181035f830152611c8581611c4c565b9050919050565b7f416c726561647920766f746564000000000000000000000000000000000000005f82015250565b5f611cc0600d83611800565b9150611ccb82611c8c565b602082019050919050565b5f6020820190508181035f830152611ced81611cb4565b9050919050565b7f496e76616c696420766f74652063686f696365000000000000000000000000005f82015250565b5f611d28601383611800565b9150611d3382611cf4565b602082019050919050565b5f6020820190508181035f830152611d5581611d1c565b9050919050565b5f611d66826111b2565b91507fffffffffffffffffffffffffffffffffffffffffffffffffffffffffffffffff8203611d9857611d97611906565b5b600182019050919050565b7f566f74696e67206e6f74207374617274656400000000000000000000000000005f82015250565b5f611dd7601283611800565b9150611de282611da3565b602082019050919050565b5f6020820190508181035f830152611e0481611dcb565b9050919050565b7f566f74696e6720616c726561647920636c6f73656400000000000000000000005f82015250565b5f611e3f601583611800565b9150611e4a82611e0b565b602082019050919050565b5f6020820190508181035f830152611e6c81611e33565b9050919050565b7f566f74696e6720706572696f64206e6f7420656e64656420616e64206e6f74205f8201527f616c6c20766f7465732063617374000000000000000000000000000000000000602082015250565b5f611ecd602e83611800565b9150611ed882611e73565b604082019050919050565b5f6020820190508181035f830152611efa81611ec1565b905091905056fea2646970667358221220c733d13b6bc8a4f862e6710454b73a44a06267001ec6cad0e486c60b016b600464736f6c634300081e0033","linkReferences":{}},"methodIdentifiers":{"VOTING_PERIOD()":"b1610d7e","castVote(uint256,uint8)":"56781388","closeVoting(uint256)":"d2111a72","disputeVotings(uint256)":"6fc88022","getAssignedJurors(uint256)":"35b05ec1","getDisputeVotes(uint256)":"c4736092","getDisputeVoting(uint256)":"c1f9fb87","getJurorVote(uint256,address)":"3af7f4f7","hasJurorVoted(uint256,address)":"6c8dc288","isJurorAssigned(uint256,address)":"20c7a055","registry()":"7b103999","startVoting(uint256,address[])":"0661f7cc"},"id":4}