{"abi":[{"type":"constructor","inputs":[{"name":"_registry","type":"address","internalType":"address"}],"stateMutability":"nonpayable"},{"type":"function","name":"VOTING_PERIOD","inputs":[],"outputs":[{"name":"","type":"uint256","internalType":"uint256"}],"stateMutability":"view"},{"type":"function","name":"castVote","inputs":[{"name":"disputeId","type":"uint256","internalType":"uint256"},{"name":"choice","type":"uint8","internalType":"enum QJuryVote.VoteChoice"}],"outputs":[],"stateMutability":"nonpayable"},{"type":"function","name":"closeVoting","inputs":[{"name":"disputeId","type":"uint256","internalType":"uint256"}],"outputs":[],"stateMutability":"nonpayable"},{"type":"function","name":"disputeVotings","inputs":[{"name":"","type":"uint256","internalType":"uint256"}],"outputs":[{"name":"disputeId","type":"uint256","internalType":"uint256"},{"name":"votingDeadline","type":"uint256","internalType":"uint256"},{"name":"isVotingClosed","type":"bool","internalType":"bool"},{"name":"majorityChoice","type":"uint8","internalType":"enum QJuryVote.VoteChoice"},{"name":"supportVotes","type":"uint256","internalType":"uint256"},{"name":"againstVotes","type":"uint256","internalType":"uint256"},{"name":"abstainVotes","type":"uint256","internalType":"uint256"}],"stateMutability":"view"},{"type":"function","name":"getAssignedJurors","inputs":[{"name":"disputeId","type":"uint256","internalType":"uint256"}],"outputs":[{"name":"","type":"address[]","internalType":"address[]"}],"stateMutability":"view"},{"type":"function","name":"getDisputeVotes","inputs":[{"name":"disputeId","type":"uint256","internalType":"uint256"}],"outputs":[{"name":"","type":"tuple[]","internalType":"struct QJuryVote.Vote[]","components":[{"name":"juror","type":"address","internalType":"address"},{"name":"choice","type":"uint8","internalType":"enum QJuryVote.VoteChoice"},{"name":"timestamp","type":"uint256","internalType":"uint256"}]}],"stateMutability":"view"},{"type":"function","name":"getDisputeVoting","inputs":[{"name":"disputeId","type":"uint256","internalType":"uint256"}],"outputs":[{"name":"assignedJurors","type":"address[]","internalType":"address[]"},{"name":"votingDeadline","type":"uint256","internalType":"uint256"},{"name":"isVotingClosed","type":"bool","internalType":"bool"},{"name":"majorityChoice","type":"uint8","internalType":"enum QJuryVote.VoteChoice"},{"name":"supportVotes","type":"uint256","internalType":"uint256"},{"name":"againstVotes","type":"uint256","internalType":"uint256"},{"name":"abstainVotes","type":"uint256","internalType":"uint256"}],"stateMutability":"view"},{"type":"function","name":"getJurorVote","inputs":[{"name":"disputeId","type":"uint256","internalType":"uint256"},{"name":"juror","type":"address","internalType":"address"}],"outputs":[{"name":"","type":"uint8","internalType":"enum QJuryVote.VoteChoice"}],"stateMutability":"view"},{"type":"function","name":"hasJurorVoted","inputs":[{"name":"disputeId","type":"uint256","internalType":"uint256"},{"name":"juror","type":"address","internalType":"address"}],"outputs":[{"name":"","type":"bool","internalType":"bool"}],"stateMutability":"view"},{"type":"function","name":"isJurorAssigned","inputs":[{"name":"disputeId","type":"uint256","internalType":"uint256"},{"name":"juror","type":"address","internalType":"address"}],"outputs":[{"name":"","type":"bool","internalType":"bool"}],"stateMutability":"view"},{"type":"function","name":"registry","inputs":[],"outputs":[{"name":"","type":"address","internalType":"contract QJuryRegistry"}],"stateMutability":"view"},{"type":"function","name":"startVoting","inputs":[{"name":"disputeId","type":"uint256","internalType":"uint256"},{"name":"assignedJurors","type":"address[]","internalType":"address[]"}],"outputs":[],"stateMutability":"nonpayable"},{"type":"event","name":"VoteCast","inputs":[{"name":"disputeId","type":"uint256","indexed":true,"internalType":"uint256"},{"name":"juror","type":"address","indexed":true,"internalType":"address"},{"name":"choice","type":"uint8","indexed":false,"internalType":"enum QJuryVote.VoteChoice"}],"anonymous":false},{"type":"event","name":"VotingClosed","inputs":[{"name":"disputeId","type":"uint256","indexed":true,"internalType":"uint256"},{"name":"majorityChoice","type":"uint8","indexed":false,"internalType":"enum QJuryVote.VoteChoice"}],"anonymous":false},{"type":"event","name":"VotingStarted","inputs":[{"name":"disputeId","type":"uint256","indexed":true,"internalType":"uint256"},{"name":"assignedJurors","type":"address[]","indexed":false,"internalType":"address[]"},{"name":"deadline","type":"uint256","indexed":false,"internalType":"uint256"}],"anonymous":false}],"bytecode":{"object":"0x60a060405234801561001057600080fd5b506040516111ce3803806111ce83398101604081905261002f91610040565b6001600160a01b0316608052610070565b60006020828403121561005257600080fd5b81516001600160a01b038116811461006957600080fd5b9392505050565b60805161113c610092600039600081816102120152610544015261113c6000f3fe608060405234801561001057600080fd5b50600436106100b45760003560e01c80636fc88022116100715780636fc88022146101ac5780637b1039991461020d578063b1610d7e1461024c578063c1f9fb8714610264578063c47360921461028a578063d2111a72146102aa57600080fd5b80630661f7cc146100b957806320c7a055146100ce57806335b05ec1146100f65780633af7f4f714610116578063567813881461015e5780636c8dc28814610171575b600080fd5b6100cc6100c7366004610da4565b6102bd565b005b6100e16100dc366004610e3f565b6103f3565b60405190151581526020015b60405180910390f35b610109610104366004610e6b565b6104c0565b6040516100ed9190610ec8565b610151610124366004610e3f565b6000828152602081815260408083206001600160a01b038516845260030190915290205460ff1692915050565b6040516100ed9190610f1a565b6100cc61016c366004610f28565b61052d565b6100e161017f366004610e3f565b6000828152602081815260408083206001600160a01b038516845260020190915290205460ff1692915050565b6101fa6101ba366004610e6b565b6000602081905290815260409020805460058201546006830154600784015460088501546009909501549394929360ff8084169461010090940416929087565b6040516100ed9796959493929190610f5c565b6102347f000000000000000000000000000000000000000000000000000000000000000081565b6040516001600160a01b0390911681526020016100ed565b6102566203f48081565b6040519081526020016100ed565b610277610272366004610e6b565b6109ad565b6040516100ed9796959493929190610f9d565b61029d610298366004610e6b565b610a6e565b6040516100ed9190610fcd565b6100cc6102b8366004610e6b565b610b2c565b6000838152602081905260409020541561032e5760405162461bcd60e51b815260206004820152602760248201527f566f74696e6720616c7265616479207374617274656420666f722074686973206044820152666469737075746560c81b60648201526084015b60405180910390fd5b806103705760405162461bcd60e51b8152602060048201526012602482015271139bc81a9d5c9bdc9cc8185cdcda59db995960721b6044820152606401610325565b600083815260208190526040902083815561038f600182018484610d2c565b5061039d6203f4804261104e565b6005820181905560068201805460ff1916905560405185917f1c419a48600dd3b1090b0fadb3ffd3160c4cd75e343fa319486b5f79290de8bb916103e5918791879190611061565b60405180910390a250505050565b6000828152602081815260408083206001018054825181850281018501909352808352849383018282801561045157602002820191906000526020600020905b81546001600160a01b03168152600190910190602001808311610433575b5050505050905060005b81518110156104b357836001600160a01b0316828281518110610480576104806110b5565b60200260200101516001600160a01b0316036104a1576001925050506104ba565b806104ab816110cb565b91505061045b565b5060009150505b92915050565b6000818152602081815260409182902060010180548351818402810184019094528084526060939283018282801561052157602002820191906000526020600020905b81546001600160a01b03168152600190910190602001808311610503575b50505050509050919050565b6040516376405ef560e11b815233600482015282907f00000000000000000000000000000000000000000000000000000000000000006001600160a01b03169063ec80bdea90602401602060405180830381865afa158015610593573d6000803e3d6000fd5b505050506040513d601f19601f820116820180604052508101906105b791906110e4565b6105fb5760405162461bcd60e51b81526020600482015260156024820152742737ba1030b71032b634b3b4b1363290353ab937b960591b6044820152606401610325565b61060581336103f3565b61065c5760405162461bcd60e51b815260206004820152602260248201527f4a75726f72206e6f742061737369676e656420746f2074686973206469737075604482015261746560f01b6064820152608401610325565b600083815260208190526040902060060154839060ff16156106b35760405162461bcd60e51b815260206004820152601060248201526f159bdd1a5b99c81a5cc818db1bdcd95960821b6044820152606401610325565b60008181526020819052604090206005015442111561070c5760405162461bcd60e51b8152602060048201526015602482015274159bdd1a5b99c81c195c9a5bd908195e1c1a5c9959605a1b6044820152606401610325565b60008481526020818152604080832033845260020190915290205460ff16156107675760405162461bcd60e51b815260206004820152600d60248201526c105b1c9958591e481d9bdd1959609a1b6044820152606401610325565b600083600281111561077b5761077b610ee2565b1415806107995750600083600281111561079757610797610ee2565b145b6107db5760405162461bcd60e51b8152602060048201526013602482015272496e76616c696420766f74652063686f69636560681b6044820152606401610325565b600084815260208181526040808320338452600280820184528285208054600160ff19918216811790925560038401909552929094208054919488949193929091169190849081111561083057610830610ee2565b021790555060006040518060600160405280336001600160a01b0316815260200186600281111561086357610863610ee2565b8152426020918201526004840180546001810182556000918252908290208351600292830290910180546001600160a01b039092166001600160a01b03198316811782559385015194955085949093909284926001600160a81b03191690911790600160a01b9084908111156108db576108db610ee2565b0217905550604091909101516001918201558560028111156108ff576108ff610ee2565b0361092057600782018054906000610916836110cb565b9190505550610963565b600285600281111561093457610934610ee2565b0361094b57600882018054906000610916836110cb565b60098201805490600061095d836110cb565b91905055505b336001600160a01b0316867feba4866100b822f0f391e610e7edfab790b9e8766c0012733c26b2f1858e8dd78760405161099d9190610f1a565b60405180910390a3505050505050565b600081815260208181526040808320600581015460068201546007830154600884015460098501546001860180548851818b0281018b0190995280895260609a998a998a998a998a998a9992989697919660ff8083169761010090930416959394909390918991830182828015610a4d57602002820191906000526020600020905b81546001600160a01b03168152600190910190602001808311610a2f575b50505050509650975097509750975097509750975050919395979092949650565b600081815260208181526040808320600401805482518185028101850190935280835260609492939192909184015b82821015610b215760008481526020908190206040805160608101909152600285810290920180546001600160a01b03811683529193909290840191600160a01b900460ff1690811115610af357610af3610ee2565b6002811115610b0457610b04610ee2565b815260200160018201548152505081526020019060010190610a9d565b505050509050919050565b60008181526020819052604081208054909103610b805760405162461bcd60e51b8152602060048201526012602482015271159bdd1a5b99c81b9bdd081cdd185c9d195960721b6044820152606401610325565b600681015460ff1615610bcd5760405162461bcd60e51b8152602060048201526015602482015274159bdd1a5b99c8185b1c9958591e4818db1bdcd959605a1b6044820152606401610325565b8060050154421180610be6575060018101546004820154145b610c495760405162461bcd60e51b815260206004820152602e60248201527f566f74696e6720706572696f64206e6f7420656e64656420616e64206e6f742060448201526d185b1b081d9bdd195cc818d85cdd60921b6064820152608401610325565b60068101805460ff1916600117905560088101546007820154118015610c76575080600901548160070154115b15610c99576006810180546001919061ff001916610100835b0217905550610ce2565b80600701548160080154118015610cb7575080600901548160080154115b15610cd4576006810180546002919061ff00191661010083610c8f565b60068101805461ff00191690555b600681015460405183917f28b816828ce547a73487d3a898980617c5a174b7bef92213b26569338263771f91610d2091610100900460ff1690610f1a565b60405180910390a25050565b828054828255906000526020600020908101928215610d7f579160200282015b82811115610d7f5781546001600160a01b0319166001600160a01b03843516178255602090920191600190910190610d4c565b50610d8b929150610d8f565b5090565b5b80821115610d8b5760008155600101610d90565b600080600060408486031215610db957600080fd5b83359250602084013567ffffffffffffffff80821115610dd857600080fd5b818601915086601f830112610dec57600080fd5b813581811115610dfb57600080fd5b8760208260051b8501011115610e1057600080fd5b6020830194508093505050509250925092565b80356001600160a01b0381168114610e3a57600080fd5b919050565b60008060408385031215610e5257600080fd5b82359150610e6260208401610e23565b90509250929050565b600060208284031215610e7d57600080fd5b5035919050565b600081518084526020808501945080840160005b83811015610ebd5781516001600160a01b031687529582019590820190600101610e98565b509495945050505050565b602081526000610edb6020830184610e84565b9392505050565b634e487b7160e01b600052602160045260246000fd5b60038110610f1657634e487b7160e01b600052602160045260246000fd5b9052565b602081016104ba8284610ef8565b60008060408385031215610f3b57600080fd5b82359150602083013560038110610f5157600080fd5b809150509250929050565b87815260208101879052851515604082015260e08101610f7f6060830187610ef8565b8460808301528360a08301528260c083015298975050505050505050565b60e081526000610fb060e083018a610e84565b90508760208301528615156040830152610f7f6060830187610ef8565b602080825282518282018190526000919060409081850190868401855b8281101561102b57815180516001600160a01b031685528681015161101188870182610ef8565b508501518486015260609093019290850190600101610fea565b5091979650505050505050565b634e487b7160e01b600052601160045260246000fd5b808201808211156104ba576104ba611038565b6040808252810183905260008460608301825b868110156110a2576001600160a01b0361108d84610e23565b16825260209283019290910190600101611074565b5060209390930193909352509392505050565b634e487b7160e01b600052603260045260246000fd5b6000600182016110dd576110dd611038565b5060010190565b6000602082840312156110f657600080fd5b81518015158114610edb57600080fdfea26469706673582212201dcd43a9cff39e7ab1b3b67b5c187c05effc98e055d27d348cca8c85f4f2141264736f6c63430008130033","linkReferences":{}},"methodIdentifiers":{"VOTING_PERIOD()":"b1610d7e","castVote(uint256,uint8)":"56781388","closeVoting(uint256)":"d2111a72","disputeVotings(uint256)":"6fc88022","getAssignedJurors(uint256)":"35b05ec1","getDisputeVotes(uint256)":"c4736092","getDisputeVoting(uint256)":"c1f9fb87","getJurorVote(uint256,address)":"3af7f4f7","hasJurorVoted(uint256,address)":"6c8dc288","isJurorAssigned(uint256,address)":"20c7a055","registry()":"7b103999","startVoting(uint256,address[])":"0661f7cc"},"id":4}