{"abi":[{"type":"function","name":"MINIMUM_STAKE","inputs":[],"outputs":[{"name":"","type":"uint256","internalType":"uint256"}],"stateMutability":"view"},{"type":"function","name":"getAllJurors","inputs":[],"outputs":[{"name":"","type":"address[]","internalType":"address[]"}],"stateMutability":"view"},{"type":"function","name":"getEligibleJurors","inputs":[],"outputs":[{"name":"","type":"address[]","internalType":"address[]"}],"stateMutability":"view"},{"type":"function","name":"getJuror","inputs":[{"name":"juror","type":"address","internalType":"address"}],"outputs":[{"name":"","type":"tuple","internalType":"struct QJuryRegistry.Juror","components":[{"name":"isRegistered","type":"bool","internalType":"bool"},{"name":"stakedAmount","type":"uint256","internalType":"uint256"},{"name":"totalVotes","type":"uint256","internalType":"uint256"},{"name":"correctVotes","type":"uint256","internalType":"uint256"},{"name":"isSlashed","type":"bool","internalType":"bool"}]}],"stateMutability":"view"},{"type":"function","name":"isEligibleJuror","inputs":[{"name":"juror","type":"address","internalType":"address"}],"outputs":[{"name":"","type":"bool","internalType":"bool"}],"stateMutability":"view"},{"type":"function","name":"jurorList","inputs":[{"name":"","type":"uint256","internalType":"uint256"}],"outputs":[{"name":"","type":"address","internalType":"address"}],"stateMutability":"view"},{"type":"function","name":"jurors","inputs":[{"name":"","type":"address","internalType":"address"}],"outputs":[{"name":"isRegistered","type":"bool","internalType":"bool"},{"name":"stakedAmount","type":"uint256","internalType":"uint256"},{"name":"totalVotes","type":"uint256","internalType":"uint256"},{"name":"correctVotes","type":"uint256","internalType":"uint256"},{"name":"isSlashed","type":"bool","internalType":"bool"}],"stateMutability":"view"},{"type":"function","name":"recordVote","inputs":[{"name":"juror","type":"address","internalType":"address"},{"name":"wasCorrect","type":"bool","internalType":"bool"}],"outputs":[],"stateMutability":"nonpayable"},{"type":"function","name":"registerJuror","inputs":[],"outputs":[],"stateMutability":"payable"},{"type":"function","name":"slashJuror","inputs":[{"name":"juror","type":"address","internalType":"address"},{"name":"slashAmount","type":"uint256","internalType":"uint256"}],"outputs":[],"stateMutability":"nonpayable"},{"type":"function","name":"totalRegisteredJurors","inputs":[],"outputs":[{"name":"","type":"uint256","internalType":"uint256"}],"stateMutability":"view"},{"type":"function","name":"withdrawStake","inputs":[{"name":"amount","type":"uint256","internalType":"uint256"}],"outputs":[],"stateMutability":"nonpayable"},{"type":"event","name":"JurorRegistered","inputs":[{"name":"juror","type":"address","indexed":true,"internalType":"address"},{"name":"stakedAmount","type":"uint256","indexed":false,"internalType":"uint256"}],"anonymous":false},{"type":"event","name":"JurorSlashed","inputs":[{"name":"juror","type":"address","indexed":true,"internalType":"address"},{"name":"slashedAmount","type":"uint256","indexed":false,"internalType":"uint256"}],"anonymous":false},{"type":"event","name":"StakeWithdrawn","inputs":[{"name":"juror","type":"address","indexed":true,"internalType":"address"},{"name":"amount","type":"uint256","indexed":false,"internalType":"uint256"}],"anonymous":false}],"bytecode":{"object":"0x6080604052348015600e575f5ffd5b50611a778061001c5f395ff3fe6080604052600436106100a6575f3560e01c80638cbbb50c116100635780638cbbb50c146101a25780638e230e6f146101ca578063b0f8086614610206578063d4155d1f14610210578063dca5f6b01461024c578063ec80bdea1461028c576100a6565b806308dbbb03146100aa57806325d5971f146100d45780633a22db58146100fc5780633bda9978146101265780636358e2d51461014e57806369b34ca814610178575b5f5ffd5b3480156100b5575f5ffd5b506100be6102c8565b6040516100cb91906111f2565b60405180910390f35b3480156100df575f5ffd5b506100fa60048036038101906100f59190611239565b6102d4565b005b348015610107575f5ffd5b50610110610650565b60405161011d919061134b565b60405180910390f35b348015610131575f5ffd5b5061014c60048036038101906101479190611395565b61094f565b005b348015610159575f5ffd5b50610162610ba9565b60405161016f919061134b565b60405180910390f35b348015610183575f5ffd5b5061018c610c34565b60405161019991906111f2565b60405180910390f35b3480156101ad575f5ffd5b506101c860048036038101906101c39190611408565b610c3a565b005b3480156101d5575f5ffd5b506101f060048036038101906101eb9190611239565b610d77565b6040516101fd9190611455565b60405180910390f35b61020e610db2565b005b34801561021b575f5ffd5b506102366004803603810190610231919061146e565b611014565b604051610243919061151d565b60405180910390f35b348015610257575f5ffd5b50610272600480360381019061026d919061146e565b6110bb565b604051610283959493929190611545565b60405180910390f35b348015610297575f5ffd5b506102b260048036038101906102ad919061146e565b611104565b6040516102bf9190611596565b60405180910390f35b67016345785d8a000081565b5f5f3373ffffffffffffffffffffffffffffffffffffffff1673ffffffffffffffffffffffffffffffffffffffff1681526020019081526020015f205f015f9054906101000a900460ff1661035e576040517f08c379a000000000000000000000000000000000000000000000000000000000815260040161035590611609565b60405180910390fd5b5f5f3373ffffffffffffffffffffffffffffffffffffffff1673ffffffffffffffffffffffffffffffffffffffff1681526020019081526020015f206004015f9054906101000a900460ff16156103ea576040517f08c379a00000000000000000000000000000000000000000000000000000000081526004016103e190611671565b60405180910390fd5b805f5f3373ffffffffffffffffffffffffffffffffffffffff1673ffffffffffffffffffffffffffffffffffffffff1681526020019081526020015f2060010154101561046c576040517f08c379a0000000000000000000000000000000000000000000000000000000008152600401610463906116d9565b60405180910390fd5b67016345785d8a0000815f5f3373ffffffffffffffffffffffffffffffffffffffff1673ffffffffffffffffffffffffffffffffffffffff1681526020019081526020015f20600101546104c09190611724565b1015610501576040517f08c379a00000000000000000000000000000000000000000000000000000000081526004016104f8906117a1565b60405180910390fd5b805f5f3373ffffffffffffffffffffffffffffffffffffffff1673ffffffffffffffffffffffffffffffffffffffff1681526020019081526020015f206001015f82825461054f9190611724565b925050819055505f3373ffffffffffffffffffffffffffffffffffffffff168260405161057b906117ec565b5f6040518083038185875af1925050503d805f81146105b5576040519150601f19603f3d011682016040523d82523d5f602084013e6105ba565b606091505b50509050806105fe576040517f08c379a00000000000000000000000000000000000000000000000000000000081526004016105f59061184a565b60405180910390fd5b3373ffffffffffffffffffffffffffffffffffffffff167f8108595eb6bad3acefa9da467d90cc2217686d5c5ac85460f8b7849c840645fc8360405161064491906111f2565b60405180910390a25050565b60605f60025467ffffffffffffffff81111561066f5761066e611868565b5b60405190808252806020026020018201604052801561069d5781602001602082028036833780820191505090505b5090505f5f90505f5f90505b600180549050811015610876575f5f600183815481106106cc576106cb611895565b5b905f5260205f20015f9054906101000a900473ffffffffffffffffffffffffffffffffffffffff1673ffffffffffffffffffffffffffffffffffffffff1673ffffffffffffffffffffffffffffffffffffffff1681526020019081526020015f205f015f9054906101000a900460ff1680156107cc57505f5f6001838154811061075957610758611895565b5b905f5260205f20015f9054906101000a900473ffffffffffffffffffffffffffffffffffffffff1673ffffffffffffffffffffffffffffffffffffffff1673ffffffffffffffffffffffffffffffffffffffff1681526020019081526020015f206004015f9054906101000a900460ff16155b1561086957600181815481106107e5576107e4611895565b5b905f5260205f20015f9054906101000a900473ffffffffffffffffffffffffffffffffffffffff168383815181106108205761081f611895565b5b602002602001019073ffffffffffffffffffffffffffffffffffffffff16908173ffffffffffffffffffffffffffffffffffffffff16815250508180610865906118c2565b9250505b80806001019150506106a9565b505f8167ffffffffffffffff81111561089257610891611868565b5b6040519080825280602002602001820160405280156108c05781602001602082028036833780820191505090505b5090505f5f90505b82811015610945578381815181106108e3576108e2611895565b5b60200260200101518282815181106108fe576108fd611895565b5b602002602001019073ffffffffffffffffffffffffffffffffffffffff16908173ffffffffffffffffffffffffffffffffffffffff168152505080806001019150506108c8565b5080935050505090565b5f5f8373ffffffffffffffffffffffffffffffffffffffff1673ffffffffffffffffffffffffffffffffffffffff1681526020019081526020015f205f015f9054906101000a900460ff166109d9576040517f08c379a00000000000000000000000000000000000000000000000000000000081526004016109d090611953565b60405180910390fd5b805f5f8473ffffffffffffffffffffffffffffffffffffffff1673ffffffffffffffffffffffffffffffffffffffff1681526020019081526020015f20600101541015610a5b576040517f08c379a0000000000000000000000000000000000000000000000000000000008152600401610a52906119bb565b60405180910390fd5b805f5f8473ffffffffffffffffffffffffffffffffffffffff1673ffffffffffffffffffffffffffffffffffffffff1681526020019081526020015f206001015f828254610aa99190611724565b9250508190555067016345785d8a00005f5f8473ffffffffffffffffffffffffffffffffffffffff1673ffffffffffffffffffffffffffffffffffffffff1681526020019081526020015f20600101541015610b575760015f5f8473ffffffffffffffffffffffffffffffffffffffff1673ffffffffffffffffffffffffffffffffffffffff1681526020019081526020015f206004015f6101000a81548160ff0219169083151502179055505b8173ffffffffffffffffffffffffffffffffffffffff167fe79f13b65221379a51e8a5c792156c78a9c014eb4ddae1ec990ae85ac25351af82604051610b9d91906111f2565b60405180910390a25050565b60606001805480602002602001604051908101604052809291908181526020018280548015610c2a57602002820191905f5260205f20905b815f9054906101000a900473ffffffffffffffffffffffffffffffffffffffff1673ffffffffffffffffffffffffffffffffffffffff1681526020019060010190808311610be1575b5050505050905090565b60025481565b5f5f8373ffffffffffffffffffffffffffffffffffffffff1673ffffffffffffffffffffffffffffffffffffffff1681526020019081526020015f205f015f9054906101000a900460ff16610cc4576040517f08c379a0000000000000000000000000000000000000000000000000000000008152600401610cbb90611953565b60405180910390fd5b5f5f8373ffffffffffffffffffffffffffffffffffffffff1673ffffffffffffffffffffffffffffffffffffffff1681526020019081526020015f206002015f815480929190610d13906118c2565b91905055508015610d73575f5f8373ffffffffffffffffffffffffffffffffffffffff1673ffffffffffffffffffffffffffffffffffffffff1681526020019081526020015f206003015f815480929190610d6d906118c2565b91905055505b5050565b60018181548110610d86575f80fd5b905f5260205f20015f915054906101000a900473ffffffffffffffffffffffffffffffffffffffff1681565b67016345785d8a0000341015610dfd576040517f08c379a0000000000000000000000000000000000000000000000000000000008152600401610df4906116d9565b60405180910390fd5b5f5f3373ffffffffffffffffffffffffffffffffffffffff1673ffffffffffffffffffffffffffffffffffffffff1681526020019081526020015f205f015f9054906101000a900460ff1615610e88576040517f08c379a0000000000000000000000000000000000000000000000000000000008152600401610e7f90611a23565b60405180910390fd5b6040518060a001604052806001151581526020013481526020015f81526020015f81526020015f15158152505f5f3373ffffffffffffffffffffffffffffffffffffffff1673ffffffffffffffffffffffffffffffffffffffff1681526020019081526020015f205f820151815f015f6101000a81548160ff0219169083151502179055506020820151816001015560408201518160020155606082015181600301556080820151816004015f6101000a81548160ff021916908315150217905550905050600133908060018154018082558091505060019003905f5260205f20015f9091909190916101000a81548173ffffffffffffffffffffffffffffffffffffffff021916908373ffffffffffffffffffffffffffffffffffffffff16021790555060025f815480929190610fbf906118c2565b91905055503373ffffffffffffffffffffffffffffffffffffffff167f302e82b0b7908cfac0232eeb6a83332cbf587d0cb58eaa7ba72f884c149910fa3460405161100a91906111f2565b60405180910390a2565b61101c6111ac565b5f5f8373ffffffffffffffffffffffffffffffffffffffff1673ffffffffffffffffffffffffffffffffffffffff1681526020019081526020015f206040518060a00160405290815f82015f9054906101000a900460ff16151515158152602001600182015481526020016002820154815260200160038201548152602001600482015f9054906101000a900460ff1615151515815250509050919050565b5f602052805f5260405f205f91509050805f015f9054906101000a900460ff1690806001015490806002015490806003015490806004015f9054906101000a900460ff16905085565b5f5f5f8373ffffffffffffffffffffffffffffffffffffffff1673ffffffffffffffffffffffffffffffffffffffff1681526020019081526020015f205f015f9054906101000a900460ff1680156111a557505f5f8373ffffffffffffffffffffffffffffffffffffffff1673ffffffffffffffffffffffffffffffffffffffff1681526020019081526020015f206004015f9054906101000a900460ff16155b9050919050565b6040518060a001604052805f151581526020015f81526020015f81526020015f81526020015f151581525090565b5f819050919050565b6111ec816111da565b82525050565b5f6020820190506112055f8301846111e3565b92915050565b5f5ffd5b611218816111da565b8114611222575f5ffd5b50565b5f813590506112338161120f565b92915050565b5f6020828403121561124e5761124d61120b565b5b5f61125b84828501611225565b91505092915050565b5f81519050919050565b5f82825260208201905092915050565b5f819050602082019050919050565b5f73ffffffffffffffffffffffffffffffffffffffff82169050919050565b5f6112b68261128d565b9050919050565b6112c6816112ac565b82525050565b5f6112d783836112bd565b60208301905092915050565b5f602082019050919050565b5f6112f982611264565b611303818561126e565b935061130e8361127e565b805f5b8381101561133e57815161132588826112cc565b9750611330836112e3565b925050600181019050611311565b5085935050505092915050565b5f6020820190508181035f83015261136381846112ef565b905092915050565b611374816112ac565b811461137e575f5ffd5b50565b5f8135905061138f8161136b565b92915050565b5f5f604083850312156113ab576113aa61120b565b5b5f6113b885828601611381565b92505060206113c985828601611225565b9150509250929050565b5f8115159050919050565b6113e7816113d3565b81146113f1575f5ffd5b50565b5f81359050611402816113de565b92915050565b5f5f6040838503121561141e5761141d61120b565b5b5f61142b85828601611381565b925050602061143c858286016113f4565b9150509250929050565b61144f816112ac565b82525050565b5f6020820190506114685f830184611446565b92915050565b5f602082840312156114835761148261120b565b5b5f61149084828501611381565b91505092915050565b6114a2816113d3565b82525050565b6114b1816111da565b82525050565b60a082015f8201516114cb5f850182611499565b5060208201516114de60208501826114a8565b5060408201516114f160408501826114a8565b50606082015161150460608501826114a8565b5060808201516115176080850182611499565b50505050565b5f60a0820190506115305f8301846114b7565b92915050565b61153f816113d3565b82525050565b5f60a0820190506115585f830188611536565b61156560208301876111e3565b61157260408301866111e3565b61157f60608301856111e3565b61158c6080830184611536565b9695505050505050565b5f6020820190506115a95f830184611536565b92915050565b5f82825260208201905092915050565b7f4e6f7420612072656769737465726564206a75726f72000000000000000000005f82015250565b5f6115f36016836115af565b91506115fe826115bf565b602082019050919050565b5f6020820190508181035f830152611620816115e7565b9050919050565b7f4a75726f7220697320736c6173686564000000000000000000000000000000005f82015250565b5f61165b6010836115af565b915061166682611627565b602082019050919050565b5f6020820190508181035f8301526116888161164f565b9050919050565b7f496e73756666696369656e74207374616b6500000000000000000000000000005f82015250565b5f6116c36012836115af565b91506116ce8261168f565b602082019050919050565b5f6020820190508181035f8301526116f0816116b7565b9050919050565b7f4e487b71000000000000000000000000000000000000000000000000000000005f52601160045260245ffd5b5f61172e826111da565b9150611739836111da565b9250828203905081811115611751576117506116f7565b5b92915050565b7f576f756c642066616c6c2062656c6f77206d696e696d756d207374616b6500005f82015250565b5f61178b601e836115af565b915061179682611757565b602082019050919050565b5f6020820190508181035f8301526117b88161177f565b9050919050565b5f81905092915050565b50565b5f6117d75f836117bf565b91506117e2826117c9565b5f82019050919050565b5f6117f6826117cc565b9150819050919050565b7f5472616e73666572206661696c656400000000000000000000000000000000005f82015250565b5f611834600f836115af565b915061183f82611800565b602082019050919050565b5f6020820190508181035f83015261186181611828565b9050919050565b7f4e487b71000000000000000000000000000000000000000000000000000000005f52604160045260245ffd5b7f4e487b71000000000000000000000000000000000000000000000000000000005f52603260045260245ffd5b5f6118cc826111da565b91507fffffffffffffffffffffffffffffffffffffffffffffffffffffffffffffffff82036118fe576118fd6116f7565b5b600182019050919050565b7f4a75726f72206e6f7420726567697374657265640000000000000000000000005f82015250565b5f61193d6014836115af565b915061194882611909565b602082019050919050565b5f6020820190508181035f83015261196a81611931565b9050919050565b7f496e73756666696369656e74207374616b6520746f20736c61736800000000005f82015250565b5f6119a5601b836115af565b91506119b082611971565b602082019050919050565b5f6020820190508181035f8301526119d281611999565b9050919050565b7f416c7265616479207265676973746572656400000000000000000000000000005f82015250565b5f611a0d6012836115af565b9150611a18826119d9565b602082019050919050565b5f6020820190508181035f830152611a3a81611a01565b905091905056fea26469706673582212201ff83fbc9630ec6b3ce853251e311db80e9b674a44f926ea6a0052a61dec22ca64736f6c634300081e0033","linkReferences":{}},"methodIdentifiers":{"MINIMUM_STAKE()":"08dbbb03","getAllJurors()":"6358e2d5","getEligibleJurors()":"3a22db58","getJuror(address)":"d4155d1f","isEligibleJuror(address)":"ec80bdea","jurorList(uint256)":"8e230e6f","jurors(address)":"dca5f6b0","recordVote(address,bool)":"8cbbb50c","registerJuror()":"b0f80866","slashJuror(address,uint256)":"3bda9978","totalRegisteredJurors()":"69b34ca8","withdrawStake(uint256)":"25d5971f"},"id":2}