{"abi":[{"type":"function","name":"MINIMUM_STAKE","inputs":[],"outputs":[{"name":"","type":"uint256","internalType":"uint256"}],"stateMutability":"view"},{"type":"function","name":"getAllJurors","inputs":[],"outputs":[{"name":"","type":"address[]","internalType":"address[]"}],"stateMutability":"view"},{"type":"function","name":"getEligibleJurors","inputs":[],"outputs":[{"name":"","type":"address[]","internalType":"address[]"}],"stateMutability":"view"},{"type":"function","name":"getJuror","inputs":[{"name":"juror","type":"address","internalType":"address"}],"outputs":[{"name":"","type":"tuple","internalType":"struct QJuryRegistry.Juror","components":[{"name":"isRegistered","type":"bool","internalType":"bool"},{"name":"stakedAmount","type":"uint256","internalType":"uint256"},{"name":"totalVotes","type":"uint256","internalType":"uint256"},{"name":"correctVotes","type":"uint256","internalType":"uint256"},{"name":"isSlashed","type":"bool","internalType":"bool"}]}],"stateMutability":"view"},{"type":"function","name":"isEligibleJuror","inputs":[{"name":"juror","type":"address","internalType":"address"}],"outputs":[{"name":"","type":"bool","internalType":"bool"}],"stateMutability":"view"},{"type":"function","name":"jurorList","inputs":[{"name":"","type":"uint256","internalType":"uint256"}],"outputs":[{"name":"","type":"address","internalType":"address"}],"stateMutability":"view"},{"type":"function","name":"jurors","inputs":[{"name":"","type":"address","internalType":"address"}],"outputs":[{"name":"isRegistered","type":"bool","internalType":"bool"},{"name":"stakedAmount","type":"uint256","internalType":"uint256"},{"name":"totalVotes","type":"uint256","internalType":"uint256"},{"name":"correctVotes","type":"uint256","internalType":"uint256"},{"name":"isSlashed","type":"bool","internalType":"bool"}],"stateMutability":"view"},{"type":"function","name":"recordVote","inputs":[{"name":"juror","type":"address","internalType":"address"},{"name":"wasCorrect","type":"bool","internalType":"bool"}],"outputs":[],"stateMutability":"nonpayable"},{"type":"function","name":"registerJuror","inputs":[],"outputs":[],"stateMutability":"payable"},{"type":"function","name":"slashJuror","inputs":[{"name":"juror","type":"address","internalType":"address"},{"name":"slashAmount","type":"uint256","internalType":"uint256"}],"outputs":[],"stateMutability":"nonpayable"},{"type":"function","name":"totalRegisteredJurors","inputs":[],"outputs":[{"name":"","type":"uint256","internalType":"uint256"}],"stateMutability":"view"},{"type":"function","name":"withdrawStake","inputs":[{"name":"amount","type":"uint256","internalType":"uint256"}],"outputs":[],"stateMutability":"nonpayable"},{"type":"event","name":"JurorRegistered","inputs":[{"name":"juror","type":"address","indexed":true,"internalType":"address"},{"name":"stakedAmount","type":"uint256","indexed":false,"internalType":"uint256"}],"anonymous":false},{"type":"event","name":"JurorSlashed","inputs":[{"name":"juror","type":"address","indexed":true,"internalType":"address"},{"name":"slashedAmount","type":"uint256","indexed":false,"internalType":"uint256"}],"anonymous":false},{"type":"event","name":"StakeWithdrawn","inputs":[{"name":"juror","type":"address","indexed":true,"internalType":"address"},{"name":"amount","type":"uint256","indexed":false,"internalType":"uint256"}],"anonymous":false}],"bytecode":{"object":"0x608060405234801561001057600080fd5b50610e5b806100206000396000f3fe6080604052600436106100a75760003560e01c80638cbbb50c116100645780638cbbb50c1461016a5780638e230e6f1461018a578063b0f80866146101c2578063d4155d1f146101ca578063dca5f6b014610230578063ec80bdea146102ab57600080fd5b806308dbbb03146100ac57806325d5971f146100db5780633a22db58146100fd5780633bda99781461011f5780636358e2d51461013f57806369b34ca814610154575b600080fd5b3480156100b857600080fd5b506100c867016345785d8a000081565b6040519081526020015b60405180910390f35b3480156100e757600080fd5b506100fb6100f6366004610cad565b6102db565b005b34801561010957600080fd5b50610112610546565b6040516100d29190610cc6565b34801561012b57600080fd5b506100fb61013a366004610d2f565b610758565b34801561014b57600080fd5b506101126108df565b34801561016057600080fd5b506100c860025481565b34801561017657600080fd5b506100fb610185366004610d59565b610941565b34801561019657600080fd5b506101aa6101a5366004610cad565b610a03565b6040516001600160a01b0390911681526020016100d2565b6100fb610a2d565b3480156101d657600080fd5b506101ea6101e5366004610d95565b610bcf565b6040516100d29190600060a08201905082511515825260208301516020830152604083015160408301526060830151606083015260808301511515608083015292915050565b34801561023c57600080fd5b5061027f61024b366004610d95565b6000602081905290815260409020805460018201546002830154600384015460049094015460ff9384169492939192911685565b60408051951515865260208601949094529284019190915260608301521515608082015260a0016100d2565b3480156102b757600080fd5b506102cb6102c6366004610d95565b610c63565b60405190151581526020016100d2565b3360009081526020819052604090205460ff166103385760405162461bcd60e51b81526020600482015260166024820152752737ba1030903932b3b4b9ba32b932b210353ab937b960511b60448201526064015b60405180910390fd5b3360009081526020819052604090206004015460ff161561038e5760405162461bcd60e51b815260206004820152601060248201526f129d5c9bdc881a5cc81cdb185cda195960821b604482015260640161032f565b336000908152602081905260409020600101548111156103e55760405162461bcd60e51b8152602060048201526012602482015271496e73756666696369656e74207374616b6560701b604482015260640161032f565b3360009081526020819052604090206001015467016345785d8a00009061040d908390610dcd565b101561045b5760405162461bcd60e51b815260206004820152601e60248201527f576f756c642066616c6c2062656c6f77206d696e696d756d207374616b650000604482015260640161032f565b336000908152602081905260408120600101805483929061047d908490610dcd565b9091555050604051600090339083908381818185875af1925050503d80600081146104c4576040519150601f19603f3d011682016040523d82523d6000602084013e6104c9565b606091505b505090508061050c5760405162461bcd60e51b815260206004820152600f60248201526e151c985b9cd9995c8819985a5b1959608a1b604482015260640161032f565b60405182815233907f8108595eb6bad3acefa9da467d90cc2217686d5c5ac85460f8b7849c840645fc906020015b60405180910390a25050565b6060600060025467ffffffffffffffff81111561056557610565610de0565b60405190808252806020026020018201604052801561058e578160200160208202803683370190505b5090506000805b6001548110156106a757600080600183815481106105b5576105b5610df6565b60009182526020808320909101546001600160a01b0316835282019290925260400190205460ff1680156106275750600080600183815481106105fa576105fa610df6565b60009182526020808320909101546001600160a01b0316835282019290925260400190206004015460ff16155b15610695576001818154811061063f5761063f610df6565b9060005260206000200160009054906101000a90046001600160a01b031683838151811061066f5761066f610df6565b6001600160a01b03909216602092830291909101909101528161069181610e0c565b9250505b8061069f81610e0c565b915050610595565b5060008167ffffffffffffffff8111156106c3576106c3610de0565b6040519080825280602002602001820160405280156106ec578160200160208202803683370190505b50905060005b828110156107505783818151811061070c5761070c610df6565b602002602001015182828151811061072657610726610df6565b6001600160a01b03909216602092830291909101909101528061074881610e0c565b9150506106f2565b509392505050565b6001600160a01b03821660009081526020819052604090205460ff166107b75760405162461bcd60e51b8152602060048201526014602482015273129d5c9bdc881b9bdd081c9959da5cdd195c995960621b604482015260640161032f565b6001600160a01b0382166000908152602081905260409020600101548111156108225760405162461bcd60e51b815260206004820152601b60248201527f496e73756666696369656e74207374616b6520746f20736c6173680000000000604482015260640161032f565b6001600160a01b0382166000908152602081905260408120600101805483929061084d908490610dcd565b90915550506001600160a01b03821660009081526020819052604090206001015467016345785d8a000011156108a4576001600160a01b0382166000908152602081905260409020600401805460ff191660011790555b816001600160a01b03167fe79f13b65221379a51e8a5c792156c78a9c014eb4ddae1ec990ae85ac25351af8260405161053a91815260200190565b6060600180548060200260200160405190810160405280929190818152602001828054801561093757602002820191906000526020600020905b81546001600160a01b03168152600190910190602001808311610919575b5050505050905090565b6001600160a01b03821660009081526020819052604090205460ff166109a05760405162461bcd60e51b8152602060048201526014602482015273129d5c9bdc881b9bdd081c9959da5cdd195c995960621b604482015260640161032f565b6001600160a01b03821660009081526020819052604081206002018054916109c783610e0c565b919050555080156109ff576001600160a01b03821660009081526020819052604081206003018054916109f983610e0c565b91905055505b5050565b60018181548110610a1357600080fd5b6000918252602090912001546001600160a01b0316905081565b67016345785d8a0000341015610a7a5760405162461bcd60e51b8152602060048201526012602482015271496e73756666696369656e74207374616b6560701b604482015260640161032f565b3360009081526020819052604090205460ff1615610acf5760405162461bcd60e51b8152602060048201526012602482015271105b1c9958591e481c9959da5cdd195c995960721b604482015260640161032f565b6040805160a08101825260018082523460208084019182526000848601818152606086018281526080870183815233808552948490529783209651875490151560ff199182161788559451878701559051600280880191909155905160038701559551600490950180549515159590931694909417909155815480830183559183527fb10e2d527612073b26eecdfd717e6a320cf44b4afac2b0732d9fcbe2b7fa0cf690910180546001600160a01b031916909117905581549190610b9383610e0c565b909155505060405134815233907f302e82b0b7908cfac0232eeb6a83332cbf587d0cb58eaa7ba72f884c149910fa9060200160405180910390a2565b610c056040518060a001604052806000151581526020016000815260200160008152602001600081526020016000151581525090565b506001600160a01b031660009081526020818152604091829020825160a081018452815460ff908116151582526001830154938201939093526002820154938101939093526003810154606084015260040154161515608082015290565b6001600160a01b03811660009081526020819052604081205460ff168015610ca757506001600160a01b03821660009081526020819052604090206004015460ff16155b92915050565b600060208284031215610cbf57600080fd5b5035919050565b6020808252825182820181905260009190848201906040850190845b81811015610d075783516001600160a01b031683529284019291840191600101610ce2565b50909695505050505050565b80356001600160a01b0381168114610d2a57600080fd5b919050565b60008060408385031215610d4257600080fd5b610d4b83610d13565b946020939093013593505050565b60008060408385031215610d6c57600080fd5b610d7583610d13565b915060208301358015158114610d8a57600080fd5b809150509250929050565b600060208284031215610da757600080fd5b610db082610d13565b9392505050565b634e487b7160e01b600052601160045260246000fd5b81810381811115610ca757610ca7610db7565b634e487b7160e01b600052604160045260246000fd5b634e487b7160e01b600052603260045260246000fd5b600060018201610e1e57610e1e610db7565b506001019056fea264697066735822122030bdf214aaf4b33651ef373b5639c3045a2ddf6075ccd8ce4e67b5ee68ea15c264736f6c63430008130033","linkReferences":{}},"methodIdentifiers":{"MINIMUM_STAKE()":"08dbbb03","getAllJurors()":"6358e2d5","getEligibleJurors()":"3a22db58","getJuror(address)":"d4155d1f","isEligibleJuror(address)":"ec80bdea","jurorList(uint256)":"8e230e6f","jurors(address)":"dca5f6b0","recordVote(address,bool)":"8cbbb50c","registerJuror()":"b0f80866","slashJuror(address,uint256)":"3bda9978","totalRegisteredJurors()":"69b34ca8","withdrawStake(uint256)":"25d5971f"},"id":2}